:020000040800F2
:105000009840002035520008B1840008297C00082F
:10501000AD840008E774000837960008000000001F
:10502000000000000000000000000000218A0008CD
:105030001578000800000000F1860008358B000894
:105040004F5200084F5200084F5200084F520008BC
:105050004F5200084F520008197800084F520008BC
:105060004F5200084F5200084F5200084F5200089C
:10507000ED7400084F5200084F5200084F520008CC
:105080004F5200084F5200084F5200084F5200087C
:105090004F5200084F5200084F5200084F5200086C
:1050A0004F5200084F5200084F5200084F5200085C
:1050B0004F5200084F5200084F5200084F5200084C
:1050C0004F5200084F5200084F5200084F5200083C
:1050D0004F5200084F5200084F5200080592000836
:1050E0004F5200084F5200084F52000800F002F8DB
:1050F00000F090F80AA090E8000C82448344AAF1E2
:105100000107DA4501D100F085F8AFF2090EBAE8DF
:105110000F0013F0010F18BFFB1A43F001031847EB
:10512000444E0000644E0000103A24BF78C878C195
:10513000FAD8520724BF30C830C144BF04680C609D
:10514000704700000023002400250026103A28BFE5
:1051500078C1FBD8520728BF30C148BF0B607047E9
:105160006E2900F0BF84702900F01786662904F0CC
:105170006785652904F06485672904F061856129E4
:1051800004F0608503681B0A28BF41F0800169298B
:1051900000F0C280642900F0BF80752900F0BC8057
:1051A0006F2900F0A485782900F0E385E92900F053
:1051B0003F85E42900F03C85F52900F03985EF2989
:1051C00000F0A185F82900F0E2850368DB0928BF1B
:1051D00041F08001632900F0C084732900F0C58488
:1051E000E32901F00F82F32901F0148200207047B7
:1051F0001FB501F01BFC04000020002104F00AFD93
:10520000401C60600020002104F0EEFCE0601FBD47
:1052100010B510BD01F0DCFB1146FFF7E9FF04F00B
:10522000EDFA01F0B9FC03B4FFF7F2FF03BC01F0A3
:1052300001FD00000948804709480047FEE7FEE7F6
:10524000FEE7FEE7FEE7FEE7FEE7FEE7FEE7FEE736
:1052500004480549054A064B70470000398B000891
:10526000ED500008983A002098400020983C00201B
:10527000983C00201CB50C46064B7B4469460090C8
:10528000204600F048FC04460020694600F056FC29
:1052900020461CBDBF0800000FB41CB5084B06AA71
:1052A0007B4469460090059800F035FC04460020D8
:1052B000694600F043FC20461CBC5DF814FB00006E
:1052C0009908000070B50C460546012A05D02878DB
:1052D000800600D5EA69002302E0012305E05B1C9B
:1052E000934202D2E05C0028F9D1A869E618C01AFE
:1052F000A861286A18442862284600F061FB04E08F
:10530000D5E9012114F8010B9047B442F8D328469F
:1053100000F06CFB70BD00002DE9F0410646002452
:1053200010687529314616A510D000F070FB0028D2
:1053300002DA404213A507E031688A0701D512A5B9
:1053400002E0490704D511A5012401E000F068FB43
:1053500000210A2206F1240709E0B0FBF2FCB0FBB1
:10536000F2F302FB1C00303078541846491C002828
:10537000F3D123462A463046BDE8F04100F059BB40
:10538000000000002D0000002B00000020000000A5
:105390002DE9F05F894604464FF0000ADFF874B14A
:1053A000FB44C0F820A02046E1688847002874D05C
:1053B000252806D0D4E901219047206A401C2062AC
:1053C000F1E700265F462046E16888472028054629
:1053D00007DB312D05D2781910F8200C08B10643EF
:1053E000F1E7B00701D526F00406C4F81CA0002799
:1053F000C4F818A02A2D09D0284604F0C7F938B3FC
:1054000004EB8708303DC8F8185019E059F8041B20
:10541000204604EB87029161E1688847012F054629
:1054200018D1E069002820DA26F020061DE0D8F81F
:10543000180000EB800005EB40003038C8F8180079
:105440002046E1688847054604F0A0F90028EED11F
:10545000012F0AD02E2D08D12046E16888477F1CF5
:105460000546022F46F02006C4DBA069002803DAB7
:10547000404246F00106A061F00701D026F0100678
:105480006C2D0BD0682D09D04C2D39D06A2D35D01C
:10549000742D35D07A2D33D016E038E0E1682F46F0
:1054A00020468847B842054609D16C2F26D04FF4D4
:1054B0008060E168064320468847054604E06C2F7B
:1054C0001AD04FF4807006430DB3A5F1410019289E
:1054D00002D8203546F400664A4629462046266012
:1054E0004E46FFF73DFE80B101280BD0F61D26F099
:1054F000070000F1080956E74020E4E78020D8E7DC
:105500000020D6E706F104094DE7284652E7206A55
:10551000BDE8F09FA44800000FB400B58DB010A9FD
:10552000099000910B904FF0FF300A9000200C90F2
:10553000064878440690064878446A4607900F99D2
:1055400009A800F049FC0DB05DF814FBC308000089
:10555000DB0800002DE9FF5F1D464FF0FF3B914641
:105560004FF000085F46D5E90146A96901987F1C04
:105570008847296A824688470028F6D1BAF1FF3F5A
:105580000CD0002E24F4C06419DD600614D5BAF1E5
:105590002B0F09D0BAF12D0F0ED103E0584604B0FD
:1055A000BDE8F09F44F48064A96901987F1C884796
:1055B000761E8246002E02DDBAF1300F03D0B9F11B
:1055C000000F26D032E0A969761E01987F1C44F4B2
:1055D00000748847002E824605DDBAF1780F06D0A8
:1055E000BAF1580F03D0B9F1000F10D01EE0B9F195
:1055F000000F02D0B9F1100F18D1A969761E0198D9
:105600007F1C24F4007488478246102002E00820A2
:1056100000E00A20814609E0A96908FB0908761E16
:1056200001987F1C44F4007488478246002E05DDF3
:105630004946504600F0BCFB0028EDDAE9690198C4
:105640008847A00502D46FF00100A8E7E00725D144
:10565000600613D5600502D5C8F1000000E04046A1
:1056600029680A1D2A600968220501D5087015E01D
:10567000220701D5088011E008600FE02868011DAD
:1056800029600068210502D580F8008006E0210726
:1056900002D5A0F8008001E0C0F8008038467EE71F
:1056A0002DE9FF5F4FF00008994614464646916980
:1056B000D2E901A7DDF838B001988847054659EAD4
:1056C0000B0005D009E0A1690198761C88470546C2
:1056D000216A284688470028F5D1681C03D05FEA74
:1056E000CA7005D015E04FF0FF3004B0BDE8F09F60
:1056F0002068011D2160D0F800800AE05FEACA70CE
:1057000001D108F8015BA169761C01987F1E8847CA
:105710000546002F1ADD681C18D0B9F1000F0DD016
:10572000E81705EBD060421120F01F0059F8221055
:105730002A1A012090400142E0D107E0BBF1000F9E
:10574000DCD12846216A88470028D7D0E169019832
:105750008847BBF1000F07D1002E05DD5FEACA7054
:1057600002D1002188F80010A068B84203DDBBF127
:10577000000F03D017B16FF00100B6E73046B4E771
:1057800030B505460B462A4613F8014B12F8010BBB
:1057900008B1A042F8D01CB1002802D06D1CF1E77E
:1057A000284630BD40EA010310B59B070FD1042AFB
:1057B0000DD310C808C9121F9C42F8D020BA19BADC
:1057C000884201D9012010BD4FF0FF3010BD1AB141
:1057D000D30703D0521C07E0002010BD10F8013B96
:1057E00011F8014B1B1B07D110F8013B11F8014BBD
:1057F0001B1B01D1921EF1D1184610BD10B5431CE0
:1058000002E010F8011B71B18107FAD14FF00132AB
:1058100002C88C1A8C4314EAC211F9D0C01A0A06C5
:1058200003D0C01E10BDC01A10BD0A0401D0801ED6
:1058300010BD0902FCD0401E10BD032A40F230808A
:1058400010F0030C00F0158011F8013BBCF1020FC1
:10585000624498BF11F801CB00F8013B38BF11F842
:10586000013BA2F1040298BF00F801CB38BF00F859
:10587000013B11F0030300F02580083AC0F00880D6
:1058800051F8043B083A51F804CBA0E80810F5E7BA
:10589000121D5CBF51F8043B40F8043BAFF300809D
:1058A000D20724BF11F8013B11F801CB48BF11F812
:1058B000012B24BF00F8013B00F801CB48BF00F8E2
:1058C000012B704710B5203AC0F00B80B1E818509A
:1058D000203AA0E81850B1E81850A0E81850BFF4DA
:1058E000F5AF5FEA027C24BFB1E81850A0E8185079
:1058F00044BF18C918C0BDE810405FEA827C24BFCD
:1059000051F8043B40F8043B08BF7047D20728BF5A
:1059100031F8023B48BF11F8012B28BF20F8023BA9
:1059200048BF00F8012B70474FF000020429C0F077
:10593000128010F0030C00F01B80CCF1040CBCF1C1
:10594000020F18BF00F8012BA8BF20F8022BA1EB13
:105950000C0100F00DB85FEAC17C24BF00F8012BF8
:1059600000F8012B48BF00F8012B70474FF00002F0
:1059700000B5134694469646203922BFA0E80C5045
:10598000A0E80C50B1F12001BFF4F7AF090728BF20
:10599000A0E80C5048BF0CC05DF804EB890028BF9C
:1059A00040F8042B08BF704748BF20F8022B11F0C5
:1059B000804F18BF00F8012B704770477047704741
:1059C00070B5044685690068C10601D5302600E03F
:1059D0002026C00707D070BDD4E90121304690478A
:1059E000206A401C20626D1EF6D570BD70B504465D
:1059F00085690078C00707D170BDD4E90121202056
:105A00009047206A401C20626D1EF6D570BD096863
:105A10004A0501D540B27047C905FCD500B27047B0
:105A200009684A0501D5C0B27047C905FCD580B2E6
:105A300070472DE9F0470D4699469246044600F11D
:105A400024080168880604D5E06921F0100121606E
:105A500000E00120A84201DD471B00E00027A1690A
:105A60007A1902EB0900081AA0612078C00602D456
:105A70002046FFF7A5FF002608E0D4E901211AF827
:105A800006009047206A401C761C20624E45F4DBDD
:105A90002078C0060AD52046FFF792FF06E0D4E939
:105AA000012130209047206A401C2062381EA7F157
:105AB0000107F4DC07E0D4E9012118F8050090475C
:105AC000206A401C2062281EA5F10105F3DC204657
:105AD000FFF78CFF2078000602D50220BDE8F08792
:105AE0000120FBE711680268006A530501D50870C0
:105AF0000AE0D30501D5088006E0130603D5C217D6
:105B0000C1E9000200E008600120704701694A1CF9
:105B100002610878704700B58FB0CDE901310021EE
:105B2000059105497944CDE9031011466846FFF710
:105B30002FFC0FB000BD0000E5FFFFFF0A6802F870
:105B4000010B0A60704710B5436913B1AFF30080D1
:105B500001E0FFF7B7FB012010BD127800F124012E
:105B60000A7000224A700122EDE711684FF0FF32FF
:105B7000E9E700002DE9FF5F15468A460446DFF895
:105B8000AC80F8440027D8E900103E46CDE900106B
:105B900010E03AF816106A4602A800F0F9FE411C1F
:105BA00007D02178890603D5E269391891420DD8CA
:105BB0000744761C2078800602D5E069B84205DDEE
:105BC000AE42E6DB3AF816000028E2D1A069C01B1D
:105BD000A0612046FFF7F4FED8E90010CDE90010DF
:105BE000002017E03AF818106A4602A800F0D0FE2C
:105BF000B0F1FF3F81460BD000250DF1080B05E009
:105C0000D4E901211BF8050090476D1C4D45F7D3E1
:105C100008F10100B0428046E4DB206A384420628B
:105C20002046FFF7E3FEBDE8FF9F0000D6400000DE
:105C30002DE9F0418046D21D22F007020025D2E96D
:105C40000002F52915A614D0011E72F1000106DA32
:105C50000023D0EB030063EB020211A608E0D8F8A2
:105C600000108B0701D50FA602E0490701D50EA64B
:105C700001251146002408F1240704E000F0DCF8B7
:105C800030323A55641C50EA0102F7D12B463246B5
:105C900021464046BDE8F041FFF7CBBE00000000C2
:105CA0002D0000002B0000002000000030B4002177
:105CB00000F1240408E002F00705D208303542EA7A
:105CC0004372DB086554491C52EA0305F3D10468AA
:105CD000002310A2250707D5A40600D421B1C4696A
:105CE00001230DA2641EC46130BCFFF7A2BE10B533
:105CF000044621461068FFF793FE02462046BDE8A1
:105D000010400023D2E7D21D22F00701D1E9002381
:105D1000CCE700000000000030000000F0B40D46A9
:105D20000188090502D5214C7C4402E01F4C7C44CB
:105D30000E34002100F1240608E002F00F071209DA
:105D4000E75D42EA03721B097754491C52EA0307D4
:105D5000F3D102780023120704D5702D06D009B1C3
:105D6000022311342246F0BCFFF763BE0123103436
:105D7000F8E770B504460D4621461068FFF750FE5F
:105D8000024629462046BDE870400023C6E7D21DE2
:105D900022F00703D3E90023C0E70368126843F049
:105DA000200303600823C3610023B7E7383F0000E6
:105DB0003A2800D2303820F02002412A01D3A2F143
:105DC0003700884201D34FF0FF307047026811441A
:105DD0001378016018467047D160054979445161D4
:105DE00004497944116200211161114600F016BC8A
:105DF000EDFFFFFFDD000000426842B1016811F8CD
:105E0000013B23B1521EC0E9001218467047012120
:105E1000C160881E704742685AB1C368016843B9BF
:105E200083688B4205D0491E521CC0E90012002035
:105E300070474FF0FF30704730B5B0F10A024FEABB
:105E4000900E71F100034EEA817EB0EB0E0061EB23
:105E500091014FEA101E4EEA017E10EB0E0041EB5D
:105E600011114FEA102E4EEA016E10EB0E0041EBBD
:105E700011214FEA104E4EEA014E10EB0E0041EB9D
:105E80001141401841F100014FEAD00040EA417051
:105E90004FEAD10110EB80054FEA810444EA907487
:105EA00044EB01046D1944EB0404521BA3414FF071
:105EB000000348BF0A3200D530BD401C41F100014B
:105EC00030BD10B5044600F0A9FD0068005D00F08B
:105ED000010010BD70472DE9FF4F0C461E464FF0E4
:105EE000FF378BB0D2E90001DDF860800A908A4666
:105EF000C1F30A5505B93D46002108464FF00000A0
:105F0000BAF1000F00F4400005DA00EB80004FF416
:105F1000400101EA50004FEA9059B9F1010F00DD4C
:105F2000B9460A9850EA4A000ED044F61050A5F23D
:105F3000FF3545432F14B8F1000F1ED07542291EBE
:105F40001EDDC9F100021CE0B8F1010F4FF00000A6
:105F500001D0302103E0F24305E02154401CB0425F
:105F6000FBDB30460022002121540B99C1F8088048
:105F7000C1E900200FB0BDE8F08FBD1B6D1CDEE74E
:105F80004A4600DA694206A800F094FD06AB93E8A1
:105F9000070003AB83E8070050460A9900F051FE62
:105FA0008DE80700A0F500501F3800900398002DE1
:105FB0000ADD42F21F014A460844002303A9039068
:105FC000684601F0BAF809E0A0F500504A461F38CB
:105FD000002303A90390684601F0C4F88DE8070088
:105FE0000004000C03D04FF0FF30410800E01046E1
:105FF000B8F1000F03D00022009215461EE0751E76
:1060000005D4FFF719FF303262556D1EF9D5B3463E
:106010000122084302D000227F1C04E020783028AF
:1060200001D100227F1E002A099784D01DE0112D86
:1060300007DAFFF701FF303262556D1C50EA0102AA
:10604000F5D1084302D00098C8B10EE00021681EC7
:1060500005E0235C625C63542254401E491C81426B
:10606000F7DBAB46A81B401E0990002004F80B008C
:106070000B98099AC0F80880C0E9002B7AE711262E
:106080004FF0000857E72DE9F04F88460446D21D2F
:1060900022F0070191B0D1E90001CDE90A0103F036
:1060A00061FB02460B98C00F01D02D2007E020684D
:1060B000810701D52B2002E0202101EAC000032A3C
:1060C000099001D0072A05DB03464146204600F02F
:1060D000B1FC0BE12078800601D5E06900E00620E4
:1060E000B8F1650F814606D0B8F1660F18D0B8F147
:1060F000670F70D131E00020B9F1110F009001DB82
:10610000112301E009F101030AAA01A90CA8FFF774
:10611000E2FEDDE90C70002609F10105834647E047
:1061200001204B4600904FF000470AAA01A90CA895
:10613000FFF7D1FEDDE90DB00C995D46002610B9E0
:1061400009F101000D18B9EB050003D4C0F1FF36C9
:1061500009F10105A5EB09002BE0B9F1010F01DA06
:106160004FF001090020B9F1110F0090484601DD00
:10617000112300E003460AAA01A90CA8FFF7ABFE11
:10618000DDE90C704D4600268346207800070AD4CE
:10619000AB4500DA5D4601A8012D04DD411911F877
:1061A000011C302907D04F4502DA17F1040F04DA39
:1061B000012082460FE06D1EEEE7002F02DCED1B92
:1061C0003E4403E0781CA84200DD7D1CB81B00F1B2
:1061D000010A4FF000472078000703D4AA4501DBED
:1061E0004FF0FF3A0021B7F1004F0DF143088DF851
:1061F000431024D002202B23002F01DA7F422D23CD
:106200000A21021EA0F1010000DC5FB197FBF1FC46
:1062100097FBF1F201FB1C7C17460CF1300C08F8DF
:1062200001CDEEE7A8F1010003702188090501D531
:10623000452100E06521A0F1010800F8011C099842
:106240000FA9A1EB0807FF1D00B10120411901EBC7
:10625000EA70A1693844081A401EA0612078C0067F
:1062600002D42046FFF7ACFB099828B1D4E90121FC
:106270009047206A401C20622078C00622D5204624
:10628000FFF79EFB1EE0002E04DBB34502DD01A8F4
:10629000805D00E03020D4E901219047206A401C55
:1062A0002062761CAAF101005FEA000A0AD100F020
:1062B000BDFBC0680168405CD4E901219047206AB9
:1062C000401C2062281EA5F10105DCDC07E0D4E9B2
:1062D000012118F8010B9047206A401C2062381EEB
:1062E000A7F10107F3DC2046FFF780FB032011B084
:1062F00041E600002DE9F04F04460D46D21D22F084
:10630000070089B0D0E900974846394603F02AFAD9
:106310000246F80F01D02D2307E02068810701D540
:106320002B2302E0202101EAC0038DF820300BB1BD
:10633000012000E00020032A824601D0072A04DB66
:106340002946204600F076FB3FE12078800601D404
:106350000D2500E0E569C7F30A560D2D49DA002145
:106360004FEA175B08464FF00000002F00F4400092
:1063700007DA00EB80004FF4400100EBD07001EA37
:1063800060008115012901DD4FF0FF3100224FEA45
:10639000850CBCF1180F06D31346ACF118004FF072
:1063A0008052C24003E04FF4801323FA0CF30CF147
:1063B0000C0CBCF1200F04D3ACF1200C09FA0CF04A
:1063C00001E007FA0CF000294FF0004801DD18B990
:1063D0000FE00ED140450CD319EB02095F4121B902
:1063E000404502D19F4329EA0209BBEB175F00D069
:1063F000761C2088000502D57B48784402E07A4864
:106400007844193808AA302302F80A30037C0AF1CC
:106410000101002E0AF1020A53546A4602DC4FF0D1
:10642000300101E04FF031014FF001088DF800100C
:1064300002D0A6F2FF3603E059EA470100D06B4EC6
:10644000002D02DC2178090704D54FF002082E2127
:106450008DF80110C44600210BE0C7F303433F0150
:10646000C35C491C6D1E02F80830052908F10108BB
:1064700001DA002DF1DC00210CE000EB1973491C5E
:106480001B786D1E082902F808304FEA091908F137
:10649000010801DA002DF0DC21688B0602D516E038
:1064A000A8F10108E04505DD02EB080313F8013C03
:1064B000302BF5D0B8F1000F09DD02EB080313F81B
:1064C000013C2E2B03D1090701D4A8F10108002DAE
:1064D00005DD3E2102F808106D1E08F10108407C20
:1064E000002E02F8080008F1010804DA2D20764297
:1064F00002F8080002E02B2002F808000A214FF4FD
:106500007A70864208F101080BDB96FBF0F330331A
:1065100002F8083096FBF0F308F1010800FB13665F
:1065200001E0642E0CDB642096FBF0F3303302F8BC
:10653000083096FBF0F308F1010800FB136601E058
:106540000A2E06DB96FBF1F0303002F8080008F165
:10655000010896FBF1F001FB1060303002F80800F2
:10656000A16908F1010808EB050202EB0A00081A0C
:10657000A0612078C00602D42046FFF721FA216AE4
:1065800008AE01EB0A00206204E0D4E9012116F80C
:10659000010B9047BAF1010AF7D22078C00602D564
:1065A0002046FFF70DFA6E4609E016F8010B3E286B
:1065B0000FD0D4E901219047206A401C2062B8F135
:1065C0000108F2D22046FFF711FA09B00320BDE816
:1065D000F08F206A2844206203E0D4E901213020B2
:1065E00090476D1EEBD3F8E7A138000002FCFFFFD7
:1065F00010B5436913B1AFF3008001E0FFF7BAFAB9
:10660000012010BD128800F1240182840022C2847E
:106610000122EDE711684FF0FF32E9E72DE9F34F72
:106620004FF0000A0C4656468DB001200C9001F147
:106630000C000B9062690B9801219047051E2DD02C
:10664000252D2CD0216A8847C0B162690B980121A1
:106650009047216A88470028F7D16269411E0B984C
:10666000904700E0761CA1690D988847216A884709
:106670000028F7D1E1690D988847DBE7A1690D98FB
:106680008847A842074601D1761CD3E7E1690D98F7
:1066900088477F1C02D1BAF1000F6FD06BE16269AD
:1066A0000B9800273D46394690472A2804D1626955
:1066B0000B98012190470125DFF8D08262690B9881
:1066C00001219047A0F130010A290AD24745E5DCB3
:1066D00007EB870100EB4107303FDFD445F01005A1
:1066E000ECE7E90601D46FF000476C280AD04C288B
:1066F00014D0682815D06A280DD074281CD07A28A8
:106700001AD01DE062690B98012190476C2802D0D5
:1067100045F0040514E045F002050DE045F02005C4
:106720000AE062690B9801219047682802D045F081
:10673000080505E045F4006562690B980121904762
:10674000C4E9015765283DD019DC58287AD00CDC03
:10675000452837D004DC252826D041289ED131E0B9
:1067600046282FD0472899D12CE05B2877D0612884
:1067700028D063287CD0642823D15AE0F6E06F2823
:1067800048D008DC66281DD067281BD0692821D096
:106790006E2816D127E0702845D0732868D0752858
:1067A00047D078280DD14DE0A1690D98884725285C
:1067B00005463FF469AFE1690D9888476D1C3FF4C9
:1067C0006AAFD8E00D9923466A466FF00100AFF337
:1067D0000080C5E045F0400023464FF000026060B5
:1067E000A80736D43EE0E8077FF447AF2068011DD4
:1067F00021600068290501D506701BE7290701D52E
:10680000068017E7A90703D5F117C0E9006111E772
:1068100006600FE745F0400023464FF00802606035
:10682000A80716D41EE040F60E0125EA01006060BC
:1068300016E045F0400023464FF00A026060A807CA
:1068400007D40FE045F040006060A80708D5234654
:1068500010220D996FF00100AFF3008080E007E097
:10686000102223460D996FF00100FEF773FE77E0CA
:106870004FF0000963284F46C8464B46CB4602D02E
:106880005B2806D038E0E80601D40120A06001278B
:1068900032E06269D4F80CB00B98012190475E2871
:1068A00007D14FF0010949466269D4F80CB00B9842
:1068B0009047216939B900210A4603AB43F82120EA
:1068C000491C0829FADBD8B3216949B308F101084A
:1068D00062690B98012190475D28F4D1B9F1000F4E
:1068E00009D0002003A951F82020D24341F82020EC
:1068F000401C0828F7DB03AB2069002820794FEA09
:1069000040701ED05B462246CDF80080CDE901974D
:106910000D9900286FF0010020DAAFF300801FE02E
:10692000C11703AA00EBD1614B1121F01F0102EB4B
:106930008302411A13680120884003431360C7E7AC
:1069400019E00D99224600286FF00100009702DA45
:10695000AFF3008004E0FEF7A3FE01E0AFF3008098
:1069600000280ADA401C06D10C9820B14FF0FF3005
:106970000FB0BDE8F08F5046FAE7E90701D10AF100
:10698000010A064400200C9054E60000CCCCCC0C4C
:1069900070B516460C46054600F040F8036893F8BB
:1069A0000101012806D0FF2C0FD8185D68B1012025
:1069B0002C7070BDD3F807013246214603F207134D
:1069C00003442846BDE8704018474FF0FF3070BDC3
:1069D000754600F0EBF8AE4605006946534620F0D8
:1069E0000700854618B020B5FEF732FCBDE8204010
:1069F0004FF000064FF000074FF000084FF0000B7B
:106A000021F00701AC46ACE8C009ACE8C009ACE82D
:106A1000C009ACE8C0098D467047000010B500F011
:106A200005F8001D10BD00BFED31000000487047A3
:106A3000583A00202DE9F0411F460446032601681C
:106A4000072A01F4006004DB08B116A505E016A5CD
:106A500003E008B115A500E015A521F010002060A5
:106A6000A069C01EA0610FB1401EA0612046FEF7C4
:106A7000A7FF4FB1D4E9012138469047206A401C56
:106A80002062C01C206206E0206AFAE7D4E90121F6
:106A900015F8010B9047761EF8D22046FEF7A6FFA8
:106AA000BDE8F0814E414E006E616E00494E4600D9
:106AB000696E66002DE9F047814616468AB0354872
:106AC00078440DC88DE80D0032487844801C03AC32
:106AD0000DC884E80D0041F69B300844372190FB37
:106AE000F1F290FBF1F5A5F1800501FB12041B3CCE
:106AF00002D56442012000E00020DFF898A0804623
:106B00000027FA44AAF1BE0A0EE0E0070AD0324696
:106B1000684607EB470101230AEB810100F022FBE5
:106B20008DE8070064107F1C002CEED1194F7F44C4
:106B3000AE3F19E0E80715D007EB04100DF1180A75
:106B400090E80E008AE80E00C068F04201D1981962
:106B500008903246012306A903A800F003FB03AB0B
:106B600083E807006D10641C002DE3D14FF0010392
:106B700032466946B8F1000F03A802D000F0DDFAF2
:106B800001E000F0EFFAC9E90001C9F808200AB0F5
:106B9000BDE8F0876C32000010B50446AFF300800A
:106BA0002046BDE81040FEF73EBB0000004870479D
:106BB000383A00204FF0013C50F8042B51F8043BC8
:106BC0009A4221D1A2EB0C03934313EACC1317D1C1
:106BD00050F8042B51F8043B9A4215D1A2EB0C0358
:106BE000934313EACC130BD150F8042B51F8043B18
:106BF0009A4209D1A2EB0C03934313EACC13DBD0E6
:106C00004FF00000704700BFD01A01BAB1FA81F10D
:106C100001F0180122FA01F0CB40C1F12001DBB2F2
:106C2000C0B2C01A2CFA01F3D11A914311EAC31170
:106C3000E6D1704701491820ABBEFEE726000200EE
:106C400070475FEA400C08BF91F0000F4FEA8C23B9
:106C50004FEAC12243EA51514FEA1C5018BF00F5D8
:106C6000F0404FEA300018BF41F000415FEA6C5C31
:106C700000F02980BCF1FF3F08BF40F08040704722
:106C8000130C06BF12044FF0100C4FF0000C130E43
:106C900004BF12020CF1080C130F04BF12010CF117
:106CA000040C930F04BF92000CF1020CD30F04BF2D
:106CB00052000CF1010C11464FF00002A0F11F0030
:106CC000A0EB0C00704711F0004F08BF704731F087
:106CD00000413FF4D5AF0B0C06BF09044FF0100C78
:106CE0004FF0000C0B0E04BF09020CF1080C0B0F47
:106CF00004BF09010CF1040C8B0F04BF89000CF1D7
:106D0000020CCB0F04BF49000CF1010CCCF12003A5
:106D1000A0EB0C0022FA03F302FA0CF241EA0301A1
:106D200000F10100704720F07F4C80EA030023F05F
:106D30007F47ACEB070303F57C5300F0004003F101
:106D4000FF032DE980494FEA154B09B44FEA14437C
:106D500025EA0B4E24EA03480FF2042606EB13271C
:106D600049083E785FEA320203FB0667C7F5000771
:106D700007FB06F64FEA54374FEAD64606F10206FD
:106D800007FB066CCCF1005C4FEA1C472CEA074C71
:106D900007FB06F40CFB06F504EB15464FEA9616C6
:106DA00034BF00204FF000404FEAD13706FB07FC0C
:106DB0004FEA1C4C0CFB0BF7D21B03FB0CF761EBEF
:106DC00007010CFB0EF7B0EB074072EB17420CFB10
:106DD00008F734BFA2EB0742B2EB074261EB174161
:106DE0004FEA0C444FEA910706FB07FC4FEA1C4CA4
:106DF0000CFB0BF7B0EBC74072EB573203FB0CF701
:106E000034BFA2EBC742B2EBC74261EB57310CFB78
:106E10000EF7B0EBC70072EB57720CFB08F734BFEC
:106E2000A2EBC702B2EBC70261EB5771039F4FEAB7
:106E3000816141EA921104EBCC044FEAD1374FEA69
:106E4000826206FB07FC42EA90124FEA80604FEA3A
:106E50001C4C0CFB0BF7D21B03FB0CF761EB07017F
:106E60000CFB0EF7B0EB074072EB17420CFB08F778
:106E700034BFA2EB0742B2EB074261EB17414FEA86
:106E80008C554FEA910704EB9C2406FB07FC4FEA64
:106E90001C4C0CFB0BF7B0EBC74072EB573203FBFB
:106EA0000CF734BFA2EBC742B2EBC74261EB5731DC
:106EB0000CFB0EF7B0EBC70072EB57720CFB08F738
:106EC00034BFA2EBC702B2EBC70261EB577115EBFF
:106ED0004C254FEA816141EA92114FEA82624FEA02
:106EE000D13742EA901206FB07FC44F100044FEA56
:106EF00080604FEA1C4C0CFB0BF7D21B03FB0CF71A
:106F000061EB07010CFB0EF7B0EB074072EB174289
:106F10000CFB08F734BFA2EB0742B2EB074261EB70
:106F2000174115EB1C154FEA813141EA92414FEAB6
:106F3000823242EA90424FEA80304FEA0C7644F1C6
:106F4000000448EA03434EEA0B484FF0000EB2EB50
:106F5000080C71EB030724BF624639464EEB0E0E58
:106F60004FF0000B0018524149414BEB0B0BB2EBB9
:106F7000080C71EB03077BF1000B24BF6246394616
:106F80004EEB0E0E4FF0000B0018524149414BEBF7
:106F90000B0BB2EB080C71EB03077BF1000B24BF6A
:106FA000624639464EEB0E0E51EA020718BF46F014
:106FB000010616EB0E7655F1000254F1000103D5DF
:106FC000BDE88901BDE80088BDE88901BDE8004849
:106FD000B619524141EB0101A3F1010370478080D2
:106FE0007F7E7D7C7B7A7978777676757473727123
:106FF00071706F6E6E6D6C6C6B6A6A6968686766DB
:1070000066656464636362616160605F5F5E5E5D6C
:107010005D5C5C5B5B5A5A595958585757565655E0
:1070200055555454535352525251515050504F4F42
:107030004F4E4E4D4D4D4C4C4C4B4B4B4A4A4A4992
:1070400049494848484747474746464645454544D5
:107050004444444343434342424242414141002B62
:107060009C4630D477002BD01CB54FEA370703B4C9
:107070004FF010004FF01001BAF1000F06D0BCF134
:10708000000FDCBF40F0080040F008014FF00000A6
:107090000FBCBDE810400BF1010BBBF1010F08BFA5
:1070A0005FEA170722BF12F1010211F101014FF04F
:1070B000004143F1000300F0004043EA0000704744
:1070C000F9D35708D0E746EA064613F1400F4FEAD6
:1070D00016461FDD13F1200FDFBF16430A460021BD
:1070E00020335B42BED0C3F1200746EA064602FACF
:1070F00007F74FEA164646EA0706C3F1200722FAC9
:1071000003F201FA07F721FA03F14FF0000342EA14
:107110000702A7E746EA020646EA06464FEA16468F
:1071200046EA0106BCBF46EA0646360C4FF00003AD
:107130004FF000024FF0000194E72DE9804C9A4691
:10714000934670B491E8380007C831EA400C48BF54
:1071500034EA430C03D5FFF7E6FDFFF780FFF0BCF0
:10716000BDE8008C2DE9804C9A46934670B491E8B6
:10717000380007C810F0804F08BF13F0804F03D1CC
:1071800000F005F8FFF76BFFF0BCBDE8008C20F0C5
:107190007F4780EA030023F07F4C07EB0C03A3F545
:1071A0007C5300F00040A3F1FE0392F0000F00F0CA
:1071B000B38095F0000F00F077802DE901494FEA88
:1071C00011404FEA144621EA004800FB06FC24EA7D
:1071D000064708FB06F607FB08F800FB07F718EB65
:1071E00006484CEB164C4FEA124B18EB07484FEA97
:1071F00015464CEB174022EA0B4E0BFB06FC25EA2A
:1072000006470EFB06F607FB0EFE0BFB07F71EEB11
:10721000064E4CEB164C4FF000061EEB074E4CEBA7
:10722000174B18EB0B0840F1000018EB0E0B58EB56
:10723000000840F100008F1A4FF000013CBFC94325
:10724000661B14BFB5EB040C00213CBFC943F61B01
:107250004FEA17444EEA8E0E27EA04454FEA1C47D0
:1072600004FB07622CEA074C05FB07F70CFB05F64D
:1072700004FB0CFC16EB074642EB174216EB0C46E0
:1072800042EB1C421BEB060658EB0202414146EA68
:107290009E0601D5BDE80189B619524141EB0101B5
:1072A000A3F10103BDE801894FEA14454FEA1147F4
:1072B00024EA054621EA074C05FB07F406FB07F71D
:1072C0000CFB06F105FB0CFC11EB074144EB1744EA
:1072D0004FEA124711EB0C4144EB1C4422EA074CE5
:1072E00005FB07F206FB07F70CFB06F605FB0CFC9B
:1072F00016EB074642EB174216EB0C4642EB1C45D9
:107300006A1854F1000148BF7047B619524141EB69
:107310000101A3F10103704795F0000F37D04FEA48
:1073200011424FEA144721EA024624EA074C02FBC5
:1073300007F106FB07F70CFB06F402FB0CFC14EB51
:10734000074441EB17414FEA154714EB0C4441EB5E
:107350001C4125EA074C02FB07F506FB07F70CFB6F
:1073600006F602FB0CFC16EB074645EB174516EB41
:107370000C4645EB1C42121951F1000148BF704701
:10738000B619524141EB0101A3F1010370474FEAE5
:1073900014454FEA114724EA054621EA074C05FB4C
:1073A00007F106FB07F70CFB06F24FF0000605FBA2
:1073B0000CFC12EB074241EB174112EB0C4251EB74
:1073C0001C4148BF7047921841EB0101A3F1010332
:1073D000704770B505460C4600F0DAFCA02000F0BE
:1073E000A9FC642000F008FD08B1012070BD28460A
:1073F00000F0A0FC642000F0FFFC08B10220F5E7DB
:1074000000F0C6FCA12000F095FC642000F0F4FC24
:1074100008B10320EAE7002000F056FC207000F0DD
:10742000D1FC0020E2E770B505460E46144608E0A0
:1074300028466A1CD5B23146FFF7CBFF761C601E8A
:1074400084B2002CF4D1002070BD000010B5502192
:107450000448FEF78BFA502202490020FFF7E3FFB1
:1074600010BD00001800002010B500240BE0074AF2
:1074700002EBC401E206100E00F00AF8052002F04B
:1074800091F9601CC4B20A2CF1D310BD1800002081
:1074900070B506460D4600F07BFCA02000F04AFCCB
:1074A000642000F0A9FC08B1012070BD304600F056
:1074B00041FC642000F0A0FC08B10220F5E70024A4
:1074C0000BE0285D00F036FC642000F095FC10B164
:1074D000E01CC0B2E9E7601CC4B2082CF1DB00F08C
:1074E00071FC0020E1E700BFFEE7000010B520209E
:1074F00000F0E4F801280CD1202000F01BF8002156
:10750000044800F025F804A002F0CAFA0020084957
:10751000888010BD1C000240B4AEBFDA33CAFDBE85
:10752000DDB7A2CBCDCDEAB3C9A3A10D0A000000FF
:107530003835002000F0805111B10349086001E0A6
:107540000249486070470000040402400000024005
:1075500021B1026842F00102026004E002684FF6C5
:10756000FE731A400260704701684FF6FE721140C8
:1075700001600021016041608160C1604B49884227
:1075800008D14A490839496841F00F01474A083A89
:1075900051608AE045491431884208D1434908398D
:1075A000496841F0F001414A083A51607DE03F49A5
:1075B0002831884208D13D490839496841F4706151
:1075C0003A4A083A516070E038493C31884208D163
:1075D00036490839496841F47041344A083A5160E3
:1075E00063E032495031884208D13049083949684E
:1075F00041F470212D4A083A516056E02B4964311C
:10760000884208D129490839496841F47001274A5C
:10761000083A516049E025497831884208D1234928
:107620000839496841F07061204A083A51603CE0ED
:107630001F49884206D1011F096841F00F01021F4E
:10764000116032E01A491431884208D11849091FE3
:10765000096841F0F001164A121F116025E0144933
:107660002831884208D11249091F096841F4706124
:107670000F4A121F116018E00D493C31884208D1B1
:107680000B49091F096841F47041094A121F116032
:107690000BE007495031884207D10549091F0968A5
:1076A00041F47021024A121F116070470800024025
:1076B000080402400146486880B270470146002035
:1076C000002201F0805313B1054B1A6801E0054B0D
:1076D0001A6802EA01030BB1012000E000207047A4
:1076E00000040240000002401AB103680B4303602B
:1076F00002E003688B430360704710B50022026804
:1077000047F6F0739A430C6A8B6823430C69234352
:107710004C6923438C692343CC6923434C6A23433C
:107720008C6A23431A430260CB6843600B68836012
:107730004B68C36010BD000000B58DB00121084644
:1077400000F0D8FF2F48FFF70FFF2F4802902F4877
:1077500003900020049040F2012005900020069044
:10776000802007900020089009900A904FF4005064
:107770000B9000200C9002A92248FFF7BEFF0121C8
:107780002048FFF7E5FE1F481438FFF7EDFE1E48BE
:1077900002901F480390102004900020059006904E
:1077A000802007900020089009900A904FF4005024
:1077B0000B9000200C9002A912481438FFF79DFF8F
:1077C000002110481438FFF7C3FE012202210D48A2
:1077D0001438FFF789FF012280210B48001F01F0B8
:1077E00001FE0C208DF8040001208DF80700002018
:1077F0008DF805008DF8060001A800F05BFE0DB0C5
:1078000000BD00003000024004480040380D002058
:10781000382100207047000010B5012000F03EF82C
:1078200001280FD10121084800F0F1F9012803D106
:1078300006A002F035F902E008A002F031F90120BB
:1078400000F014F810BD0000000C0140B7FECEF1AE
:10785000C6F7D2D1C1ACBDD30D0A0000B7FECEF140
:10786000C6F7D2D1B6CFBFAA0D0A00000149086001
:107870007047000014040140002006490860091DFB
:107880000860091D0860091D08600348014914319A
:107890000860704700040140FFFF0F000146002010
:1078A0000022074B1B6803EA0102054B14331B68D7
:1078B0000B4013B10AB1012000E000207047000026
:1078C00000040140002123498279002A3AD00A4667
:1078D000126803689A430B461A600A1D126803680F
:1078E0009A430B1D1A60027911440A6803681A430F
:1078F0000A60184A0832126803689A43154B083325
:107900001A601A1D126803689A43124B0C331A60EE
:107910004279102A0ED11A1F126803681A430D4BC0
:1079200008331A601A1D126803681A43094B0C3396
:107930001A600DE00749427911440A6803681A4346
:107940000A6005E0027911440A6803689A430A60F4
:10795000704700000004014010B518A002F0CEF8F6
:107960001E2001F01FFF15A002F0C8F81E2001F034
:1079700019FF16A002F0C2F81E2001F013FF17A095
:1079800002F0BCF81E2001F00DFF1AA002F0B6F8BC
:107990001E2001F007FF1EA002F0B0F81E2001F02B
:1079A00001FF1D4802F0AAF84FF4FA7001F0FAFE48
:1079B00000F04EFA1E2001F0F5FE10BD41542B439D
:1079C00049504D4F44453D310D0A000041542B4371
:1079D00049505258463D310D0A00000041545E485E
:1079E00045415254434F4E4649473D312C302C3689
:1079F000300D0A0041545E484541525442454154BD
:107A00004845583D342C433030300D0A000000000A
:107A1000415426570D0A0000489D000808B5012171
:107A2000082000F097FE28208DF803000120ADF813
:107A3000000003208DF802006946114800F05CF850
:107A400010208DF803000220ADF8000003208DF80F
:107A5000020069460A4800F04FF80AA002F020F838
:107A60000221074800F0DEF84FF4FA7001F09AFEA8
:107A70000221034800F0D4F80AA002F011F808BD72
:107A8000000C0140BFAACABCB8B4CEBB3447C4A3E3
:107A9000BFE9A3ACC7EBCEF0B2D9D7F7A3A10D0ACB
:107AA00000000000B8B4CEBBCAB1BCE4BDE1CAF866
:107AB000A3A10D0A0000000030B500228B071C0FA7
:107AC0000F2303FA04F20B4B8C1053F8243093432A
:107AD000084C8D1044F8253023468C1053F8243080
:107AE0008C07240F00FA04F42343024C8D1044F851
:107AF000253030BD080001402DE9F0410246002547
:107B00000026002000230024002791F803C00CF079
:107B10000F0591F803C00CF0100CBCF1000F03D05E
:107B200091F802C04CEA050591F800C0BCF1000FC5
:107B300031D0146800202BE04FF0010C0CFA00F358
:107B4000B1F800C00CEA03069E4220D183004FF03A
:107B50000F0C0CFA03F7BC4305FA03FC4CEA0404CF
:107B600091F803C0BCF1280F06D14FF0010C0CFABC
:107B700000FCC2F814C00AE091F803C0BCF1480F41
:107B800005D14FF0010C0CFA00FCC2F810C0401CEB
:107B90000828D1D31460B1F800C0BCF1FF0F34DD68
:107BA000546800202EE000F1080C4FF0010808FA9C
:107BB0000CF3B1F800C00CEA03069E4221D1830009
:107BC0004FF00F0C0CFA03F7BC4305FA03FC4CEA28
:107BD000040491F803C0BCF1280F05D100F1080C92
:107BE00008FA0CF8C2F8148091F803C0BCF1480FF1
:107BF00007D100F1080C4FF0010808FA0CF8C2F8A0
:107C00001080401C0828CED35460BDE8F0810246A5
:107C1000002093680B400BB1012000E0002070476A
:107C2000416170470161704700BFFEE710B58021D8
:107C30000A48FFF7F5FF40210848FFF7F3FF02204D
:107C400001F0BDFD40210548FFF7EAFF8021034810
:107C5000FFF7E8FF022001F0B2FD10BD000C01406B
:107C600008B50121082000F075FDC020ADF8000026
:107C700014208DF8030003208DF8020069460648A1
:107C8000FFF73AFF40210448FFF7CCFF802102486C
:107C9000FFF7C8FF08BD0000000C014010B58021AF
:107CA0000848FFF7BFFF40210648FFF7BBFF02204F
:107CB00001F085FD40210348FFF7B2FF022001F0EB
:107CC0007EFD10BD000C014070B505460026402128
:107CD0001748FFF7A5FF022001F071FD802114482D
:107CE000FFF7A0FF072418E040211148FFF798FF95
:107CF000022001F064FD40210D48FFF793FF802131
:107D00000B48FFF784FF18B10120A0403043C6B2F2
:107D1000022001F054FD601E44B2002CE4DA15B1DB
:107D2000FFF784FF01E0FFF7B9FF304670BD0000A8
:107D3000000C014070B5054607241CE040211348A3
:107D4000FFF76EFF0120A040284020B180210F489E
:107D5000FFF768FF03E080210C48FFF761FF022076
:107D600001F02DFD40210948FFF75CFF022001F0E2
:107D700026FD601E44B2002CE0DA40210348FFF7E4
:107D80004FFF80210148FFF74DFF70BD000C0140FF
:107D900010B540210A48FFF745FF80210848FFF74A
:107DA00041FF042001F00BFD80210548FFF738FF5B
:107DB000042001F004FD40210148FFF731FF10BD10
:107DC000000C014010B540210A48FFF729FF80212F
:107DD0000848FFF725FF042001F0F1FC4021054889
:107DE000FFF720FF80210348FFF71CFF042001F06C
:107DF000E6FC10BD000C014010B5044600BF641E37
:107E0000022001F0DCFC80211048FFF700FF08B1E0
:107E1000002CF4DA002C01DA012010BD40210B48BF
:107E2000FFF700FF022001F0CAFC80210748FFF79E
:107E3000EEFE08B10220F0E740210448FFF7F0FE13
:107E4000022001F0BCFC0020E7E70000000C01402C
:107E500010B501206C49A1F80002A1F802020A2025
:107E6000A1F80402A220A1F806020846B0F8040214
:107E7000B1F8061208446449A1F8080210200870FD
:107E800000BF6149B1F80802C11700EB5161C91187
:107E900041B95D4890F808025B49B1F802125A4AAC
:107EA000505410E05849B1F80802C11700EB516175
:107EB000C911A0EBC111C9B241F08001524AB2F818
:107EC0000222514B99545048B0F80202401C4E49CE
:107ED000A1F80202B1F80802C11700EB5161C91103
:107EE000494AA2F808121046B0F808020028C8D182
:107EF00000211046B0F80202115404211046B0F8D7
:107F00000202401C11544D211046B0F80202801CA0
:107F1000115451211046B0F80202C01C11545421D2
:107F20001046B0F80202001D11541046B0F80202CB
:107F3000401D115404211046B0F80202801D115456
:107F4000C2211046B0F80202C01D11540021104693
:107F5000B0F802020830115464211046B0F8020251
:107F60000930115400211046B0F802020A301154B1
:107F70004C211046B0F802020B3011541146B1F8F2
:107F800002120C3188184C222049FDF756FC0021C2
:107F90001D48B0F8020258301B4A115410211046F7
:107FA000B0F80202593011541146B1F802125A3198
:107FB0008818102216A1FDF740FC00211248B0F8E5
:107FC00002026A30104A115440211046B0F80202F1
:107FD0006B3011541146B1F802126C3188184022EE
:107FE0001049FDF72AFC0848B0F80202064AB2F828
:107FF00004221044044AB2F80622104481B2024816
:1080000001F0AAFD10BD0000F8350020149F000803
:1080100044303031266131527758647A7936425A89
:1080200000000000D09E000870B505460E460124F1
:1080300006E0285D00F0800000B903E0601CC4B2D7
:10804000052CF6DB00BF4FF400710648FDF76CFC11
:10805000701E001B821EE01C41190248FDF7EDFB5B
:1080600070BD0000023800202DE9F04104460D46A5
:1080700001204C49A1F802022046FDF7BFFB801CFD
:108080004849A1F804022846FDF7B8FB4549A1F884
:1080900006020846B0F80402B1F806120844414945
:1080A000A1F808023020087000BF3E49B1F808026C
:1080B000C11700EB5161C91141B93A4890F8080263
:1080C0003849B1F80212374A505410E03549B1F836
:1080D0000802C11700EB5161C911A0EBC111C9B26F
:1080E00041F080012F4AB2F802222E4B99542D48BC
:1080F000B0F80202401C2B49A1F80202B1F80802B4
:10810000C11700EB5161C911264AA2F808121046A6
:10811000B0F808020028C8D12046FDF76FFBC0F375
:1081200007212048B0F802021E4A11542046FDF7EC
:1081300065FBC1B21B48B0F80202401C194A115439
:108140002046FDF75BFB06461649B1F80212891C72
:10815000144A881832462146FDF76FFB2846FDF782
:108160004DFB07462046FDF749FB0E49B1F80212C8
:10817000891C08440B4946183A4629463046FDF703
:108180005CFB0848B0F80202064AB2F80422104428
:10819000044AB2F80622104481B2024801F0DCFC25
:1081A000BDE8F081F83500202DE9F04105460E4686
:1081B00001206249A1F802022846FDF71FFB001DBD
:1081C0005E49A1F804023046FDF718FB5B49A1F8AF
:1081D00006020846B0F80402B1F8061208445749EE
:1081E000A1F808023220087000BF5449B1F8080213
:1081F000C11700EB5161C91141B9504890F808020C
:108200004E49B1F802124D4A505410E04B49B1F8B2
:108210000802C11700EB5161C911A0EBC111C9B22D
:1082200041F08001454AB2F80222444B9954434838
:10823000B0F80202401C4149A1F80202B1F808025C
:10824000C11700EB5161C9113C4AA2F8081210464F
:10825000B0F808020028C8D12846FDF7CFFAC0F3CD
:1082600007213648B0F80202344A11542846FDF777
:10827000C5FAC1B23148B0F80202401C2F4A11546D
:108280002846FDF7BBFA04462C49B1F80212891CB6
:108290002A4A881822462946FDF7CFFA2846FDF7D4
:1082A000ADFA2649B1F80212891C084423490A464E
:1082B000B2F80042E21704EB1262C2F307220A543A
:1082C0002846FDF79BFA1D49B1F80212C91C084463
:1082D0001A490A46B2F80042E21704EB126212127F
:1082E000A4EB02220A540846B0F80002401CA1F890
:1082F00000023046FDF782FA07462846FDF77EFA6F
:108300000E49B1F80212091D08440C4944183A46B6
:1083100031462046FDF791FA0848B0F80202074AB4
:10832000B2F804221044054AB2F80622104481B281
:10833000024801F011FCBDE8F0810000F835002092
:1083400070B5044601205849A1F802020220A1F8A4
:1083500004022046FDF752FAC01C5349A1F8060258
:108360000846B0F80402B1F8061208444E49A1F8D4
:1083700008028220087000BF4B49B1F80802C117FB
:1083800000EB5161C91139B9474890F80812B0F8AB
:108390000202454A115410E04349B1F80802C117DE
:1083A00000EB5161C911A0EBC111C9B241F08001CC
:1083B0003D4AB2F802223C4B99543B48B0F80202C5
:1083C000401C3949A1F80202B1F80802C11700EBBC
:1083D0005161C911344AA2F808121046B0F80802D7
:1083E0000028C9D11146B1F80002C11700EB116194
:1083F000C1F307222C49B1F802122B4B5A541946EB
:10840000B1F80002C11700EB11610912A0EB0121C4
:10841000CAB21946B1F80212491C5A541846B0F8AB
:108420000002401C1946A1F800022046FDF7E6F9BB
:10843000C0F307211C48B0F80202801C1A4A1154EC
:108440002046FDF7DBF9C1B21748B0F80202C01CA4
:10845000154A11542046FDF7D1F905461249B1F8E5
:108460000212091D104A88182A462146FDF7E5F92F
:108470002046FDF7C3F90C49B1F80212091D084462
:10848000094900220A540846B0F802020A46B2F826
:10849000042210440A46B2F80622104481B202486F
:1084A00001F05AFB70BD0000F835002000BFFEE768
:1084B0007047000070B5002100230F22C47804B378
:1084C000154C246804F4E064C4F5E064210AC1F1A9
:1084D0000403CA40447804FA03F184781440214329
:1084E00009010E4C0678A155047804F01F050124FB
:1084F000AC4005786D11AD0005F1E025C5F80041EF
:1085000009E0047804F01F050124AC40044D06780E
:10851000761145F8264070BD0CED00E000E400E067
:1085200080E100E002490143024A11607047000007
:108530000000FA050CED00E00648006800F4E06079
:1085400005490843001D03490860BFF34F8F00BF72
:10855000FEE700000CED00E00000FA0530B5C1B008
:1085600004460D464FF4807101A8FDF7FFF90D4850
:10857000009523460C49D0F8102401A8FCF78CFE86
:108580000848D0F81424D0F8181408A001F088FA8C
:1085900001A90AA0FFF768FD4FF4967001F002F9F7
:1085A00041B030BDF83500206C9E0008B5B1C7B0B1
:1085B000B5DA25642F2564B4CE0D0A002F737973C4
:1085C0002F6131527758647A7936425A2F443030CD
:1085D000312F7468696E672F66696C652F646F77D9
:1085E0006E6C6F616400000070B5C0B004460D464B
:1085F0006420604390FBF5F64FF480716846FDF708
:10860000B5F9324606A16846FCF746FE694611A058
:10861000FFF72AFD4FF4967001F0C4F840B070BD2A
:108620007B226964223A22313233222C2270617219
:10863000616D73223A7B2273746570223A2225643D
:10864000222C2264657363223A22B8FCD0C2D6D0B1
:10865000227D7D002F6F74612F6465766963652FBD
:1086600070726F67726573732F6131527758647AD5
:108670007936425A2F4430303100000000B5A1B0A5
:10868000802101A8FDF772F9054A06A101A8FCF7AF
:1086900003FE01A90DA0FFF787FD21B000BD00007A
:1086A000480000207B226964223A202231222C22B9
:1086B000706172616D73223A207B227665727369F4
:1086C0006F6E223A20222573227D7D002F6F746108
:1086D0002F6465766963652F696E666F726D2F61B1
:1086E00031527758647A7936425A2F44303031000B
:1086F0007047000029B1064A52690243044B5A618F
:1087000004E0034A52698243014B5A6170470000FA
:108710000010024029B1064AD2690243044BDA61D3
:1087200004E0034AD2698243014BDA6170470000DA
:108730000010024029B1064A12690243044B1A6133
:1087400004E0034A12698243014B1A61704700003A
:108750000010024029B1064A92690243044B9A6113
:1087600004E0034A92698243014B9A61704700001A
:108770000010024029B1064AD2680243044BDA6075
:1087800004E0034AD2688243014BDA60704700007C
:108790000010024030B500210022002400232D4D9E
:1087A0006D6805F00C0121B1042905D0082923D1F9
:1087B00005E0294D056022E0274D05601FE0254DAD
:1087C0006D6805F47012234D6D6805F48034022540
:1087D00005EB92421CB9214D554305600BE01D4D40
:1087E0006D6805F400351DB11C4D5543056002E070
:1087F000194D5543056002E0174D056000BF00BFED
:10880000144D6D6805F0F0010909154D6B5C0568A4
:10881000DD4045600F4D6D6805F4E061090A104DBB
:108820006B5C4568DD4085600A4D6D6805F46051FC
:10883000C90A0B4D6B5C4568DD40C560054D6D6830
:1088400005F44041890B074D6B5CC568B5FBF3F53A
:10885000056130BD0010024000127A0000093D00A1
:10886000040000201400002000B587B0012141F26F
:108870000400FFF76FFF18208DF81B00A020ADF853
:10888000180003208DF81A0006A91C48FFF734F9D8
:1088900004208DF81B004020ADF8180003208DF84F
:1088A0001A0006A91548FFF727F9154800F060F8E7
:1088B0000020ADF804004FF48270ADF806000020EF
:1088C000ADF808000220ADF80A000120ADF80C0058
:1088D0004002ADF80E000020ADF81000ADF8120017
:1088E0000720ADF8140001A9054800F07BF801212C
:1088F000034800F030F807B000BD00000008014058
:108900000030014010B5044600BF02210A4800F0C3
:108910005BF80128F9D12146074800F061F800BF53
:108920000121054800F050F80128F9D1024800F073
:1089300054F8C0B210BD00000030014070B50546CB
:108940000E46002404E0285DFFF7DCFF601C84B2C3
:10895000B442F8DB70BD21B1028842F040020280CF
:1089600004E002884FF6BF731A400280704700008F
:1089700010B504461148844208D101218014FFF744
:10898000F9FE0021A014FFF7F5FE16E00C48844222
:1089900008D101210014FFF7CDFE00212014FFF7BC
:1089A000C9FE0AE00748844207D10121C013FFF73E
:1089B000C1FE0021E013FFF7BDFE10BD00300140F5
:1089C00000380040003C00400246002013890B4064
:1089D0000BB1012000E000207047014688897047F4
:1089E0008181704710B50022028802F441520B8841
:1089F0004C8823438C882343CC8823430C8923430E
:108A00004C8923438C892343CC8923431A43028016
:108A1000838B4FF2FF74234083830B8A038210BD44
:108A2000704710B500F002F810BD00000CB5002032
:108A3000019000903348006840F48030314908606C
:108A400000BF3048006800F4003000900198401CDE
:108A50000190009818B90198B0F5A06FF1D129489C
:108A6000006800F4003010B10120009001E0002007
:108A700000900098012843D12348006840F010007E
:108A8000214908600846006820F003000860084695
:108A9000006840F0020008601A48406819494860C0
:108AA0000846406848600846406840F48060486076
:108AB0000846406820F47C1048600846406840F44E
:108AC000E81048600846006840F08070086000BF09
:108AD0000C48006800F000700028F9D00948406890
:108AE00020F00300074948600846406840F0020053
:108AF000486000BF0348406800F00C000828F9D126
:108B00000CBD00000010024000200240042808D1E3
:108B10004FF0E021096941F004014FF0E0221161BA
:108B200007E04FF0E021096921F004014FF0E02255
:108B3000116170477047000010B51248006840F09E
:108B4000010010490860084640680F4908400D4977
:108B50004860084600680D4908400A490860084610
:108B6000006820F4802008600846406820F4FE0079
:108B700048604FF41F008860FFF753FF0448054921
:108B8000086010BD001002400000FFF8FFFFF6FE75
:108B90000050000808ED00E000200849488001F17D
:108BA0000800C1F8A800C1F8AC004830C1F8B00016
:108BB0000348D1F8A810086070470000383500203D
:108BC000380D002000200949088001F15800C1F843
:108BD000B400C1F8B8004830C1F8BC000448D1F86E
:108BE000B4100860002001498880704738350020A3
:108BF000382100203EB504460D46072D35D1072209
:108C0000C2A12046FCF7CEFD00282ED1C1A000F065
:108C100047FFC548006840F00100C34908600121D2
:108C20000846FFF797FDFEF727FE00210120FEF71B
:108C300043FF012001908DF80A0000208DF8080004
:108C400010208DF8090001A8FEF73CFE06208DF8E3
:108C5000000001208DF803008DF8010000208DF840
:108C600002006846FFF726FC00BF042D1FD12078C4
:108C700020281CD1ADA000F013FFE078002811D10E
:108C8000AFA000F00DFFA848006840F00200A64920
:108C90000860B2A0FFF754FBBDA0FFF751FBFFF740
:108CA000EDFC04E0C6A000F0FBFEFFF745FC052D3F
:108CB00015D12078902812D1C8A000F0F1FE681ECE
:108CC000205C18B1681E205C012803D1C8A000F008
:108CD000E7FE04E0CCA000F0E3FEFFF72DFC924895
:108CE000007800F0020000287DD0207830287AD16A
:108CF000CEA000F0D5FE29462046FFF795F9D249CF
:108D0000D2A000F0CDFED3A1CF48FCF739FD30B1A1
:108D1000D5A000F0C5FED7A1DDA0FFF7A5F9E8A119
:108D2000C948FCF72DFD30B1EAA000F0B9FEECA176
:108D3000D7A0FFF799F9F1A1C348FCF721FD00285E
:108D40005AD0F848A0F110031A1FF7490090BE4806
:108D5000FCF7E2FB03284CD1F448D0F80C14F4A043
:108D600000F09EFEF148D0F81014F6A000F098FE36
:108D7000EC49F8A000F094FE6B48006840F0040055
:108D800069490860002000F059FCE849D1F80C045A
:108D9000C11700EB11610912A0EB012151B9E349A0
:108DA000D1F80C04C11700EB11610912DF4AC2F8B7
:108DB00014140AE0DD49D1F80C04C11700EB11616D
:108DC0000912491CD94AC2F814140120D749C1F824
:108DD00018040002C1F81C040A46D2F81824521ED6
:108DE0001102D24A00E03FE0D2F81C04FFF7B6FBC4
:108DF00002E0DDA000F054FE65A19348FCF7C0FC42
:108E0000002831D0C94AB2F81824521E91B2C74A7C
:108E1000D2F81C24AA1A921E101900F04FFCC34865
:108E2000D0F81804401CC149C1F818040A46D2F809
:108E30001414D2F81804FFF7D7FBBC48D0F8180474
:108E4000BA49D1F8141488420FDA4FF48070B74948
:108E5000C1F81C040A46D2F81824521E1102B34A63
:108E6000D2F81C04FFF77AFB4FE0B048D0F81804A2
:108E7000AE49D1F8141488422FD1AC49D1F80C0472
:108E8000C11700EB11610912A0EB012179B94FF470
:108E90008070A649C1F81C040A46D2F81824521E54
:108EA0001102A24AD2F81C04FFF758FB2DE09F499B
:108EB000D1F80C04C11700EB11610912A0EB0121DC
:108EC0009A4AC2F81C14D2F81824521E1102974A6A
:108ED000D2F81C04FFF742FB17E0A9A000F0E0FD68
:108EE0002021AB48FCF742FD1A228E49A848FCF726
:108EF000E9FC8E48D0F80C04A54930394860A548F3
:108F00000860FEF7B1FAFFF717FB3EBD0D0A5244A9
:108F1000590D0A003447C4A3BFE9B8B4CEBBB3C9E6
:108F2000B9A6A3A10D0A000000000020CAD5B5BD56
:108F3000434F4E4E41434BB1A8CEC40D0A00000032
:108F4000434F4E4E454354B1A8CEC4B3C9B9A6C190
:108F5000ACBDD3B7FECEF1C6F70D0A002F737973FF
:108F60002F6131527758647A7936425A2F44303023
:108F7000312F7468696E672F736572766963652F28
:108F800070726F70657274792F73657400000000E1
:108F90002F7379732F6131527758647A7936425A38
:108FA0002F443030312F7468696E672F66696C65A5
:108FB0002F646F776E6C6F61645F7265706C79009F
:108FC000434F4E4E454354B1A8CEC4B4EDCEF3A3A7
:108FD000ACD7BCB1B8D6D8C6F40D0A00CAD5B5BD59
:108FE00053554241434BB1A8CEC40D0A00000000C6
:108FF0005355424352494245B6A9D4C4B1A8CEC440
:10900000B3C9B9A60D0A000053554243524942451F
:10901000B6A9D4C4B1A8CEC4B4EDCEF3A3ACD7BC2A
:10902000B1B8D6D8C6F40D0A00000000CAD5B5BD47
:10903000B5C8BCB630B5C45055424C495348B1A828
:10904000CEC40D0A000000000238002025730D0A6E
:10905000000000007B224C696768745F5377697475
:10906000636831223A307D00B9D8B1D5BFAAB9D8EA
:109070000D0A00007B22706172616D73223A7B22BF
:1090800053776974636831223A307D7D00000000B7
:109090002F7379732F6131527758647A7936425A37
:1090A0002F443030312F7468696E672F6576656E96
:1090B000742F70726F70657274792F706F73740093
:1090C0007B224C696768745F5377697463683122E7
:1090D0003A317D00B4F2BFAABFAAB9D80D0A000088
:1090E0007B22706172616D73223A7B2253776974BF
:1090F000636831223A317D7D000000002F6F74617A
:109100002F6465766963652F757067726164652F7A
:109110006131527758647A7936425A2F443030316F
:1091200000000000183A0020949D0008F835002047
:109130004F5441B9CCBCFEB4F3D0A1A3BA25640D01
:109140000A0000004F5441B9CCBCFE4944A3BA25E3
:10915000640D0A004F5441B9CCBCFEB0E6B1BEBAB2
:10916000C5A3BA25730D0A00CCE1C8A14F5441CF65
:10917000C2D4D8C3FCC1EEB4EDCEF30D0A0000009A
:109180004F5441CFC2D4D8CDEAB1CF0D0A00000070
:10919000480000202211BBAA10B586B00446012168
:1091A00044F20400FFF7D6FA18208DF817004FF4A8
:1091B0000070ADF8140003208DF8160005A90F48C3
:1091C000FEF79AFC0E4800F017F901940020ADF864
:1091D00010000820ADF80E000020ADF80C00ADF82E
:1091E0000A00ADF8080001A9054800F0AFF9012117
:1091F000034800F0EBF806B010BD00000008014085
:109200000038014000B58BB040F22441394800F0ED
:109210004EF900286CD01021364800F03BF9354853
:1092200000F000FA3448FEF745FA40F20121081A2E
:109230003249498808443149488008464088401EE0
:109240002F4908442D49D1F8A81048602B48D0F880
:10925000A80008302949C1F8A8000846D0F8A8009D
:10926000D1F8B010884204D1244808302349C1F80D
:10927000A80022484088C0F5A050B0F5007F08DB68
:109280001E4840881E4908441C49D1F8A8100860AF
:1092900007E01B481949D1F8A810086000201749B9
:1092A000488000211448FEF753F91248001D009031
:1092B0001248D0F8A800006801900020029040F207
:1092C000012003900020049080200590002006904B
:1092D000079008904FF40050099000200A906946CA
:1092E0000548FEF70AFA01210348FEF731F900BFED
:1092F0000BB000BD0048004030000240383500206F
:10930000380D002010B586B0044601210820FFF773
:1093100021FA01218804FFF7FDF918208DF81700C4
:109320004FF48060ADF8140003208DF8160005A9F5
:109330002448FEF7E1FB04208DF817004002ADF849
:10934000140003208DF8160005A91E48FEF7D4FB73
:109350001D4800F051F801940020ADF810000C20D9
:10936000ADF80E000020ADF80C00ADF80A00ADF825
:10937000080001A9144800F0E9F8012240F2244154
:10938000114800F0BEF8012240210F4800F02AF8F1
:1093900027208DF8000001208DF8030000208DF8B3
:1093A00001008DF802006846FFF784F8FFF7F4FB30
:1093B000FFF708FCFEF7C0F90121034800F006F8AA
:1093C00006B010BD000C01400048004021B1828968
:1093D00042F40052828104E082894DF6FF731A4004
:1093E000828170471AB1838A0B43838202E0838AA9
:1093F0008B4383827047000010B5044620488442A6
:1094000009D101218803FFF7B5F900214FF480400D
:10941000FFF7B0F932E01B48844209D1012148042A
:10942000FFF788F900214FF40030FFF783F925E0BA
:109430001548844209D101218804FFF77BF90021F6
:109440004FF48020FFF776F918E01048844209D1E4
:109450000121C804FFF76EF900214FF40020FFF747
:1094600069F90BE00A48844208D101210805FFF799
:1094700061F900214FF48010FFF75CF910BD000086
:10948000003801400044004000480040004C0040CB
:109490000050004002460020B1F5007F00D100BF1F
:1094A00013880B400BB1012000E00020704770B51D
:1094B0000246002400230025002040F66A16B1422F
:1094C00000D100BFC1F3421501F01F03012606FAC7
:1094D00003F3012D02D19689334006E0022D02D11B
:1094E000168A334001E0968A33400C12012606FAB0
:1094F00004F41688344013B10CB1012000E00020C0
:1095000070BDF0B50346002400260025002040F67B
:109510006A17B94200D100BF1846C1F3421401F0E6
:109520001F06012707FA06F5012C01D10C3004E0D3
:10953000022C01D1103000E014301AB107682F431B
:10954000076002E00768AF430760F0BD2DE9F04710
:1095500086B005460E460024A24600BFA14600275D
:10956000B08900B100BF2F462C8A4CF6FF70044032
:10957000F08804432C82AC894EF6F3100440B08886
:1095800031890843718908430443AC81AC8A4FF6A2
:10959000FF400440B0890443AC8201A8FFF7FAF809
:1095A0001F48874202D1DDF810A001E0DDF80CA0D1
:1095B000A88900F4004040B10AEBCA0000EB0A1091
:1095C00031684900B0FBF1F807E00AEBCA0000EB94
:1095D0000A1031688900B0FBF1F86420B8FBF0F0A4
:1095E00004012009642101FB1089A88900F40040CE
:1095F00040B1322000EBC900B0FBF1F000F00700F1
:10960000044308E0322000EB09106421B0FBF1F0C4
:1096100000F00F0004432C8106B0BDE8F087000085
:109620000038014001468888C0F308007047C1F344
:1096300008028280704700BFFEE7000038B504468C
:10964000D8208DF80000A0B28DF801002004000A97
:109650008DF802002004C0B28DF8030000F058F825
:1096600000F06EF810210748FEF7DAFA0421684688
:10967000FFF764F910210348FEF7D4FA00F048F828
:1096800038BD00000008014008B501210420FFF7A3
:1096900061F810208DF80300ADF8000003208DF86C
:1096A000020069460448FEF727FA10210248FEF737
:1096B000B9FAFFF7D9F808BD0008014038B50546EA
:1096C0000C4602208DF80000C4F30F208DF8010035
:1096D00024F07F408DF802002002C0B28DF8030014
:1096E00000F016F800F02CF810210848FEF798FA60
:1096F00004216846FFF722F94FF480712846FFF7EE
:109700001DF910210148FEF78DFA38BD000801400F
:1097100010B500BF10210948FEF782FA0520FFF7B7
:10972000F1F8FF20FFF7EEF8044610210348FEF79A
:1097300079FA04F001000028ECD110BD00080140C6
:1097400010B5FFF7E5FF10210548FEF769FA06207E
:10975000FFF7D8F810210248FEF764FA10BD0000A8
:1097600000080140490050EAC12018BF04204A0DFA
:1097700018BF40F0010040F2FF72B2EB515F08BF2A
:1097800040F00200012808BF0520704730380A2841
:1097900001D2012070470020704710B50420FFF768
:1097A000B5F910BD00B5034603E04FF47A7000F040
:1097B00006F8181EA3F101018BB2F6D100BD00EB33
:1097C000C001C9004FF0E0225161002191611146B2
:1097D000096941F00101116100BF4FF0E021096901
:1097E00001F480310029F8D04FF0E021096921F01F
:1097F00001014FF0E0221161704700008CB000259C
:109800004FF4A060FEF78EFE4FF46120FFF7C4FC1A
:109810004FF4E130FFF776FDFFF7BFFF6EA000F0D9
:109820003FF972A000F06AF9FEF71AFAFFF72CFF71
:10983000FDF70CFEFEF7F2F871A000F031F9C9E077
:109840000A20FFF7AFFF681C85B26F48D0F8AC0064
:109850006D49D1F8A810884223D06B4AD2F8AC20C9
:109860009288694BD3F8AC301B88D21A521C91B243
:10987000654AD2F8AC201068FFF7BCF96248D0F80E
:10988000AC0008306049C1F8AC000846D0F8AC0024
:10989000D1F8B010884204D15B4808305A49C1F869
:1098A000AC005948D0F8B8005749D1F8B4108842F4
:1098B0006AD055488088002866D15348D0F8B8004F
:1098C0004068514AD2F8B8201268801A411C4FA053
:1098D00000F0E6F8002409E04B48D0F8B800006832
:1098E000015D50A000F0DCF8601CC4B24648D0F81E
:1098F000B80040684449D1F8B8100968401A401CC3
:10990000A042E9DC49A000F0CBF801203E49888064
:10991000474801900846D0F8B8000068029010202F
:1099200003900846D0F8B8004068D1F8B81009682C
:10993000401A401C049000200590802006900020D2
:109940000790089009904FF400500A9000200B9067
:1099500001A93848FDF7D1FE01213648FDF7F8FD91
:109960002948D0F8B80008302749C1F8B80008469F
:10997000D0F8B800D1F8BC10884204D12248583041
:109980002149C1F8B80000BF2B48007800F0010061
:1099900050B1B5F5487F07DD2748006820F0010089
:1099A00025490860FDF7D8FFB5F5FA7F12DB22489C
:1099B000007800F0020068B11F48007800F0040051
:1099C00040B900251DA125A0FEF74EFB2F4930A070
:1099D00000F066F834E700000D0AB4AEBFDA31B328
:1099E000F5CABCBBAFB3C9B9A60D0A000D0AB4AE27
:1099F000BFDA33B3F5CABCBBAFB3C9B9A60D0A0011
:109A0000322E302E300D0A0038350020B1BEB4CED3
:109A1000B7A2CBCD2564D7D6BDDACAFDBEDD0D0A0F
:109A20000000000025303278200000000D0A000000
:109A3000044800401C000240000000207B227061AE
:109A400072616D73223A7B224C696768745F537749
:109A50006974636831223A307D7D00002F73797319
:109A60002F6131527758647A7936425A2F44303018
:109A7000312F7468696E672F6576656E742F70720A
:109A80006F70657274792F706F73740048000020D6
:109A900056657273696F6E203A2025730D0A0000B7
:109AA0000FB438B505A800901248009A0499FBF746
:109AB000E1FB0020009000240DE000BF80210E4853
:109AC000FFF7E8FC0128F9D10A48015D0A48FFF7D1
:109AD000AEFD601C84B20748FBF790FEA042ECD8B4
:109AE00000BF40210448FFF7D5FC0128F9D138BC5C
:109AF0005DF814FB78040020003801400FB438B53D
:109B000005A800901248009A0499FBF7B3FB0020C7
:109B1000009000240DE000BF80210E48FFF7BAFC42
:109B20000128F9D10A48015D0A48FFF780FD601C51
:109B300084B20748FBF762FEA042ECD800BF402188
:109B40000448FFF7A7FC0128F9D138BC5DF814FBE5
:109B5000382100200048004070B505460C462048DA
:109B60000088C0F5A050A04208DB1D4800881D49B0
:109B700008441B49D1F8B410086006E000201849D9
:109B800008801848D1F8B41008601549D1F8B4100D
:109B9000224608682946FBF750FE114800882044F9
:109BA0000F49088008460088401E0E4908440C49A9
:109BB000D1F8B41048600A48D0F8B4000830084919
:109BC000C1F8B4000846D0F8B400D1F8BC108842FF
:109BD00004D1034858300249C1F8B40070BD0000F8
:109BE000383500203821002010B500290AD0087827
:109BF000002807D005487844FCF7DCFF002801D096
:109C0000002010BD0248784410BD00008E03000003
:109C10008603000010B500290AD00878002807D074
:109C200005487844FCF7C6FF002801D0002010BD8D
:109C30000248784410BD00007E0300007603000057
:109C4000FCF721BAFCF756BB040000080000000036
:109C500000000002000100001000000000000000F1
:109C60000000000030313233343536373839414264
:109C7000434445464030580030313233343536376E
:109C80003839616263646566403078003031323360
:109C90003435363738396162636465667870003010
:109CA00031323334353637383941424344454658EA
:109CB0005000000002400000000000A00000000072
:109CC00005400000000000C8000000000C4000003B
:109CD0000000409C00000000194000000020BCBEB5
:109CE0000000000034400000BFC91B8E00000004CB
:109CF000B5400000504BCFD06607E2CF0100000016
:109D00006C4100003E8251AADFEEA7340100000042
:109D1000D9420000DCB5A0E23A301F97FFFFFFFFF9
:109D2000B4450000FD25A0C8E9A3C14FFFFFFFFF18
:109D3000FF3F00000000008000000000FF3F000027
:109D4000000000800000000041542B434950535450
:109D50004152543D22544350222C61315277586471
:109D60007A7936425A2E696F742D61732D6D717434
:109D7000742E636E2D7368616E676861692E616C05
:109D80006979756E63732E636F6D2C313838330DBE
:109D90000A0000002F6F74612F6465766963652F78
:109DA000757067726164652F6131527758647A7992
:109DB00036425A2F443030317B22636F6465223A39
:109DC0002231303030222C2264617461223A7B22AD
:109DD00073697A65223A25642C2273747265616D09
:109DE0004964223A25642C227369676E223A22253F
:109DF0002A333273222C226450726F746F636F6C3B
:109E0000223A226D717474222C2276657273696F06
:109E10006E223A2225323673222C227369676E4DE8
:109E20006574686F64223A224D6435222C22737463
:109E30007265616D46696C654964223A312C226D08
:109E40006435223A22252A333273227D2C2269641A
:109E5000223A252A642C226D657373616765223A64
:109E60002273756363657373227D00007B226964CE
:109E7000223A202231222C22706172616D73223AC3
:109E8000207B2266696C65496E666F223A7B22737D
:109E9000747265616D4964223A25642C2266696C8E
:109EA000654964223A317D2C2266696C65426C6F8B
:109EB000636B223A7B2273697A65223A25642C22ED
:109EC0006F6666736574223A25647D7D7D000000AF
:109ED0006237326633383938653064333862343249
:109EE0003466306464343935396637323434666305
:109EF00066373862383733376661343662336236F4
:109F00003764333366323865316632393365393315
:109F1000000000006131527758647A7936425A2E37
:109F2000443030317C7365637572656D6F64653D77
:109F3000322C7369676E6D6574686F643D686D611E
:109F4000637368613235362C74696D657374616D45
:109F5000703D313731393139363137303831317C34
:109F600000000000B0A00008000000201800000061
:109F700028510008C8A000081800002080400000F8
:109F8000445100081C00000043000000F8FFFFFFE0
:109F90000C0000000E0000000F0000002E0000006A
:109FA0001001000043000000F8FFFFFF00404040A8
:109FB000404040404040414141414140404040409C
:109FC0004040404040404040404040404005020248
:109FD0000202020202020202020202020220202007
:109FE0002020202020202002020202020202909063
:109FF0009090909010101010101010101010101061
:10A0000010101010101010100202020202028888B4
:10A0100088888888080808080808080808080808C0
:10A0200008080808080808080202020240000000A8
:10A030000000000000000000000000000000000020
:10A040000000000000000000000000000000000010
:10A050000000000000000000000000000000000000
:10A0600000000000000000000000000000000000F0
:10A0700000000000000000000000000000000000E0
:10A0800000000000000000000000000000000000D0
:10A0900000000000000000000000000000000000C0
:10A0A00000000000000000000000000000000000B0
:10A0B000000000000000000001020304010203048C
:08A0C000060708090204060866
:040000050800523568
:00000001FF
