:020000040800F2
:10000000982B00203D020008AD340008F9310008AB
:10001000A93400087D2C0008C7400008000000003B
:10002000000000000000000000000000F938000897
:10003000E92E000800000000593500080D3A0008BC
:10004000570200085702000857020008570200082C
:10005000570200085702000857020008570200081C
:10006000570200085702000857020008570200080C
:1000700057020008570200085702000857020008FC
:1000800057020008570200085702000857020008EC
:1000900057020008570200085702000857020008DC
:1000A00057020008570200085702000857020008CC
:1000B00057020008570200085702000857020008BC
:1000C00057020008570200085702000857020008AC
:1000D00057020008F13A000857020008A53C000842
:1000E00057020008570200085702000800F002F803
:1000F00000F090F80AA090E8000C82448344AAF132
:100100000107DA4501D100F085F8AFF2090EBAE82F
:100110000F0013F0010F18BFFB1A43F0010318473B
:100120004447000064470000103A24BF78C878C1F3
:10013000FAD8520724BF30C830C144BF04680C60ED
:10014000704700000023002400250026103A28BF35
:1001500078C1FBD8520728BF30C148BF0B60704739
:100160006E2900F0B982702900F0FB83662904F043
:10017000F782652904F0F482672904F0F18261298D
:1001800004F0F08203681B0A28BF41F0800169294E
:1001900000F06682642900F06382752900F06082B5
:1001A0006F2900F08883782900F0C783E92900F0DF
:1001B0002383E42900F02083F52900F01D83EF2933
:1001C00000F08583F82900F0C6830368DB0928BFA7
:1001D00041F08001632901F04781732901F04C81CE
:1001E000E32901F05781F32901F05C810020704779
:1001F0001FB501F063FB04000020002104F09AFA0F
:10020000401C60600020002104F07EFAE0601FBD09
:1002100010B510BD01F024FB1146FFF7E9FF04F013
:1002200079F801F001FC03B4FFF7F2FF03BC01F021
:1002300049FC000080F308887047000009488047A7
:1002400009480047FEE7FEE7FEE7FEE7FEE7FEE7B8
:10025000FEE7FEE7FEE7FEE704480549054A064BD0
:1002600070470000113A0008ED00000898250020B2
:10027000982B002098270020982700201CB50C46BA
:10028000064B7B4469460090204600F03EFA044647
:100290000020694600F04CFA20461CBDAB0400006B
:1002A0000FB400B58DB010A9099000910B904FF0DC
:1002B000FF300A9000200C900648784406900648CB
:1002C00078446A4607900F9909A800F02DFC0DB0FC
:1002D0005DF814FB8B080000A30800002DE9FF5F08
:1002E0001D464FF0FF3B91464FF000085F46D5E9B1
:1002F0000146A96901987F1C8847296A8246884778
:100300000028F6D1BAF1FF3F0CD0002E24F4C064CF
:1003100019DD600614D5BAF12B0F09D0BAF12D0FF3
:100320000ED103E0584604B0BDE8F09F44F4806469
:10033000A96901987F1C8847761E8246002E02DD3F
:10034000BAF1300F03D0B9F1000F26D032E0A9691D
:10035000761E01987F1C44F400748847002E824664
:1003600005DDBAF1780F06D0BAF1580F03D0B9F114
:10037000000F10D01EE0B9F1000F02D0B9F1100F3C
:1003800018D1A969761E01987F1C24F4007488474F
:100390008246102002E0082000E00A20814609E0A1
:1003A000A96908FB0908761E01987F1C44F40074B3
:1003B00088478246002E05DD4946504600F0A0FBE6
:1003C0000028EDDAE96901988847A00502D46FF0AA
:1003D0000100A8E7E00725D1600613D5600502D526
:1003E000C8F1000000E0404629680A1D2A6009683B
:1003F000220501D5087015E0220701D5088011E01B
:1004000008600FE02868011D29600068210502D5F9
:1004100080F8008006E0210702D5A0F8008001E006
:10042000C0F8008038467EE740EA010310B59B071C
:100430000FD1042A0DD310C808C9121F9C42F8D04E
:1004400020BA19BA884201D9012010BD4FF0FF30FF
:1004500010BD1AB1D30703D0521C07E0002010BD15
:1004600010F8013B11F8014B1B1B07D110F8013BA1
:1004700011F8014B1B1B01D1921EF1D1184610BD82
:1004800010B5431C02E010F8011B71B18107FAD1CD
:100490004FF0013202C88C1A8C4314EAC211F9D011
:1004A000C01A0A0603D0C01E10BDC01A10BD0A042F
:1004B00001D0801E10BD0902FCD0401E10BD032AD1
:1004C00040F2308010F0030C00F0158011F8013B71
:1004D000BCF1020F624498BF11F801CB00F8013B58
:1004E00038BF11F8013BA2F1040298BF00F801CB1C
:1004F00038BF00F8013B11F0030300F04583083AD0
:10050000C0F0088051F8043B083A51F804CBA0E849
:100510000810F5E7121D5CBF51F8043B40F8043B9E
:10052000AFF30080D20724BF11F8013B11F801CBD3
:1005300048BF11F8012B24BF00F8013B00F801CBA4
:1005400048BF00F8012B70474FF0000200B513467A
:1005500094469646203922BFA0E80C50A0E80C50E3
:10056000B1F12001BFF4F7AF090728BFA0E80C5094
:1005700048BF0CC05DF804EB890028BF40F8042B8D
:1005800008BF704748BF20F8022B11F0804F18BFFA
:1005900000F8012B704770477047704770B50446EC
:1005A00085690068C10601D5302600E02026C00715
:1005B00007D070BDD4E9012130469047206A401C25
:1005C00020626D1EF6D570BD70B504468569007851
:1005D000C00707D170BDD4E9012120209047206ACF
:1005E000401C20626D1EF6D570BD09684A0501D514
:1005F00040B27047C905FCD500B2704709684A058A
:1006000001D5C0B27047C905FCD580B2704770B53E
:100610000C460546012A05D02878800600D5EA69EF
:10062000002302E0012305E05B1C934202D2E05C60
:100630000028F9D1A869E618C01AA861286A1844E8
:1006400028622846FFF7AAFF04E0D5E9012114F843
:10065000010B9047B442F8D32846FFF7B5FF70BDB1
:100660002DE9F0410646002410687529314616A58B
:1006700010D0FFF7BAFF002802DA404213A507E0C6
:1006800031688A0701D512A502E0490704D511A5F2
:10069000012401E0FFF7B2FF00210A2206F124073E
:1006A00009E0B0FBF2FCB0FBF2F302FB1C003030BF
:1006B00078541846491C0028F3D123462A46304670
:1006C000BDE8F04100F0E0BA000000002D0000009D
:1006D0002B0000002000000011680268006A53052A
:1006E00001D508700AE0D30501D5088006E013069D
:1006F00003D5C217C1E9000200E00860012070477D
:1007000001694A1C02610878704700B58FB0CDE9D5
:1007100001310021059105497944CDE903101146C5
:10072000684600F029F90FB000BD0000E5FFFFFFAB
:100730000A6802F8010B0A60704700002DE9FF5FAC
:1007400015468A460446DFF8AC80F8440027D8E90D
:1007500000103E46CDE9001010E03AF816106A4647
:1007600002A801F05DF8411C07D02178890603D565
:10077000E269391891420DD80744761C207880062A
:1007800002D5E069B84205DDAE42E6DB3AF8160074
:100790000028E2D1A069C01BA0612046FFF7FEFE41
:1007A000D8E90010CDE90010002017E03AF8181041
:1007B0006A4602A801F034F8B0F1FF3F81460BD041
:1007C00000250DF1080B05E0D4E901211BF8050017
:1007D00090476D1C4D45F7D308F10100B0428046AB
:1007E000E4DB206A384420622046FFF7EDFEBDE8D6
:1007F000FF9F00001A4000002DE9F0418046D21D05
:1008000022F007020025D2E90002F52915A614D02E
:10081000011E72F1000106DA0023D0EB030063EB46
:10082000020211A608E0D8F800108B0701D50FA628
:1008300002E0490701D50EA601251146002408F162
:10084000240704E000F0D2F930323A55641C50EA33
:100850000102F7D12B46324621464046BDE8F04121
:1008600000F012BA000000002D0000002B00000074
:100870002000000030B4002100F1240408E002F060
:100880000705D208303542EA4372DB086554491C3B
:1008900052EA0305F3D10468002310A2250707D507
:1008A000A40600D421B1C46901230DA2641EC46151
:1008B00030BC00F0E9B910B5044621461068FFF7D6
:1008C0009DFE02462046BDE810400023D2E7D21D1F
:1008D00022F00701D1E90023CCE70000000000006E
:1008E00030000000F0B40D460188090502D5214C06
:1008F0007C4402E01F4C7C440E34002100F12406AD
:1009000008E002F00F071209E75D42EA03721B09D3
:100910007754491C52EA0307F3D1027800231207E7
:1009200004D5702D06D009B1022311342246F0BC43
:1009300000F0AAB901231034F8E770B504460D465B
:1009400021461068FFF75AFE024629462046BDE8B8
:1009500070400023C6E7D21D22F00703D3E900232D
:10096000C0E70368126843F0200303600823C361F3
:100970000023B7E77C3E00002DE9F05F894604467E
:100980004FF0000ADFF874B1FB44C0F820A0204605
:10099000E1688847002874D0252806D0D4E90121D1
:1009A0009047206A401C2062F1E700265F462046FF
:1009B000E16888472028054607DB312D05D27819E4
:1009C00010F8200C08B10643F1E7B00701D526F076
:1009D0000406C4F81CA00027C4F818A02A2D09D0CA
:1009E000284603F05FFC38B304EB8708303DC8F8B5
:1009F000185019E059F8041B204604EB8702916156
:100A0000E1688847012F054618D1E069002820DAFF
:100A100026F020061DE0D8F8180000EB800005EB5A
:100A200040003038C8F818002046E168884705467D
:100A300003F038FC0028EED1012F0AD02E2D08D16A
:100A40002046E16888477F1C0546022F46F02006B5
:100A5000C4DBA069002803DA404246F00106A06129
:100A6000F00701D026F010066C2D0BD0682D09D0B0
:100A70004C2D39D06A2D35D0742D35D07A2D33D008
:100A800016E038E0E1682F4620468847B842054620
:100A900009D16C2F26D04FF48060E16806432046D0
:100AA0008847054604E06C2F1AD04FF48070064347
:100AB0000DB3A5F14100192802D8203546F400668F
:100AC0004A462946204626604E46FFF749FB80B13C
:100AD00001280BD0F61D26F0070000F1080956E7A3
:100AE0004020E4E78020D8E70020D6E706F104099B
:100AF0004DE7284652E7206ABDE8F09F0C3E000013
:100B00003A2800D2303820F02002412A01D3A2F145
:100B10003700884201D34FF0FF307047026811441C
:100B20001378016018467047D160054979445161D6
:100B300004497944116200211161114600F0B6BCEC
:100B4000EDFFFFFF41010000426842B1016811F86A
:100B5000013B23B1521EC0E9001218467047012123
:100B6000C160881E704742685AB1C368016843B9C2
:100B700083688B4205D0491E521CC0E90012002038
:100B800070474FF0FF30704710B5203AC0F00B802F
:100B9000B1E81850203AA0E81850B1E81850A0E881
:100BA0001850BFF4F5AF5FEA027C24BFB1E81850DB
:100BB000A0E8185044BF18C918C0BDE810405FEA4B
:100BC000827C24BF51F8043B40F8043B08BF7047C7
:100BD000D20728BF31F8023B48BF11F8012B28BFCC
:100BE00020F8023B48BF00F8012B704730B5B0F148
:100BF0000A024FEA900E71F100034EEA817EB0EBDB
:100C00000E0061EB91014FEA101E4EEA017E10EBDF
:100C10000E0041EB11114FEA102E4EEA016E10EB5F
:100C20000E0041EB11214FEA104E4EEA014E10EB3F
:100C30000E0041EB1141401841F100014FEAD00094
:100C400040EA41704FEAD10110EB80054FEA810480
:100C500044EA907444EB01046D1944EB0404521B04
:100C6000A3414FF0000348BF0A3200D530BD401CFD
:100C700041F1000130BD10B5044600F017FE0068D8
:100C8000005D00F0010010BD2DE9F0470D469946CA
:100C90009246044600F124080168880604D5E069FC
:100CA00021F01001216000E00120A84201DD471B76
:100CB00000E00027A1697A1902EB0900081AA06177
:100CC0002078C00602D42046FFF768FC002608E022
:100CD000D4E901211AF806009047206A401C761CCE
:100CE00020624E45F4DB2078C0060AD52046FFF787
:100CF00055FC06E0D4E9012130209047206A401CD1
:100D00002062381EA7F10107F4DC07E0D4E90121D5
:100D100018F805009047206A401C2062281EA5F1A3
:100D20000105F3DC2046FFF74FFC2078000602D5D2
:100D30000220BDE8F0870120FBE770472DE9FF4F57
:100D40000C461E464FF0FF378BB0D2E90001DDF8AC
:100D500060800A908A46C1F30A5505B93D460021D4
:100D600008464FF00000BAF1000F00F4400005DA29
:100D700000EB80004FF4400101EA50004FEA905927
:100D8000B9F1010F00DDB9460A9850EA4A000ED0C9
:100D900044F61050A5F2FF3545432F14B8F1000F6B
:100DA0001ED07542291E1EDDC9F100021CE0B8F1FB
:100DB000010F4FF0000001D0302103E0F24305E0C5
:100DC0002154401CB042FBDB30460022002121545C
:100DD0000B99C1F80880C1E900200FB0BDE8F08F81
:100DE000BD1B6D1CDEE74A4600DA694206A800F02A
:100DF000A9FD06AB93E8070003AB83E80700504664
:100E00000A9900F066FE8DE80700A0F500501F3833
:100E100000900398002D0ADD42F21F014A46084463
:100E2000002303A90390684601F0CFF809E0A0F57C
:100E300000504A461F38002303A90390684601F07A
:100E4000D9F88DE807000004000C03D04FF0FF3004
:100E5000410800E01046B8F1000F03D000220092D4
:100E600015461EE0751E05D4FFF7C0FE30326255F0
:100E70006D1EF9D5B3460122084302D000227F1C23
:100E800004E02078302801D100227F1E002A099733
:100E900084D01DE0112D07DAFFF7A8FE303262552D
:100EA0006D1C50EA0102F5D1084302D00098C8B188
:100EB0000EE00021681E05E0235C625C635422544E
:100EC000401E491C8142F7DBAB46A81B401E09901F
:100ED000002004F80B000B98099AC0F80880C0E9BC
:100EE000002B7AE711264FF0000857E72DE9F04F65
:100EF00088460446D21D22F0070191B0D1E90001D5
:100F0000CDE90A0103F0BAF902460B98C00F01D0EF
:100F10002D2007E02068810701D52B2002E0202149
:100F200001EAC000032A099001D0072A05DB034625
:100F30004146204600F0C6FC0BE12078800601D532
:100F4000E06900E00620B8F1650F814606D0B8F1EF
:100F5000660F18D0B8F1670F70D131E00020B9F1F9
:100F6000110F009001DB112301E009F101030AAA2E
:100F700001A90CA8FFF7E2FEDDE90C70002609F1DB
:100F80000105834647E001204B4600904FF00047A3
:100F90000AAA01A90CA8FFF7D1FEDDE90DB00C9952
:100FA0005D46002610B909F101000D18B9EB0500E6
:100FB00003D4C0F1FF3609F10105A5EB09002BE0D0
:100FC000B9F1010F01DA4FF001090020B9F1110F59
:100FD0000090484601DD112300E003460AAA01A95A
:100FE0000CA8FFF7ABFEDDE90C704D4600268346EA
:100FF000207800070AD4AB4500DA5D4601A8012D30
:1010000004DD411911F8011C302907D04F4502DADF
:1010100017F1040F04DA012082460FE06D1EEEE79F
:10102000002F02DCED1B3E4403E0781CA84200DDEB
:101030007D1CB81B00F1010A4FF000472078000723
:1010400003D4AA4501DB4FF0FF3A0021B7F1004F6E
:101050000DF143088DF8431024D002202B23002FDC
:1010600001DA7F422D230A21021EA0F1010000DCDB
:101070005FB197FBF1FC97FBF1F201FB1C7C17467B
:101080000CF1300C08F801CDEEE7A8F10100037077
:101090002188090501D5452100E06521A0F101085D
:1010A00000F8011C09980FA9A1EB0807FF1D00B16A
:1010B0000120411901EBEA70A1693844081A401E69
:1010C000A0612078C00602D42046FFF767FA09988D
:1010D00028B1D4E901219047206A401C2062207881
:1010E000C00622D52046FFF759FA1EE0002E04DB89
:1010F000B34502DD01A8805D00E03020D4E9012184
:101100009047206A401C2062761CAAF101005FEA29
:10111000000A0AD100F0D2FBC0680168405CD4E943
:1011200001219047206A401C2062281EA5F101057C
:10113000DCDC07E0D4E9012118F8010B9047206AB4
:10114000401C2062381EA7F10107F3DC2046FFF7A0
:101150003BFA032011B041E62DE9F04F04460D465D
:10116000D21D22F0070089B0D0E9009748463946E1
:1011700003F084F80246F80F01D02D2307E0206821
:10118000810701D52B2302E0202101EAC0038DF85D
:1011900020300BB1012000E00020032A824601D05C
:1011A000072A04DB2946204600F08CFB3FE120782B
:1011B000800601D40D2500E0E569C7F30A560D2D20
:1011C00049DA00214FEA175B08464FF00000002F74
:1011D00000F4400007DA00EB80004FF4400100EB20
:1011E000D07001EA60008115012901DD4FF0FF3167
:1011F00000224FEA850CBCF1180F06D31346ACF160
:1012000018004FF08052C24003E04FF4801323FADD
:101210000CF30CF10C0CBCF1200F04D3ACF1200C3E
:1012200009FA0CF001E007FA0CF000294FF0004831
:1012300001DD18B90FE00ED140450CD319EB0209BE
:101240005F4121B9404502D19F4329EA0209BBEB26
:10125000175F00D0761C2088000502D57B487844B3
:1012600002E07A487844193808AA302302F80A3094
:10127000037C0AF10101002E0AF1020A53546A4666
:1012800002DC4FF0300101E04FF031014FF0010876
:101290008DF8001002D0A6F2FF3603E059EA4701AC
:1012A00000D06B4E002D02DC2178090704D54FF0E9
:1012B00002082E218DF80110C44600210BE0C7F36F
:1012C00003433F01C35C491C6D1E02F80830052929
:1012D00008F1010801DA002DF1DC00210CE000EB3F
:1012E0001973491C1B786D1E082902F808304FEA53
:1012F000091908F1010801DA002DF0DC21688B06DC
:1013000002D516E0A8F10108E04505DD02EB08036F
:1013100013F8013C302BF5D0B8F1000F09DD02EBDA
:10132000080313F8013C2E2B03D1090701D4A8F1BF
:101330000108002D05DD3E2102F808106D1E08F1A0
:101340000108407C002E02F8080008F1010804DAC8
:101350002D20764202F8080002E02B2002F8080057
:101360000A214FF47A70864208F101080BDB96FBE4
:10137000F0F3303302F8083096FBF0F308F101087F
:1013800000FB136601E0642E0CDB642096FBF0F397
:10139000303302F8083096FBF0F308F1010800FB47
:1013A000136601E00A2E06DB96FBF1F0303002F8FE
:1013B000080008F1010896FBF1F001FB10603030E5
:1013C00002F80800A16908F1010808EB050202EB28
:1013D0000A00081AA0612078C00602D42046FFF750
:1013E000DDF8216A08AE01EB0A00206204E0D4E9CE
:1013F000012116F8010B9047BAF1010AF7D22078C3
:10140000C00602D52046FFF7C9F86E4609E016F877
:10141000010B3E280FD0D4E901219047206A401CDF
:101420002062B8F10108F2D22046FFF7CDF809B0EA
:101430000320BDE8F08F206A2844206203E0D4E94D
:101440000121302090476D1EEBD3F8E75A3500009C
:1014500002FCFFFF10B5436913B1AFF3008001E058
:10146000FFF7D5F8012010BD127800F124010A70B1
:1014700000224A700122EDE711684FF0FF32E9E7E0
:1014800010B5436913B1AFF3008001E0FFF756F9DF
:10149000012010BD128800F1240182840022C28440
:1014A0000122EDE711684FF0FF32E9E72DE9F34F34
:1014B0004FF0000A0C4656468DB001200C9001F109
:1014C0000C000B9062690B9801219047051E2DD0EE
:1014D000252D2CD0216A8847C0B162690B98012163
:1014E0009047216A88470028F7D16269411E0B980E
:1014F000904700E0761CA1690D988847216A8847CB
:101500000028F7D1E1690D988847DBE7A1690D98BC
:101510008847A842074601D1761CD3E7E1690D98B8
:1015200088477F1C02D1BAF1000F6FD06CE162696D
:101530000B9800273D46394690472A2804D1626916
:101540000B98012190470125DFF8D08262690B9842
:1015500001219047A0F130010A290AD24745E5DC74
:1015600007EB870100EB4107303FDFD445F0100562
:10157000ECE7E90601D46FF000476C280AD04C284C
:1015800014D0682815D06A280DD074281CD07A2869
:101590001AD01DE062690B98012190476C2802D097
:1015A00045F0040514E045F002050DE045F0200586
:1015B0000AE062690B9801219047682802D045F043
:1015C000080505E045F4006562690B980121904724
:1015D000C4E9015765283DD019DC58287AD00CDCC5
:1015E000452837D004DC252826D041289ED131E07B
:1015F00046282FD0472899D12CE05B2877D0612846
:1016000028D063287CD0642823D15AE0F7E06F28E3
:1016100048D008DC66281DD067281BD0692821D057
:101620006E2816D127E0702845D0732868D0752819
:1016300047D078280DD14DE0A1690D98884725281D
:1016400005463FF469AFE1690D9888476D1C3FF48A
:101650006AAFD9E00D9923466A466FF00100AFF3F7
:101660000080C6E045F0400023464FF00002606075
:10167000A80736D43EE0E8077FF447AF2068011D95
:1016800021600068290501D506701BE7290701D5EF
:10169000068017E7A90703D5F117C0E9006111E734
:1016A00006600FE745F0400023464FF008026060F7
:1016B000A80716D41EE040F60E0125EA010060607E
:1016C00016E045F0400023464FF00A026060A8078C
:1016D00007D40FE045F040006060A80708D5234616
:1016E00010220D996FF00100AFF3008081E007E058
:1016F000102223460D996FF00100FEF7EFFD78E010
:101700004FF0000963284F46C8464B46CB4602D0EF
:101710005B2807D039E02079C00601D40120A06001
:10172000012732E06269D4F80CB00B980121904790
:101730005E2807D14FF0010949466269D4F80CB020
:101740000B989047216939B900210A4603AB43F849
:101750002120491C0829FADBD8B3216949B308F1D3
:10176000010862690B98012190475D28F4D1B9F115
:10177000000F09D0002003A951F82020D24341F8DE
:101780002020401C0828F7DB03AB206900282079C3
:101790004FEA40701ED05B462246CDF80080CDE96E
:1017A00001970D9900286FF0010020DAAFF3008057
:1017B0001FE0C11703AA00EBD1614B1121F01F01FB
:1017C00002EB8302411A136801208840034313602F
:1017D000C7E719E00D99224600286FF00100009735
:1017E00002DAAFF3008004E0AFF3008001E0AFF372
:1017F000008000280ADA401C06D10C9820B14FF076
:10180000FF300FB0BDE8F08F5046FAE7E90701D18D
:101810000AF1010A064400200C9053E6CCCCCC0C13
:1018200070B516460C46054600F040F8036893F87C
:101830000101012806D0FF2C0FD8185D68B10120E6
:101840002C7070BDD3F807013246214603F207130E
:1018500003442846BDE8704018474FF0FF3070BD84
:10186000754600F0EBF8AE4605006946534620F099
:101870000700854618B020B5FEF7EEFCBDE8204015
:101880004FF000064FF000074FF000084FF0000B3C
:1018900021F00701AC46ACE8C009ACE8C009ACE8EF
:1018A000C009ACE8C0098D467047000010B500F0D3
:1018B00005F8001D10BD00BF7D2E000000487047D8
:1018C000582500202DE9F0411F46044603260168F3
:1018D000072A01F4006004DB08B116A505E016A58F
:1018E00003E008B115A500E015A521F01000206067
:1018F000A069C01EA0610FB1401EA0612046FEF786
:101900004DFE4FB1D4E9012138469047206A401C72
:101910002062C01C206206E0206AFAE7D4E90121B7
:1019200015F8010B9047761EF8D22046FEF74CFEC4
:10193000BDE8F0814E414E006E616E00494E46009A
:10194000696E66002DE9F047814616468AB0354833
:1019500078440DC88DE80D0032487844801C03ACF3
:101960000DC884E80D0041F69B300844372190FBF8
:10197000F1F290FBF1F5A5F1800501FB12041B3C8F
:1019800002D56442012000E00020DFF898A08046E4
:101990000027FA44AAF1BE0A0EE0E0070AD0324658
:1019A000684607EB470101230AEB810100F022FBA7
:1019B0008DE8070064107F1C002CEED1194F7F4486
:1019C000AE3F19E0E80715D007EB04100DF1180A37
:1019D00090E80E008AE80E00C068F04201D1981924
:1019E00008903246012306A903A800F003FB03ABCD
:1019F00083E807006D10641C002DE3D14FF0010354
:101A000032466946B8F1000F03A802D000F0DDFAB3
:101A100001E000F0EFFAC9E90001C9F808200AB0B6
:101A2000BDE8F087F82E000010B50446AFF3008043
:101A30002046BDE81040FEF7F6BB000000487047A6
:101A4000382500204FF0013C50F8042B51F8043B9E
:101A50009A4221D1A2EB0C03934313EACC1317D182
:101A600050F8042B51F8043B9A4215D1A2EB0C0319
:101A7000934313EACC130BD150F8042B51F8043BD9
:101A80009A4209D1A2EB0C03934313EACC13DBD0A7
:101A90004FF00000704700BFD01A01BAB1FA81F1CF
:101AA00001F0180122FA01F0CB40C1F12001DBB2B4
:101AB000C0B2C01A2CFA01F3D11A914311EAC31132
:101AC000E6D1704701491820ABBEFEE726000200B0
:101AD00070475FEA400C08BF91F0000F4FEA8C237B
:101AE0004FEAC12243EA51514FEA1C5018BF00F59A
:101AF000F0404FEA300018BF41F000415FEA6C5CF3
:101B000000F02980BCF1FF3F08BF40F080407047E3
:101B1000130C06BF12044FF0100C4FF0000C130E04
:101B200004BF12020CF1080C130F04BF12010CF1D8
:101B3000040C930F04BF92000CF1020CD30F04BFEE
:101B400052000CF1010C11464FF00002A0F11F00F1
:101B5000A0EB0C00704711F0004F08BF704731F048
:101B600000413FF4D5AF0B0C06BF09044FF0100C39
:101B70004FF0000C0B0E04BF09020CF1080C0B0F08
:101B800004BF09010CF1040C8B0F04BF89000CF198
:101B9000020CCB0F04BF49000CF1010CCCF1200367
:101BA000A0EB0C0022FA03F302FA0CF241EA030163
:101BB00000F10100704720F07F4C80EA030023F021
:101BC0007F47ACEB070303F57C5300F0004003F1C3
:101BD000FF032DE980494FEA154B09B44FEA14433E
:101BE00025EA0B4E24EA03480FF2042606EB1327DE
:101BF00049083E785FEA320203FB0667C7F5000733
:101C000007FB06F64FEA54374FEAD64606F10206BE
:101C100007FB066CCCF1005C4FEA1C472CEA074C32
:101C200007FB06F40CFB06F504EB15464FEA961687
:101C300034BF00204FF000404FEAD13706FB07FCCD
:101C40004FEA1C4C0CFB0BF7D21B03FB0CF761EBB0
:101C500007010CFB0EF7B0EB074072EB17420CFBD1
:101C600008F734BFA2EB0742B2EB074261EB174122
:101C70004FEA0C444FEA910706FB07FC4FEA1C4C65
:101C80000CFB0BF7B0EBC74072EB573203FB0CF7C2
:101C900034BFA2EBC742B2EBC74261EB57310CFB3A
:101CA0000EF7B0EBC70072EB57720CFB08F734BFAE
:101CB000A2EBC702B2EBC70261EB5771039F4FEA79
:101CC000816141EA921104EBCC044FEAD1374FEA2B
:101CD000826206FB07FC42EA90124FEA80604FEAFC
:101CE0001C4C0CFB0BF7D21B03FB0CF761EB070141
:101CF0000CFB0EF7B0EB074072EB17420CFB08F73A
:101D000034BFA2EB0742B2EB074261EB17414FEA47
:101D10008C554FEA910704EB9C2406FB07FC4FEA25
:101D20001C4C0CFB0BF7B0EBC74072EB573203FBBC
:101D30000CF734BFA2EBC742B2EBC74261EB57319D
:101D40000CFB0EF7B0EBC70072EB57720CFB08F7F9
:101D500034BFA2EBC702B2EBC70261EB577115EBC0
:101D60004C254FEA816141EA92114FEA82624FEAC3
:101D7000D13742EA901206FB07FC44F100044FEA17
:101D800080604FEA1C4C0CFB0BF7D21B03FB0CF7DB
:101D900061EB07010CFB0EF7B0EB074072EB17424B
:101DA0000CFB08F734BFA2EB0742B2EB074261EB32
:101DB000174115EB1C154FEA813141EA92414FEA78
:101DC000823242EA90424FEA80304FEA0C7644F188
:101DD000000448EA03434EEA0B484FF0000EB2EB12
:101DE000080C71EB030724BF624639464EEB0E0E1A
:101DF0004FF0000B0018524149414BEB0B0BB2EB7B
:101E0000080C71EB03077BF1000B24BF62463946D7
:101E10004EEB0E0E4FF0000B0018524149414BEBB8
:101E20000B0BB2EB080C71EB03077BF1000B24BF2B
:101E3000624639464EEB0E0E51EA020718BF46F0D5
:101E4000010616EB0E7655F1000254F1000103D5A0
:101E5000BDE88901BDE80088BDE88901BDE800480A
:101E6000B619524141EB0101A3F101037047808093
:101E70007F7E7D7C7B7A79787776767574737271E4
:101E800071706F6E6E6D6C6C6B6A6A69686867669C
:101E900066656464636362616160605F5F5E5E5D2E
:101EA0005D5C5C5B5B5A5A595958585757565655A2
:101EB00055555454535352525251515050504F4F04
:101EC0004F4E4E4D4D4D4C4C4C4B4B4B4A4A4A4954
:101ED0004949484848474747474646464545454497
:101EE0004444444343434342424242414141002B24
:101EF0009C4630D477002BD01CB54FEA370703B48B
:101F00004FF010004FF01001BAF1000F06D0BCF1F5
:101F1000000FDCBF40F0080040F008014FF0000067
:101F20000FBCBDE810400BF1010BBBF1010F08BF66
:101F30005FEA170722BF12F1010211F101014FF010
:101F4000004143F1000300F0004043EA0000704705
:101F5000F9D35708D0E746EA064613F1400F4FEA97
:101F600016461FDD13F1200FDFBF16430A4600217E
:101F700020335B42BED0C3F1200746EA064602FA90
:101F800007F74FEA164646EA0706C3F1200722FA8A
:101F900003F201FA07F721FA03F14FF0000342EAD6
:101FA0000702A7E746EA020646EA06464FEA164651
:101FB00046EA0106BCBF46EA0646360C4FF000036F
:101FC0004FF000024FF0000194E72DE9804C9A4653
:101FD000934670B491E8380007C831EA400C48BF16
:101FE00034EA430C03D5FFF7E6FDFFF780FFF0BCB2
:101FF000BDE8008C2DE9804C9A46934670B491E878
:10200000380007C810F0804F08BF13F0804F03D18D
:1020100000F005F8FFF76BFFF0BCBDE8008C20F086
:102020007F4780EA030023F07F4C07EB0C03A3F506
:102030007C5300F00040A3F1FE0392F0000F00F08B
:10204000B38095F0000F00F077802DE901494FEA49
:1020500011404FEA144621EA004800FB06FC24EA3E
:10206000064708FB06F607FB08F800FB07F718EB26
:1020700006484CEB164C4FEA124B18EB07484FEA58
:1020800015464CEB174022EA0B4E0BFB06FC25EAEB
:1020900006470EFB06F607FB0EFE0BFB07F71EEBD3
:1020A000064E4CEB164C4FF000061EEB074E4CEB69
:1020B000174B18EB0B0840F1000018EB0E0B58EB18
:1020C000000840F100008F1A4FF000013CBFC943E7
:1020D000661B14BFB5EB040C00213CBFC943F61BC3
:1020E0004FEA17444EEA8E0E27EA04454FEA1C4792
:1020F00004FB07622CEA074C05FB07F70CFB05F60F
:1021000004FB0CFC16EB074642EB174216EB0C46A1
:1021100042EB1C421BEB060658EB0202414146EA29
:102120009E0601D5BDE80189B619524141EB010176
:10213000A3F10103BDE801894FEA14454FEA1147B5
:1021400024EA054621EA074C05FB07F406FB07F7DE
:102150000CFB06F105FB0CFC11EB074144EB1744AB
:102160004FEA124711EB0C4144EB1C4422EA074CA6
:1021700005FB07F206FB07F70CFB06F605FB0CFC5C
:1021800016EB074642EB174216EB0C4642EB1C459A
:102190006A1854F1000148BF7047B619524141EB2B
:1021A0000101A3F10103704795F0000F37D04FEA0A
:1021B00011424FEA144721EA024624EA074C02FB87
:1021C00007F106FB07F70CFB06F402FB0CFC14EB13
:1021D000074441EB17414FEA154714EB0C4441EB20
:1021E0001C4125EA074C02FB07F506FB07F70CFB31
:1021F00006F602FB0CFC16EB074645EB174516EB03
:102200000C4645EB1C42121951F1000148BF7047C2
:10221000B619524141EB0101A3F1010370474FEAA6
:1022200014454FEA114724EA054621EA074C05FB0D
:1022300007F106FB07F70CFB06F24FF0000605FB63
:102240000CFC12EB074241EB174112EB0C4251EB35
:102250001C4148BF7047921841EB0101A3F10103F3
:10226000704770B505460C4601F07AF8A02001F0E1
:1022700049F8642001F0A8F808B1012070BD284693
:1022800001F040F8642001F09FF808B10220F5E762
:1022900001F066F8A12001F035F8642001F094F80F
:1022A00008B10320EAE7002000F0F6FF207001F0FB
:1022B00071F80020E2E770B505460E46144608E0C6
:1022C00028466A1CD5B23146FFF7CBFF761C601E4C
:1022D00084B2002CF4D1002070BD000010B5502154
:1022E0000448FEF731F9502202490020FFF7E3FFCE
:1022F00010BD00001800002010B500240BE0074AB4
:1023000002EBC401E206100E00F00AF8052001F00D
:10231000D5FF601CC4B20A2CF1D310BD18000020F8
:1023200070B506460D4601F01BF8A02000F0EAFF4C
:10233000642001F049F808B1012070BD304600F07A
:10234000E1FF642001F040F808B10220F5E7002425
:102350000BE0285D00F0D6FF642001F035F810B1E5
:10236000E01CC0B2E9E7601CC4B2082CF1DB01F04C
:1023700011F80020E1E7000010B5142000F054F837
:10238000C8B90F4800680F4988420DD10EA002F06D
:102390005FF91148006840F001000F490860002013
:1023A0000E49C1F8000409E00DA002F051F91348EC
:1023B00001F036F802E012A002F04AF910BD000068
:1023C000180000202211BBAA4F5441D3D0B8FCD032
:1023D000C2A3A10D0A000000000000206800002038
:1023E0004F5441CEDEB8FCD0C2A3ACCCF8D7AA4142
:1023F000B7D6C7F8B4FAC2EB0D0A000000500008C7
:10240000BDF8C8EB426F6F746C6F61646572C3FC9A
:10241000C1EED0D00D0A000010B5024801F034FD25
:1024200010BD00000038014010B50446642004FBD4
:1024300000F10AA002F00CF908E0642001F03EFF70
:102440000E480078772801D1012010BD201EA4F18C
:102450000101CCB2F1D100BFF7E700002564206D87
:102460007320C4DACAE4C8EB207720A3ACBDF8C857
:10247000EBC3FCC1EED0D00D0A00000078040020B0
:1024800010B50EA002F0E4F80DA002F0E1F810A0E3
:1024900002F0DEF814A002F0DBF818A002F0D8F881
:1024A0001BA002F0D5F821A002F0D2F826A002F07D
:1024B000CFF828A002F0CCF810BD00000D0A0000F3
:1024C0005B315DB2C1B3FD41C7F80D0A00000000E9
:1024D0005B325DB4AEBFDA494150CFC2D4D841C7F8
:1024E000F8B3CCD0F20D0A005B335DC9E8D6C34F18
:1024F0005441B0E6B1BEBAC50D0A00005B345DB20E
:10250000E9D1AF4F5441B0E6B1BEBAC50D0A0000E3
:102510005B355DCFF2CDE2B2BF466C617368CFC26E
:10252000D4D8B3CCD0F20D0A000000005B365DCAEF
:10253000B9D3C3CDE2B2BF466C617368C4DAB3CC21
:10254000D0F20D0A000000005B375DD6D8C6F40D4E
:102550000A0000005B385DC9E8D6C3B7FECEF1C6FD
:10256000F7C1ACBDD3D0C5CFA20D0A0070B588B0FD
:1025700004460D46EC48006800287DD1012D0AD1A3
:102580002078312807D1E9A002F062F82C2114202C
:1025900001F088F9FCE2012D16D12078322813D100
:1025A000E5A002F055F82C21142001F07BF9DE485B
:1025B000006840F00600DC4908600020ED49C1F8E1
:1025C0000404C1F80C04E3E2012D0CD12078332877
:1025D00009D1E9A002F03CF8D348006840F00800B7
:1025E000D1490860D4E2012D0ED1207834280BD1D6
:1025F000E5A002F02DF8FFF771FEE749E7A002F031
:1026000027F8FFF73DFFC3E2012D0CD120783528D4
:1026100009D1E6A002F01CF8C348006840F01000A1
:10262000C1490860B4E2012D0CD12078362809D1C7
:10263000EBA002F00DF8BC48006840F04000BA4939
:102640000860A5E2012D0AD12078372807D1F1A032
:1026500001F0FEFF322001F031FE00F06BFF012D92
:1026600098D12078382895D1ECA001F0F1FFAE4840
:10267000006840F0800000E002E0AB49086087E2BB
:10268000A948007800F0040000287DD0852D66D18F
:102690002078012863D1A448006820F00200A249F4
:1026A00008608021E01C01F0C9FDB249A1F80804CE
:1026B00094F8840094F8831040EA0120AD49B1F801
:1026C0000814884248D1AB4991F80C1401F0070175
:1026D000A84A02EBC1108022E11CFDF7F0FEA548DC
:1026E000D0F80C04401CA349C1F80C04084690F82B
:1026F0000C0400F0070058BB8B48007800F0200065
:10270000C8B1002614E09B4A92F800241204130A70
:10271000984AD2F80C24083AD20103EB1222324430
:1027200091B2944A02EB062001F010FD701CC6B273
:10273000042EE8DB0CE08F49D1F80C140122C2EB27
:10274000D101BC4A02EB812052148A4901F0C1F840
:10275000B9A001F07DFF02E0B8A001F079FF012DE2
:102760008DD1207804288AD1B3A001F071FF81486F
:1027700090F80C0400F0070060B36B48007800F09C
:102780002000C0B1002613E04FE07A4A92F80024FE
:102790001302784AD2F80C24D20803EB82023244A6
:1027A00091B2744A02EB062001F0D0FC701CC6B254
:1027B000042EEADB0EE06F4991F80C1449078A0DEC
:1027C0006C49D1F80C14C9089A4B03EB8120694974
:1027D00001F07FF85448006820F004005249086076
:1027E0000846007800F02000B8B10846006820F0E4
:1027F000200008605F48D0F80C04C1015D48D0F8A3
:10280000002465482C3840F82210FFF775FD32206F
:1028100001F054FDFFF734FEBAE17EA001F018FF8D
:10282000642001F04BFD00F085FE3F48007800F089
:102830000800002845D0294681A001F009FF1A2D83
:1028400033D107A807A907AA07ABCDE90321059053
:10285000CDE9010300917EA12046FDF721FD082866
:1028600017D120214C48FDF76FFE1A2221464A4815
:10287000FDF725FEFFF740FD47497CA001F0E8FE8B
:102880002948006820F0080027490860FFF7F8FD94
:102890007EE17BA001F0DCFE2348006820F0080008
:1028A00021490860FFF7ECFD72E17DA001F0D0FE48
:1028B0001D48006820F008001B490860FFF7E0FD94
:1028C00066E11948007800F01000002829D0012D99
:1028D00028D12078312826DB2078392823DC20787D
:1028E00030382449C1F800040F48006840F0260041
:1028F0000D49086000201F49C1F80404C1F80C0408
:1029000000211C48D0F8002423482C3840F822101D
:10291000184991F8000401F0D9FB1648D0F80014CA
:10292000CEE0DFE0DAE0D5E000000020B2C1B3FD88
:1029300041C7F80D0A000000CDA8B9FD584D6F64DD
:10294000656DD0ADD2E9A3ACB4D3B4AEBFDA494122
:1029500050CFC2D4D841C7F8B3CCD0F2A3ACC7EBA8
:10296000CAB9D3C362696ECEC4BCFEB8F1CABD0D8C
:102970000A00000068000020C9E8D6C34F5441B0E7
:10298000E6B1BEBAC50D0A00B2E9D1AF4F5441B0AD
:10299000E6B1BEBAC50D0A00480000200D0AB0E637
:1029A000B1BEBAC5A3BA25730D0A0000CFF2CDE2BD
:1029B000B2BF466C617368CFC2D4D8B3CCD0F2A397
:1029C000ACCAE4C8EBD0E8D2AACAB9D3C3B5C4BF75
:1029D000E9B1E0BAC5A3A8317E39A3A90D0A000068
:1029E000CAB9D3C3CDE2B2BF466C617368C4DAB36F
:1029F000CCD0F2A3ACCAE4C8EBD0E8D2AACAB9D30F
:102A0000C3B5C4BFE9B1E0BAC5A3A8317E39A3A953
:102A10000D0A0000D6D8C6F40D0A0000C7EBC9E8BD
:102A2000D6C3B7FECEF1C6F7C1ACBDD3D0C5CFA2D9
:102A30000D0A00000050000806000000150000000C
:102A4000646174616C656E203D2025640D0A000090
:102A50005645522D25642E25642E25642D25642F80
:102A600025642F25642D25643A256400B0E6B1BEA7
:102A7000BAC5C9E8D6C3B3C9B9A60D0A000000009B
:102A8000B0E6B1BEBAC5B8F1CABDB4EDCEF3A3ACE1
:102A9000CDCBB3F6B8F1CABDC9E8D6C30D0A000064
:102AA000B0E6B1BEBAC5B3A4B6C8B4EDCEF3A3AC1C
:102AB000CDCBB3F6B8F1CABDC9E8D6C30D0A000044
:102AC00034A001F0C5FD4348006820F010004149E2
:102AD00008605DE040A001F0BBFD59E043A001F0BB
:102AE000B7FD55E03B48007800F0400030B3012DC1
:102AF00020D12078312819DB2078392816DC20787D
:102B000030383F49C1F800040846D0F800143DA011
:102B100001F09EFD2F48006840F001002D4908603B
:102B20000846006820F04000086031E02AA001F06B
:102B30008FFD2DE02DA001F08BFD29E025480078C8
:102B400000F0800020B335A001F0B0FD1E2001F0A0
:102B5000B5FB214635A001F0A9FD1E2001F0AEFB1A
:102B600037A001F0A3FD1E2001F0A8FB3AA001F060
:102B70009DFD1E2001F0A2FB3EA001F097FD1E204E
:102B800001F09CFB1348006820F0800011490860A8
:102B900008B070BDCDA8B9FD584D6F64656DD0AD5E
:102BA000D2E9A3ACCFF2573235513634B5DA2564C9
:102BB000BFE9CFC2D4D841C7F8B3CCD0F2A3ACC7D9
:102BC000EBCAB9D3C362696ECEC4BCFEB8F1CABD4C
:102BD0000D0A000000000020C7EBB4ABC8EB317E4B
:102BE00039B5C4B1E0BAC50D0A000000CAE4C8EBAB
:102BF000B2CECAFDB3A4B6C8B4EDCEF30D0A000040
:102C000068000020CDA8B9FDB5DA2564BFE9CFC2C0
:102C1000D4D841C7F8B3CCD0F20D0A0041542B43AD
:102C200049504D4F44453D300D0A000041542B435F
:102C3000495053544152543D25730D0A0000000081
:102C400041545E4845415254434F4E4649473D31F9
:102C50002C302C36300D0A0041545E484541525408
:102C6000424541544845583D342C433030300D0ADC
:102C700000000000415426570D0A000000BFFEE787
:102C800021B1026842F00102026004E002684FF6DE
:102C9000FE731A400260704701684FF6FE721140E1
:102CA00001600021016041608160C1604B49884240
:102CB00008D14A490839496841F00F01474A083AA2
:102CC00051608AE045491431884208D143490839A6
:102CD000496841F0F001414A083A51607DE03F49BE
:102CE0002831884208D13D490839496841F470616A
:102CF0003A4A083A516070E038493C31884208D17C
:102D000036490839496841F47041344A083A5160FB
:102D100063E032495031884208D130490839496866
:102D200041F470212D4A083A516056E02B49643134
:102D3000884208D129490839496841F47001274A75
:102D4000083A516049E025497831884208D1234941
:102D50000839496841F07061204A083A51603CE006
:102D60001F49884206D1011F096841F00F01021F67
:102D7000116032E01A491431884208D11849091FFC
:102D8000096841F0F001164A121F116025E014494C
:102D90002831884208D11249091F096841F470613D
:102DA0000F4A121F116018E00D493C31884208D1CA
:102DB0000B49091F096841F47041094A121F11604B
:102DC0000BE007495031884207D10549091F0968BE
:102DD00041F47021024A121F11607047080002403E
:102DE000080402400146486880B2704710B50022CE
:102DF000026847F6F0739A430C6A8B6823430C69A8
:102E000023434C6923438C692343CC6923434C6A95
:102E100023438C6A23431A430260CB6843600B68E8
:102E200083604B68C36010BD00B58BB001210846BC
:102E300000F094FB1148FFF72FFF11480090114854
:102E400001900020029040F20110039000200490B5
:102E50008020059000200690079008904FF40050C5
:102E6000099000200A9069460448FFF7BFFF01213E
:102E70000248FFF705FF0BB000BD000058000240FC
:102E8000043801407804002000B58BB001210846C9
:102E900000F064FB1148FFF7FFFE11480090114855
:102EA00001900020029040F2011003900020049055
:102EB0008020059000200690079008904FF4005065
:102EC000099000200A9069460448FFF78FFF01210E
:102ED0000248FFF7D5FE0BB000BD000030000240F5
:102EE00004480040D81400207047000030B5044664
:102EF00004254FF4302000F085F80546042D17D145
:102F00000C48006940F002000A4908610846446123
:102F1000006940F0400008614FF4302000F072F882
:102F200005460448006941F6FD7108400149086101
:102F3000284630BD0020024004200B49C96801F03A
:102F4000010109B101200EE00749C96801F004013F
:102F500009B1022007E00449C96801F0100109B174
:102F6000032000E00420704700200240034800696D
:102F700040F08000014908617047000000200240D5
:102F800078B506460C46042500200090E80200F0C3
:102F900039F80546042D24D11348006940F001009A
:102FA000114908613480E80200F02CF80546042D30
:102FB00010D1B01C0090200C00990880E80200F0AD
:102FC00021F805460848006941F6FE7108400649A7
:102FD000086106E00448006941F6FE7108400249B4
:102FE0000861284678BD00000020024002480349DD
:102FF000486003484860704723016745002002404D
:10300000AB89EFCD00B502460423FFF795FF0346D9
:1030100003E0FFF791FF0346521E012B01D1002A66
:10302000F7D102B90523184600BD000008B50121FB
:10303000082000F0C3FA28208DF803000120ADF825
:10304000000003208DF802006946114800F03CF8AA
:1030500010208DF803000220ADF8000003208DF849
:10306000020069460A4800F02FF80AA001F0F0FAC1
:103070000221074800F0BEF84FF4FA7001F01EF983
:103080000221034800F0B4F80AA001F0E1FA08BDFB
:10309000000C0140BFAACABCB8B4CEBB3447C4A31D
:1030A000BFE9A3ACC7EBCEF0B2D9D7F7A3A10D0A05
:1030B00000000000B8B4CEBBCAB1BCE4BDE1CAF8A0
:1030C000A3A10D0A000000002DE9F04102460025F1
:1030D0000026002000230024002791F803C00CF0F4
:1030E0000F0591F803C00CF0100CBCF1000F03D0D9
:1030F00091F802C04CEA050591F800C0BCF1000F40
:1031000031D0146800202BE04FF0010C0CFA00F3D2
:10311000B1F800C00CEA03069E4220D183004FF0B4
:103120000F0C0CFA03F7BC4305FA03FC4CEA040449
:1031300091F803C0BCF1280F06D14FF0010C0CFA36
:1031400000FCC2F814C00AE091F803C0BCF1480FBB
:1031500005D14FF0010C0CFA00FCC2F810C0401C65
:103160000828D1D31460B1F800C0BCF1FF0F34DDE2
:10317000546800202EE000F1080C4FF0010808FA16
:103180000CF3B1F800C00CEA03069E4221D1830083
:103190004FF00F0C0CFA03F7BC4305FA03FC4CEAA2
:1031A000040491F803C0BCF1280F05D100F1080C0C
:1031B00008FA0CF8C2F8148091F803C0BCF1480F6B
:1031C00007D100F1080C4FF0010808FA0CF8C2F81A
:1031D0001080401C0828CED35460BDE8F081024620
:1031E000002093680B400BB1012000E000207047E5
:1031F000416170470161704700BFFEE710B5802153
:103200000A48FFF7F5FF40210848FFF7F3FF0220C7
:1032100001F061F840210548FFF7EAFF80210348EB
:10322000FFF7E8FF022001F056F810BD000C014046
:1032300008B50121082000F0C1F9C020ADF8000058
:1032400014208DF8030003208DF80200694606481B
:10325000FFF73AFF40210448FFF7CCFF80210248E6
:10326000FFF7C8FF08BD0000000C014010B5802129
:103270000848FFF7BFFF40210648FFF7BBFF0220C9
:1032800001F029F840210348FFF7B2FF022001F0C6
:1032900022F810BD000C014070B505460026402103
:1032A0001748FFF7A5FF022001F015F88021144808
:1032B000FFF7A0FF072418E040211148FFF798FF0F
:1032C000022001F008F840210D48FFF793FF80210C
:1032D0000B48FFF784FF18B10120A0403043C6B26D
:1032E000022000F0F8FF601E44B2002CE4DA15B1B1
:1032F000FFF784FF01E0FFF7B9FF304670BD000023
:10330000000C014070B5054607241CE0402113481D
:10331000FFF76EFF0120A040284020B180210F4818
:10332000FFF768FF03E080210C48FFF761FF0220F0
:1033300000F0D1FF40210948FFF75CFF022000F0B8
:10334000CAFF601E44B2002CE0DA40210348FFF7B8
:103350004FFF80210148FFF74DFF70BD000C014079
:1033600010B540210A48FFF745FF80210848FFF7C4
:1033700041FF042000F0AFFF80210548FFF738FF30
:10338000042000F0A8FF40210148FFF731FF10BDE5
:10339000000C014010B540210A48FFF729FF8021A9
:1033A0000848FFF725FF042000F095FF402105485D
:1033B000FFF720FF80210348FFF71CFF042000F0E7
:1033C0008AFF10BD000C014010B5044600BF641E0A
:1033D000022000F080FF80211048FFF700FF08B1B5
:1033E000002CF4DA002C01DA012010BD40210B483A
:1033F000FFF700FF022000F06EFF80210748FFF773
:10340000EEFE08B10220F0E740210448FFF7F0FE8D
:10341000022000F060FF0020E7E70000000C014000
:1034200070B504462068B0F1005F0ED309492068EA
:1034300088420AD808A001F00BF92068FCF7FAFED0
:103440006568FEF7E9FFA84702E00BA001F000F96C
:1034500070BD0000FF4F002041B7D6C7F8B4FAC2D4
:10346000EB4D5350D3D0D0A7D0D4C5D0B6CFCDA834
:10347000B9FD0D0A0000000041B7D6C7F8B4FAC282
:10348000EB4D5350D3D0D0A7D0D4C5D0B6CFB2BB1C
:10349000CDA8B9FDA3ACCCF8D7AA41B7D6C7F8CA16
:1034A000A7B0DCA3A10D0A0000BFFEE77047000033
:1034B00070B5002100230F22C47804B3154C246892
:1034C00004F4E064C4F5E064210AC1F10403CA40D5
:1034D000447804FA03F184781440214309010E4C26
:1034E0000678A155047804F01F050124AC40057846
:1034F0006D11AD0005F1E025C5F8004109E0047843
:1035000004F01F050124AC40044D0678761145F8FF
:10351000264070BD0CED00E000E400E080E100E03A
:1035200002490143024A1160704700000000FA0599
:103530000CED00E00648006800F4E060054908432F
:10354000001D03490860BFF34F8F00BFFEE7000076
:103550000CED00E00000FA057047000029B1064AB2
:1035600052690243044B5A6104E0034A52698243A0
:10357000014B5A61704700000010024029B1064A11
:10358000D2690243044BDA6104E0034AD269824300
:10359000014BDA61704700000010024029B1064A71
:1035A00012690243044B1A6104E0034A1269824320
:1035B000014B1A61704700000010024029B1064A11
:1035C00092690243044B9A6104E0034A9269824380
:1035D000014B9A61704700000010024029B1064A71
:1035E000D2680243044BDA6004E0034AD2688243A3
:1035F000014BDA60704700000010024030B5002136
:103600000022002400232D4D6D6805F00C0121B12E
:10361000042905D0082923D105E0294D056022E0C1
:10362000274D05601FE0254D6D6805F47012234D90
:103630006D6805F48034022505EB92421CB9214DDA
:10364000554305600BE01D4D6D6805F400351DB157
:103650001C4D5543056002E0194D5543056002E0DD
:10366000174D056000BF00BF144D6D6805F0F001F7
:103670000909154D6B5C0568DD4045600F4D6D68AF
:1036800005F4E061090A104D6B5C4568DD4085601A
:103690000A4D6D6805F46051C90A0B4D6B5C4568B5
:1036A000DD40C560054D6D6805F44041890B074D4F
:1036B0006B5CC568B5FBF3F5056130BD00100240D9
:1036C00000127A0000093D000400002014000020D0
:1036D00000B587B0012141F20400FFF76FFF182009
:1036E0008DF81B00A020ADF8180003208DF81A00FB
:1036F00006A91C48FFF7E8FC04208DF81B004020B9
:10370000ADF8180003208DF81A0006A91548FFF738
:10371000DBFC154800F06EF80020ADF804004FF413
:103720008270ADF806000020ADF808000220ADF868
:103730000A000120ADF80C004002ADF80E00002098
:10374000ADF81000ADF812000720ADF8140001A983
:10375000054800F089F80121034800F03EF807B061
:1037600000BD0000000801400030014070B5054672
:103770000E46002405E0FF2000F006F82855601CE6
:1037800084B2B442F7DB70BD10B5044600BF02211D
:103790000A4800F05BF80128F9D12146074800F0FB
:1037A00061F800BF0121054800F050F80128F9D167
:1037B000024800F054F8C0B210BD000000300140D3
:1037C00070B505460E46002404E0285DFFF7DCFFD7
:1037D000601C84B2B442F8DB70BD21B1028842F0B3
:1037E0004002028004E002884FF6BF731A40028054
:1037F0007047000010B504461148844208D10121E9
:103800008014FFF7EBFE0021A014FFF7E7FE16E09F
:103810000C48844208D101210014FFF7BFFE0021AB
:103820002014FFF7BBFE0AE00748844207D10121BC
:10383000C013FFF7B3FE0021E013FFF7AFFE10BD8A
:103840000030014000380040003C004002460020AB
:1038500013890B400BB1012000E0002070470146A6
:10386000888970478181704710B50022028802F470
:1038700041520B884C8823438C882343CC882343B4
:103880000C8923434C8923438C892343CC892343CC
:103890001A430280838B4FF2FF74234083830B8A89
:1038A000038210BD70B505460E46FFF79FFB00244E
:1038B0000AE0A90201F100614FF4806202FB0410EA
:1038C000FFF714FB601C84B2B442F2DBFFF74EFB3F
:1038D00070BD70B506460C461546FFF787FB06E03F
:1038E00030462168FFF74CFB2D1F361D241D002D8F
:1038F000F6D1FFF73BFB70BD704710B500F002F842
:1039000010BD00000CB50020019000903348006805
:1039100040F480303149086000BF3048006800F44E
:10392000003000900198401C0190009818B901984F
:10393000B0F5A06FF1D12948006800F4003010B153
:103940000120009001E0002000900098012843D160
:103950002348006840F010002149086008460068CC
:1039600020F0030008600846006840F0020008608C
:103970001A48406819494860084640684860084647
:10398000406840F4806048600846406820F47C103D
:1039900048600846406840F4E810486008460068FF
:1039A00040F08070086000BF0C48006800F00070B4
:1039B0000028F9D00948406820F003000749486012
:1039C0000846406840F00200486000BF0348406875
:1039D00000F00C000828F9D10CBD000000100240D6
:1039E00000200240042808D14FF0E021096941F08D
:1039F00004014FF0E022116107E04FF0E021096976
:103A000021F004014FF0E02211617047704700007F
:103A100010B51348006840F00100114908600846DD
:103A20004068104908400E494860084600680E4941
:103A300008400B4908600846006820F480200860B0
:103A40000846406820F4FE0048604FF41F0088607C
:103A5000FFF753FF4FF000600449086010BD0000FD
:103A6000001002400000FFF8FFFFF6FE08ED00E046
:103A7000002005490880081D486588654830C865EC
:103A80000248496D086070477814002078040020CF
:103A9000002005490880081D486588654830C865CC
:103AA0000248496D08607047D8240020D8140020CF
:103AB00070B505460C46072C0AD1072205A12846F9
:103AC000FCF7B2FC20B905A000F0C2FDFEF7D8FC5F
:103AD00070BD00000D0A5244590D0A003447C4A3BA
:103AE000BFE9B8B4CEBBB3C9B9A6A3A10D0A000003
:103AF00000B58BB040F22441344800F020FA002891
:103B000062D01021314800F00DFA304800F0D2FAAE
:103B10002F48FFF767F940F20111081A2D4909886B
:103B200008442C49088008460088401E2A49084459
:103B30002849496D48602748406D08302549486547
:103B40000846406DC96D884203D12248001D011FFF
:103B5000486520480088C0F50060FF2807DD1D4843
:103B600000881D4908441B49496D086006E01A4851
:103B70001849496D08600020164908800021144842
:103B8000FFF77EF81148001D00901248406D006854
:103B900001900020029040F2011003900020049058
:103BA0008020059000200690079008904FF4005068
:103BB000099000200A9069460548FFF717F901218E
:103BC0000348FFF75DF800BF0BB000BD00380140AF
:103BD00058000240781400207804002010B586B008
:103BE00004464FF4A060FFF79BFC012144F204005F
:103BF000FFF7E4FC18208DF817004FF40070ADF8C3
:103C0000140003208DF8160005A92448FFF75CFA7C
:103C100004208DF817000002ADF8140003208DF881
:103C2000160005A91D48FFF74FFA1D4800F02CF9B2
:103C300001940020ADF810000C20ADF80E0000201B
:103C4000ADF80C00ADF80A00ADF8080001A9144861
:103C500000F0C4F9012240F22441114800F099F922
:103C6000012240210E4800F005F925208DF80000C2
:103C700001208DF8030000208DF801008DF802006E
:103C80006846FFF715FCFFF7F3FEFFF7CDF80121BB
:103C9000034800F0E3F806B010BD00000008014042
:103CA0000038014000B58BB040F22441344800F0A8
:103CB00046F9002862D01021314800F033F930482D
:103CC00000F0F8F92F48FFF78DF840F20111081ABB
:103CD0002D49098808442C49088008460088401E60
:103CE0002A4908442849496D48602748406D0830F2
:103CF000254948650846406DC96D884203D1224870
:103D0000001D011F486520480088C0F50060FF289D
:103D100007DD1D4800881D4908441B49496D08609E
:103D200006E01A481849496D0860002016490880C5
:103D300000211448FEF7A4FF1148001D009012480E
:103D4000406D006801900020029040F20110039045
:103D50000020049080200590002006900790089095
:103D60004FF40050099000200A9069460548FFF77B
:103D70003DF801210348FEF783FF00BF0BB000BDF3
:103D80000048004030000240D8240020D814002011
:103D900010B586B004464FF4A060FFF7C1FB0121C7
:103DA0000820FFF70BFC01218804FFF7E7FB182030
:103DB0008DF817004FF48060ADF8140003208DF8E3
:103DC000160005A92348FFF77FF904208DF8170096
:103DD0004002ADF8140003208DF8160005A91D4817
:103DE000FFF772F91C4800F04FF801940020ADF87D
:103DF00010000C20ADF80E000020ADF80C00ADF85E
:103E00000A00ADF8080001A9134800F0E7F8012204
:103E100040F22441104800F0BCF8012240210E4835
:103E200000F028F827208DF8000001208DF803000D
:103E300000208DF801008DF802006846FFF738FB7E
:103E4000FFF726FEFFF720F80121034800F006F8EF
:103E500006B010BD000C01400048004021B182892D
:103E600042F40052828104E082894DF6FF731A40C9
:103E7000828170471AB1838A0B43838202E0838A6E
:103E80008B4383827047000010B50446204884426B
:103E900009D101218803FFF7A1FB00214FF48040E5
:103EA000FFF79CFB32E01B48844209D10121480402
:103EB000FFF774FB00214FF40030FFF76FFB25E0A4
:103EC0001548844209D101218804FFF767FB0021CE
:103ED0004FF48020FFF762FB18E01048844209D1BC
:103EE0000121C804FFF75AFB00214FF40020FFF71F
:103EF00055FB0BE00A48844208D101210805FFF771
:103F00004DFB00214FF48010FFF748FB10BD00006F
:103F1000003801400044004000480040004C004090
:103F20000050004002460020B1F5007F00D100BFE4
:103F300013880B400BB1012000E00020704770B5E2
:103F40000246002400230025002040F66A16B142F4
:103F500000D100BFC1F3421501F01F03012606FA8C
:103F600003F3012D02D19689334006E0022D02D1E0
:103F7000168A334001E0968A33400C12012606FA75
:103F800004F41688344013B10CB1012000E0002085
:103F900070BDF0B50346002400260025002040F641
:103FA0006A17B94200D100BF1846C1F3421401F0AC
:103FB0001F06012707FA06F5012C01D10C3004E099
:103FC000022C01D1103000E014301AB107682F43E1
:103FD000076002E00768AF430760F0BD2DE9F047D6
:103FE00086B005460E460024A24600BFA146002723
:103FF000B08900B100BF2F462C8A4CF6FF700440F8
:10400000F08804432C82AC894EF6F3100440B0884B
:1040100031890843718908430443AC81AC8A4FF667
:10402000FF400440B0890443AC8201A8FFF7E6FAE0
:104030001F48874202D1DDF810A001E0DDF80CA096
:10404000A88900F4004040B10AEBCA0000EB0A1056
:1040500031684900B0FBF1F807E00AEBCA0000EB59
:104060000A1031688900B0FBF1F86420B8FBF0F069
:1040700004012009642101FB1089A88900F4004093
:1040800040B1322000EBC900B0FBF1F000F00700B6
:10409000044308E0322000EB09106421B0FBF1F08A
:1040A00000F00F0004432C8106B0BDE8F08700004B
:1040B0000038014001468888C0F308007047C1F30A
:1040C00008028280704700BFFEE7000038B5044652
:1040D000D8208DF80000A0B28DF801002004000A5D
:1040E0008DF802002004C0B28DF8030000F07CF8C7
:1040F00000F092F810210748FFF77AF8042168468B
:10410000FFF75EFB10210348FFF774F800F06CF82E
:1041100038BD00000008014008B501210420FFF768
:104120004DFA10208DF80300ADF8000003208DF843
:10413000020069460448FEF7C7FF10210248FFF756
:1041400059F8FFF7C5FA08BD0008014038B5054623
:104150000C4602208DF80000C4F30F208DF80100FA
:1041600024F07F408DF802002002C0B28DF80300D9
:1041700000F03AF800F050F810210848FFF738F83E
:1041800004216846FFF71CFB4FF480712846FFF7B7
:1041900017FB10210148FFF72DF838BD000801403A
:1041A00070B506460C46154600F01EF810210D4865
:1041B000FFF71EF80320FFF7E7FAC4F30740FFF705
:1041C000E3FAC4F30720FFF7DFFAE0B2FFF7DCFA07
:1041D000A9B23046FFF7CAFA10210248FFF70AF8E1
:1041E00070BD00000008014010B500BF1021094853
:1041F000FEF7FEFF0520FFF7C7FAFF20FFF7C4FA1E
:10420000044610210348FEF7F5FF04F001000028E2
:10421000ECD110BD0008014010B5FFF7E5FF1021FB
:104220000548FEF7E5FF0620FFF7AEFA1021024829
:10423000FEF7E0FF10BD00000008014030B5024667
:10424000002041F2210416E0137880EA03200023C5
:104250000CE000F4004525B94FF6FF7505EA400073
:1042600002E084EA4005A8B25D1CEBB2082BF0DB4B
:10427000521C4B1E99B20029E6D130BD490050EACC
:10428000C12018BF04204A0D18BF40F0010040F2C1
:10429000FF72B2EB515F08BF40F00200012808BF77
:1042A0000520704730380A2801D2012070470020CD
:1042B000704710B50420FFF795FB10BD00B503460D
:1042C00003E04FF47A7000F006F8181EA3F1010124
:1042D0008BB2F6D100BD00EBC001C9004FF0E02267
:1042E0005161002191611146096941F0010111619B
:1042F00000BF4FF0E021096901F480310029F8D0B6
:104300004FF0E021096921F001014FF0E022116135
:10431000704700004FF46120FFF760FC4FF4E1307C
:10432000FFF736FDFFF7C5FF95A000F091F999A0C2
:1043300000F0BCF9FEF77CFFFFF7EEFEFDF7CEFFC5
:10434000FEF71AF8FEF772FE18E10A20FFF7B6FF33
:104350009548806D9449496D88421BD0924A926D70
:104360009288914B9B6D1B88D21A521C91B28E4A37
:10437000926D1068FEF7FAF88B48806D08308A4914
:1043800088650846806DC96D884203D18648001D46
:10439000011F88658548806D8449496D88423BD0FE
:1043A0008248806D4068814A926D1268801A411C73
:1043B0007FA000F04DF9002408E07C48806D006883
:1043C000015D81A000F044F9601CC4B27748806DA3
:1043D00040687649896D0968401A401CA042ECDCAF
:1043E000724A926D9288714B9B6D1B88D21A521C37
:1043F00091B26E4A926D1068FFF75AFB6B48806D60
:1044000008306A4988650846806DC96D884203D1C5
:104410006648001D011F88656C48007800F00200A6
:1044200090B16B48D0F80404642806D369A000F06A
:104430000FF900206649C1F804046548D0F8040467
:10444000401C6349C1F804046048007800F0010092
:10445000002873D05E48D0F800245F4850F822103E
:104460005EA000F0F5F85A48D0F800145A4810F849
:10447000210000F00300002877D12C211420FFF741
:1044800011FA5EA000F0E4F8002413E05048B0F800
:104490000004000400EB84214FF480624C48FFF7D5
:1044A0007FFE594901EB84204A144949FFF711FA6C
:1044B000601CC4B24648D0F80014474850F82100A8
:1044C000B4EB902FE2D34248D0F80014424830F8C1
:1044D0002100C0F3090030B34FF480613C48FCF781
:1044E00033F8A3023A48B0F8000403EB004138481F
:1044F000D0F80034384830F82300C0F309023448BB
:10450000FFF74EFE41A000F0A3F83149D1F8003486
:10451000314931F82310C1F309023B4901EB8420F2
:104520002B49FFF7D6F92A48D0F8000428B9002013
:104530002949091F0860FDF7DFFE00E01EE034A0F6
:1045400000F086F86420FFF7B9FE00BF3848006825
:1045500000F4E06037490843001D35490860BFF3A7
:104560004F8F00BF00BFFEE7FFE733A000F070F8F9
:104570001648006820F0010014490860E5E60000D4
:104580000D0AB4AEBFDA31B3F5CABCBBAFB3C9B91B
:10459000A60D0A000D0AB4AEBFDA33B3F5CABCBB30
:1045A000AFB3C9B9A60D0A0078140020D8240020A2
:1045B000B1BEB4CEBDD3CADC2564D7D6BDDACAFD40
:1045C000BEDD0D0A00000000256300000000002091
:1045D00068000020430000001C000020B1BEB4CEE3
:1045E000D0E8D2AAB8FCD0C2B5C4B4F3D0A1A3BA63
:1045F0002564D7D6BDDA0D0A0000000041C7F8D205
:10460000D1B2C1B3FD0D0A00005000080D0A000030
:1046100041C7F8B8FCD0C2CDEAB3C9A3ACC2EDC95A
:10462000CFD6D8C6F4CFB5CDB3A3A10D0A000000F4
:104630000CED00E00000FA05B4FDB8FCD0C241501A
:1046400050B3A4B6C8B4EDCEF3A3A10D0A00000088
:104650000FB438B505A800901248009A0499FBF7EA
:104660000DFE0020009000240DE000BF80210E48C8
:10467000FFF758FC0128F9D10A48015D0A48FFF705
:104680001EFD601C84B20748FBF7FAFEA042ECD87E
:1046900000BF40210448FFF745FC0128F9D138BC90
:1046A0005DF814FB780C0020003801400FB438B5D9
:1046B00005A800901248009A0499FBF7DFFD00203E
:1046C000009000240DE000BF80210E48FFF72AFC77
:1046D0000128F9D10A48015D0A48FFF7F0FC601C87
:1046E00084B20748FBF7CCFEA042ECD800BF4021C3
:1046F0000448FFF717FC0128F9D138BC5DF814FB1A
:10470000D81C00200048004010B500290AD00878C5
:10471000002807D005487844FDF794F9002801D017
:10472000002010BD0248784410BD00006E0100005A
:104730006601000010B500290AD00878002807D0CB
:1047400005487844FDF77EF9002801D0002010BD0F
:104750000248784410BD00005E01000056010000D0
:10476000FCF7C4BBFCF7F8BC000000000000000030
:104770003031323334353637383941424344454697
:104780004030580030313233343536373839616291
:104790006364656640307800040000080000000093
:1047A0000000000200010000103031323334353691
:1047B000373839616263646566787000303132334E
:1047C0003435363738394142434445465850000065
:1047D00002400000000000A00000000005400000B2
:1047E000000000C8000000000C4000000000409CD9
:1047F00000000000194000000020BCBE00000000C6
:1048000034400000BFC91B8E00000004B54000000A
:10481000504BCFD06607E2CF010000006C41000092
:104820003E8251AADFEEA73401000000D942000009
:10483000DCB5A0E23A301F97FFFFFFFFB445000050
:10484000FD25A0C8E9A3C14FFFFFFFFFFF3F000008
:104850000000008000000000FF3F0000000000801A
:1048600000000000B049000800000020180000000F
:1048700028010008C849000818000020802B00000B
:10488000440100081C00000043000000F8FFFFFF87
:104890000C0000000E0000000F0000002E000000C1
:1048A0001001000043000000F8FFFFFF00404040FF
:1048B00040404040404041414141414040404040F3
:1048C000404040404040404040404040400502029F
:1048D000020202020202020202020202022020205E
:1048E00020202020202020020202020202029090BA
:1048F00090909090101010101010101010101010B8
:10490000101010101010101002020202020288880B
:104910008888888808080808080808080808080817
:1049200008080808080808080202020240000000FF
:104930000000000000000000000000000000000077
:104940000000000000000000000000000000000067
:104950000000000000000000000000000000000057
:104960000000000000000000000000000000000047
:104970000000000000000000000000000000000037
:104980000000000000000000000000000000000027
:104990000000000000000000000000000000000017
:1049A0000000000000000000000000000000000007
:1049B00000000000000000000102030401020304E3
:0849C0000607080902040608BD
:040000050800023DB0
:00000001FF
