:020000040800F2
:10500000883900204D5200081D800008B576000840
:1050100019800008EB730008E98B0008000000000D
:1050200000000000000000000000000007820008EF
:105030000975000800000000498100080982000885
:10504000675200086752000867520008675200085C
:105050006752000867520008697500086752000827
:10506000675200086752000867520008675200083C
:10507000F173000867520008675200086752000881
:10508000675200086752000867520008675200081C
:10509000675200086752000867520008675200080C
:1050A00067520008675200086752000867520008FC
:1050B00067520008675200086752000867520008EC
:1050C00067520008675200086752000867520008DC
:1050D000675200086752000867520008098B0008F1
:1050E000675200086752000867520008000000007D
:1050F00000000000000000000000000000000000B0
:105100006752000800F002F800F090F80AA090E85A
:10511000000C82448344AAF10107DA4501D100F072
:1051200085F8AFF2090EBAE80F0013F0010F18BFAF
:10513000FB1A43F001031847D84F0000F84F000056
:10514000103A24BF78C878C1FAD8520724BF30C8B3
:1051500030C144BF04680C60704700000023002485
:1051600000250026103A28BF78C1FBD8520728BF77
:1051700030C148BF0B6070476E2900F0BF847029B2
:1051800000F01786662904F05786652904F05486D6
:10519000672904F05186612904F0508603681B0AD0
:1051A00028BF41F08001692900F0C280642900F025
:1051B000BF80752900F0BC806F2900F0A485782994
:1051C00000F0E385E92900F03F85E42900F03C8503
:1051D000F52900F03985EF2900F0A185F82900F0C4
:1051E000E2850368DB0928BF41F08001632900F0F4
:1051F000C084732900F0C584E32901F00F82F329EC
:1052000001F01482002070471FB501F01BFC040060
:105210000020002104F0FAFD401C60600020002105
:1052200004F0DEFDE0601FBD10B510BD01F0DCFB39
:105230001146FFF7E9FF04F0FDF801F0B9FC03B4F3
:10524000FFF7F2FF03BC01F001FD000009488047B1
:1052500009480047FEE7FEE7FEE7FEE7FEE7FEE758
:10526000FEE7FEE7FEE7FEE704480549054A064B70
:10527000704700000D8200080551000888330020A7
:105280008839002088350020883500201CB50C4660
:10529000064B7B4469460090204600F048FC0446DB
:1052A0000020694600F056FC20461CBDBF080000E7
:1052B0000FB41CB5084B06AA7B44694600900598BC
:1052C00000F035FC04460020694600F043FC20460F
:1052D0001CBC5DF814FB00009908000070B50C467A
:1052E0000546012A05D02878800600D5EA69002302
:1052F00002E0012305E05B1C934202D2E05C00283F
:10530000F9D1A869E618C01AA861286A1844286269
:10531000284600F061FB04E0D5E9012114F8010BF7
:105320009047B442F8D3284600F06CFB70BD0000F3
:105330002DE9F0410646002410687529314616A56E
:1053400010D000F070FB002802DA404213A507E0FD
:1053500031688A0701D512A502E0490704D511A5D5
:10536000012401E000F068FB00210A2206F1240775
:1053700009E0B0FBF2FCB0FBF2F302FB1C003030A2
:1053800078541846491C0028F3D123462A46304653
:10539000BDE8F04100F059BB000000002D00000006
:1053A0002B000000200000002DE9F05F8946044634
:1053B0004FF0000ADFF874B1FB44C0F820A020468B
:1053C000E1688847002874D0252806D0D4E9012157
:1053D0009047206A401C2062F1E700265F46204685
:1053E000E16888472028054607DB312D05D278196A
:1053F00010F8200C08B10643F1E7B00701D526F0FC
:105400000406C4F81CA00027C4F818A02A2D09D04F
:10541000284603F015FD38B304EB8708303DC8F883
:10542000185019E059F8041B204604EB87029161DB
:10543000E1688847012F054618D1E069002820DA85
:1054400026F020061DE0D8F8180000EB800005EBE0
:1054500040003038C8F818002046E1688847054603
:1054600003F0EEFC0028EED1012F0AD02E2D08D13A
:105470002046E16888477F1C0546022F46F020063B
:10548000C4DBA069002803DA404246F00106A061AF
:10549000F00701D026F010066C2D0BD0682D09D036
:1054A0004C2D39D06A2D35D0742D35D07A2D33D08E
:1054B00016E038E0E1682F4620468847B8420546A6
:1054C00009D16C2F26D04FF48060E1680643204656
:1054D0008847054604E06C2F1AD04FF480700643CD
:1054E0000DB3A5F14100192802D8203546F4006615
:1054F0004A462946204626604E46FFF73DFE80B1CB
:1055000001280BD0F61D26F0070000F1080956E728
:105510004020E4E78020D8E70020D6E706F1040920
:105520004DE7284652E7206ABDE8F09F844A000014
:105530000FB400B58DB010A9099000910B904FF0F9
:10554000FF300A9000200C900648784406900648E8
:1055500078446A4607900F9909A800F049FC0DB0FD
:105560005DF814FBC3080000DB0800002DE9FF5FB5
:105570001D464FF0FF3B91464FF000085F46D5E9CE
:105580000146A96901987F1C8847296A8246884795
:105590000028F6D1BAF1FF3F0CD0002E24F4C064ED
:1055A00019DD600614D5BAF12B0F09D0BAF12D0F11
:1055B0000ED103E0584604B0BDE8F09F44F4806487
:1055C000A96901987F1C8847761E8246002E02DD5D
:1055D000BAF1300F03D0B9F1000F26D032E0A9693B
:1055E000761E01987F1C44F400748847002E824682
:1055F00005DDBAF1780F06D0BAF1580F03D0B9F132
:10560000000F10D01EE0B9F1000F02D0B9F1100F59
:1056100018D1A969761E01987F1C24F4007488476C
:105620008246102002E0082000E00A20814609E0BE
:10563000A96908FB0908761E01987F1C44F40074D0
:1056400088478246002E05DD4946504600F0BCFBE7
:105650000028EDDAE96901988847A00502D46FF0C7
:105660000100A8E7E00725D1600613D5600502D543
:10567000C8F1000000E0404629680A1D2A60096858
:10568000220501D5087015E0220701D5088011E038
:1056900008600FE02868011D29600068210502D517
:1056A00080F8008006E0210702D5A0F8008001E024
:1056B000C0F8008038467EE72DE9FF5F4FF0000814
:1056C0009946144646469169D2E901A7DDF838B0FB
:1056D00001988847054659EA0B0005D009E0A16901
:1056E0000198761C88470546216A28468847002885
:1056F000F5D1681C03D05FEACA7005D015E04FF001
:10570000FF3004B0BDE8F09F2068011D2160D0F893
:1057100000800AE05FEACA7001D108F8015BA16964
:10572000761C01987F1E88470546002F1ADD681CED
:1057300018D0B9F1000F0DD0E81705EBD060421179
:1057400020F01F0059F822102A1A0120904001422F
:10575000E0D107E0BBF1000FDCD12846216A884781
:105760000028D7D0E16901988847BBF1000F07D125
:10577000002E05DD5FEACA7002D1002188F8001012
:10578000A068B84203DDBBF1000F03D017B16FF082
:105790000100B6E73046B4E730B505460B462A4669
:1057A00013F8014B12F8010B08B1A042F8D01CB15C
:1057B000002802D06D1CF1E7284630BD40EA010305
:1057C00010B59B070FD1042A0DD310C808C9121FAA
:1057D0009C42F8D020BA19BA884201D9012010BDE4
:1057E0004FF0FF3010BD1AB1D30703D0521C07E0B1
:1057F000002010BD10F8013B11F8014B1B1B07D115
:1058000010F8013B11F8014B1B1B01D1921EF1D185
:10581000184610BD10B5431C02E010F8011B71B111
:105820008107FAD14FF0013202C88C1A8C4314EA76
:10583000C211F9D0C01A0A0603D0C01E10BDC01A8A
:1058400010BD0A0401D0801E10BD0902FCD0401E0C
:1058500010BD032A40F2308010F0030C00F01580D8
:1058600011F8013BBCF1020F624498BF11F801CB63
:1058700000F8013B38BF11F8013BA2F1040298BFC8
:1058800000F801CB38BF00F8013B11F0030300F032
:105890002580083AC0F0088051F8043B083A51F8D6
:1058A00004CBA0E80810F5E7121D5CBF51F8043BDB
:1058B00040F8043BAFF30080D20724BF11F8013B4E
:1058C00011F801CB48BF11F8012B24BF00F8013BB0
:1058D00000F801CB48BF00F8012B704710B5203A03
:1058E000C0F00B80B1E81850203AA0E81850B1E899
:1058F0001850A0E81850BFF4F5AF5FEA027C24BF4F
:10590000B1E81850A0E8185044BF18C918C0BDE845
:1059100010405FEA827C24BF51F8043B40F8043B0E
:1059200008BF7047D20728BF31F8023B48BF11F8C3
:10593000012B28BF20F8023B48BF00F8012B70471D
:105940004FF000020429C0F0128010F0030C00F0A8
:105950001B80CCF1040CBCF1020F18BF00F8012B26
:10596000A8BF20F8022BA1EB0C0100F00DB85FEAF4
:10597000C17C24BF00F8012B00F8012B48BF00F8C0
:10598000012B70474FF0000200B51346944696462F
:10599000203922BFA0E80C50A0E80C50B1F1200142
:1059A000BFF4F7AF090728BFA0E80C5048BF0CC0F0
:1059B0005DF804EB890028BF40F8042B08BF70474E
:1059C00048BF20F8022B11F0804F18BF00F8012BC0
:1059D000704770477047704770B504468569006826
:1059E000C10601D5302600E02026C00707D070BDD3
:1059F000D4E9012130469047206A401C20626D1E88
:105A0000F6D570BD70B5044685690078C00707D12A
:105A100070BDD4E9012120209047206A401C2062FB
:105A20006D1EF6D570BD09684A0501D540B27047B4
:105A3000C905FCD500B2704709684A0501D5C0B256
:105A40007047C905FCD580B270472DE9F0470D4677
:105A500099469246044600F124080168880604D558
:105A6000E06921F01001216000E00120A84201DD81
:105A7000471B00E00027A1697A1902EB0900081A08
:105A8000A0612078C00602D42046FFF7A5FF0026BB
:105A900008E0D4E901211AF806009047206A401C6A
:105AA000761C20624E45F4DB2078C0060AD52046DD
:105AB000FFF792FF06E0D4E9012130209047206AE9
:105AC000401C2062381EA7F10107F4DC07E0D4E98E
:105AD000012118F805009047206A401C2062281E0A
:105AE000A5F10105F3DC2046FFF78CFF20780006C6
:105AF00002D50220BDE8F0870120FBE711680268AB
:105B0000006A530501D508700AE0D30501D5088065
:105B100006E0130603D5C217C1E9000200E00860E1
:105B20000120704701694A1C02610878704700B57E
:105B30008FB0CDE901310021059105497944CDE9C6
:105B4000031011466846FFF72FFC0FB000BD0000A0
:105B5000E5FFFFFF0A6802F8010B0A60704710B505
:105B6000436913B1AFF3008001E0FFF7B7FB0120F9
:105B700010BD127800F124010A7000224A7001223F
:105B8000EDE711684FF0FF32E9E700002DE9FF5F14
:105B900015468A460446DFF8AC80F8440027D8E969
:105BA00000103E46CDE9001010E03AF816106A46A3
:105BB00002A800F0F9FE411C07D02178890603D520
:105BC000E269391891420DD80744761C2078800686
:105BD00002D5E069B84205DDAE42E6DB3AF81600D0
:105BE0000028E2D1A069C01BA0612046FFF7F4FEA7
:105BF000D8E90010CDE90010002017E03AF818109D
:105C00006A4602A800F0D0FEB0F1FF3F81460BD0FB
:105C100000250DF1080B05E0D4E901211BF8050072
:105C200090476D1C4D45F7D308F10100B042804606
:105C3000E4DB206A384420622046FFF7E3FEBDE83B
:105C4000FF9F0000B64200002DE9F0418046D21DC2
:105C500022F007020025D2E90002F52915A614D08A
:105C6000011E72F1000106DA0023D0EB030063EBA2
:105C7000020211A608E0D8F800108B0701D50FA684
:105C800002E0490701D50EA601251146002408F1BE
:105C9000240704E000F0DCF830323A55641C50EA86
:105CA0000102F7D12B46324621464046BDE8F0417D
:105CB000FFF7CBBE000000002D0000002B0000000D
:105CC0002000000030B4002100F1240408E002F0BC
:105CD0000705D208303542EA4372DB086554491C97
:105CE00052EA0305F3D10468002310A2250707D563
:105CF000A40600D421B1C46901230DA2641EC461AD
:105D000030BCFFF7A2BE10B5044621461068FFF76D
:105D100093FE02462046BDE810400023D2E7D21D84
:105D200022F00701D1E90023CCE7000000000000C9
:105D300030000000F0B40D460188090502D5214C61
:105D40007C4402E01F4C7C440E34002100F1240608
:105D500008E002F00F071209E75D42EA03721B092F
:105D60007754491C52EA0307F3D102780023120743
:105D700004D5702D06D009B1022311342246F0BC9F
:105D8000FFF763BE01231034F8E770B504460D46F3
:105D900021461068FFF750FE024629462046BDE81E
:105DA00070400023C6E7D21D22F00703D3E9002389
:105DB000C0E70368126843F0200303600823C3614F
:105DC0000023B7E7184100003A2800D2303820F00D
:105DD0002002412A01D3A2F13700884201D34FF0BB
:105DE000FF3070470268114413780160184670470D
:105DF000D160054979445161044979441162002117
:105E00001161114600F016BCEDFFFFFFDD00000040
:105E1000426842B1016811F8013B23B1521EC0E94A
:105E20000012184670470121C160881E7047426801
:105E30005AB1C368016843B983688B4205D0491ED3
:105E4000521CC0E90012002070474FF0FF3070472D
:105E500030B5B0F10A024FEA900E71F100034EEA3C
:105E6000817EB0EB0E0061EB91014FEA101E4EEA0D
:105E7000017E10EB0E0041EB11114FEA102E4EEA9D
:105E8000016E10EB0E0041EB11214FEA104E4EEA6D
:105E9000014E10EB0E0041EB1141401841F10001A1
:105EA0004FEAD00040EA41704FEAD10110EB800583
:105EB0004FEA810444EA907444EB01046D1944EB09
:105EC0000404521BA3414FF0000348BF0A3200D51F
:105ED00030BD401C41F1000130BD10B5044600F05A
:105EE000A9FD0068005D00F0010010BD70472DE9BC
:105EF000FF4F0C461E464FF0FF378BB0D2E9000132
:105F0000DDF860800A908A46C1F30A5505B93D461E
:105F1000002108464FF00000BAF1000F00F44000E5
:105F200005DA00EB80004FF4400101EA50004FEA2F
:105F30009059B9F1010F00DDB9460A9850EA4A00BC
:105F40000ED044F61050A5F2FF3545432F14B8F19A
:105F5000000F1ED07542291E1EDDC9F100021CE093
:105F6000B8F1010F4FF0000001D0302103E0F243FF
:105F700005E02154401CB042FBDB304600220021EA
:105F800021540B99C1F80880C1E900200FB0BDE889
:105F9000F08FBD1B6D1CDEE74A4600DA694206A899
:105FA00000F094FD06AB93E8070003AB83E807001D
:105FB00050460A9900F051FE8DE80700A0F5005008
:105FC0001F3800900398002D0ADD42F21F014A4657
:105FD0000844002303A90390684601F0BAF809E0D9
:105FE000A0F500504A461F38002303A903906846D5
:105FF00001F0C4F88DE807000004000C03D04FF056
:10600000FF30410800E01046B8F1000F03D0002235
:10601000009215461EE0751E05D4FFF719FF3032B9
:1060200062556D1EF9D5B3460122084302D0002205
:106030007F1C04E02078302801D100227F1E002A36
:10604000099784D01DE0112D07DAFFF701FF3032E8
:1060500062556D1C50EA0102F5D1084302D0009848
:10606000C8B10EE00021681E05E0235C625C635449
:106070002254401E491C8142F7DBAB46A81B401E40
:106080000990002004F80B000B98099AC0F80880CA
:10609000C0E9002B7AE711264FF0000857E72DE9F9
:1060A000F04F88460446D21D22F0070191B0D1E995
:1060B0000001CDE90A0102F0AFFE02460B98C00FC5
:1060C00001D02D2007E02068810701D52B2002E0B8
:1060D000202101EAC000032A099001D0072A05DB2C
:1060E00003464146204600F0B1FC0BE120788006D3
:1060F00001D5E06900E00620B8F1650F814606D0C1
:10610000B8F1660F18D0B8F1670F70D131E00020F8
:10611000B9F1110F009001DB112301E009F1010336
:106120000AAA01A90CA8FFF7E2FEDDE90C7000261F
:1061300009F10105834647E001204B4600904FF0EE
:1061400000470AAA01A90CA8FFF7D1FEDDE90DB0AE
:106150000C995D46002610B909F101000D18B9EB44
:10616000050003D4C0F1FF3609F10105A5EB0900D4
:106170002BE0B9F1010F01DA4FF001090020B9F16C
:10618000110F0090484601DD112300E003460AAAE2
:1061900001A90CA8FFF7ABFEDDE90C704D46002607
:1061A0008346207800070AD4AB4500DA5D4601A893
:1061B000012D04DD411911F8011C302907D04F458C
:1061C00002DA17F1040F04DA012082460FE06D1E97
:1061D000EEE7002F02DCED1B3E4403E0781CA842F2
:1061E00000DD7D1CB81B00F1010A4FF0004720784C
:1061F000000703D4AA4501DB4FF0FF3A0021B7F1B5
:10620000004F0DF143088DF8431024D002202B23BA
:10621000002F01DA7F422D230A21021EA0F1010086
:1062200000DC5FB197FBF1FC97FBF1F201FB1C7CFA
:1062300017460CF1300C08F801CDEEE7A8F101008B
:1062400003702188090501D5452100E06521A0F1F1
:10625000010800F8011C09980FA9A1EB0807FF1D10
:1062600000B10120411901EBEA70A1693844081A14
:10627000401EA0612078C00602D42046FFF7ACFB88
:10628000099828B1D4E901219047206A401C206276
:106290002078C00622D52046FFF79EFB1EE0002E88
:1062A00004DBB34502DD01A8805D00E03020D4E9C5
:1062B00001219047206A401C2062761CAAF101004F
:1062C0005FEA000A0AD100F0BDFBC0680168405CCB
:1062D000D4E901219047206A401C2062281EA5F1C4
:1062E0000105DCDC07E0D4E9012118F8010B904737
:1062F000206A401C2062381EA7F10107F3DC20460B
:10630000FFF780FB032011B041E600002DE9F04FBC
:1063100004460D46D21D22F0070089B0D0E900974F
:106320004846394602F078FD0246F80F01D02D2389
:1063300007E02068810701D52B2302E0202101EA34
:10634000C0038DF820300BB1012000E00020032AAB
:10635000824601D0072A04DB2946204600F076FB5E
:106360003FE12078800601D40D2500E0E569C7F300
:106370000A560D2D49DA00214FEA175B08464FF007
:106380000000002F00F4400007DA00EB80004FF41B
:10639000400100EBD07001EA60008115012901DDA8
:1063A0004FF0FF3100224FEA850CBCF1180F06D3E5
:1063B0001346ACF118004FF08052C24003E04FF496
:1063C000801323FA0CF30CF10C0CBCF1200F04D356
:1063D000ACF1200C09FA0CF001E007FA0CF00029EE
:1063E0004FF0004801DD18B90FE00ED140450CD345
:1063F00019EB02095F4121B9404502D19F4329EAC7
:106400000209BBEB175F00D0761C2088000502D57F
:106410007B48784402E07A487844193808AA302347
:1064200002F80A30037C0AF10101002E0AF1020A87
:1064300053546A4602DC4FF0300101E04FF0310165
:106440004FF001088DF8001002D0A6F2FF3603E0ED
:1064500059EA470100D06B4E002D02DC2178090774
:1064600004D54FF002082E218DF80110C4460021FA
:106470000BE0C7F303433F01C35C491C6D1E02F8E8
:106480000830052908F1010801DA002DF1DC0021AE
:106490000CE000EB1973491C1B786D1E082902F8EB
:1064A00008304FEA091908F1010801DA002DF0DC83
:1064B00021688B0602D516E0A8F10108E04505DD4C
:1064C00002EB080313F8013C302BF5D0B8F1000FB4
:1064D00009DD02EB080313F8013C2E2B03D1090759
:1064E00001D4A8F10108002D05DD3E2102F80810B5
:1064F0006D1E08F10108407C002E02F8080008F12A
:10650000010804DA2D20764202F8080002E02B2070
:1065100002F808000A214FF47A70864208F1010857
:106520000BDB96FBF0F3303302F8083096FBF0F308
:1065300008F1010800FB136601E0642E0CDB642007
:1065400096FBF0F3303302F8083096FBF0F308F1D5
:10655000010800FB136601E00A2E06DB96FBF1F052
:10656000303002F8080008F1010896FBF1F001FB59
:106570001060303002F80800A16908F1010808EB4A
:10658000050202EB0A00081AA0612078C00602D4B6
:106590002046FFF721FA216A08AE01EB0A002062CB
:1065A00004E0D4E9012116F8010B9047BAF1010A81
:1065B000F7D22078C00602D52046FFF70DFA6E46C6
:1065C00009E016F8010B3E280FD0D4E901219047CD
:1065D000206A401C2062B8F10108F2D22046FFF781
:1065E00011FA09B00320BDE8F08F206A2844206228
:1065F00003E0D4E90121302090476D1EEBD3F8E78A
:10660000813A000002FCFFFF10B5436913B1AFF3FC
:10661000008001E0FFF7BAFA012010BD128800F1F6
:10662000240182840022C2840122EDE711684FF028
:10663000FF32E9E72DE9F34F4FF0000A0C465646CA
:106640008DB001200C9001F10C000B9062690B9849
:1066500001219047051E2DD0252D2CD0216A884779
:10666000C0B162690B9801219047216A88470028D0
:10667000F7D16269411E0B98904700E0761CA16932
:106680000D988847216A88470028F7D1E1690D985D
:106690008847DBE7A1690D988847A842074601D1E2
:1066A000761CD3E7E1690D9888477F1C02D1BAF1C7
:1066B000000F6FD06BE162690B9800273D463946A9
:1066C00090472A2804D162690B980121904701253F
:1066D000DFF8D08262690B9801219047A0F1300168
:1066E0000A290AD24745E5DC07EB870100EB4107A1
:1066F000303FDFD445F01005ECE7E90601D46FF038
:1067000000476C280AD04C2814D0682815D06A2875
:106710000DD074281CD07A281AD01DE062690B981D
:10672000012190476C2802D045F0040514E045F0A3
:1067300002050DE045F020050AE062690B98012191
:106740009047682802D045F0080505E045F400654B
:1067500062690B9801219047C4E9015765283DD033
:1067600019DC58287AD00CDC452837D004DC2528E1
:1067700026D041289ED131E046282FD0472899D1F4
:106780002CE05B2877D0612828D063287CD064284F
:1067900023D15AE0F6E06F2848D008DC66281DD0E7
:1067A00067281BD0692821D06E2816D127E07028D1
:1067B00045D0732868D0752847D078280DD14DE092
:1067C000A1690D988847252805463FF469AFE1691E
:1067D0000D9888476D1C3FF46AAFD8E00D992346A9
:1067E0006A466FF00100AFF30080C5E045F040005D
:1067F00023464FF000026060A80736D43EE0E80769
:106800007FF447AF2068011D21600068290501D58C
:1068100006701BE7290701D5068017E7A90703D5EE
:10682000F117C0E9006111E706600FE745F040008D
:1068300023464FF008026060A80716D41EE040F619
:106840000E0125EA0100606016E045F04000234695
:106850004FF00A026060A80707D40FE045F040003F
:106860006060A80708D5234610220D996FF001003B
:10687000AFF3008080E007E0102223460D996FF00F
:106880000100FEF773FE77E04FF0000963284F46E2
:10689000C8464B46CB4602D05B2806D038E0E80617
:1068A00001D40120A060012732E06269D4F80CB065
:1068B0000B98012190475E2807D14FF00109494606
:1068C0006269D4F80CB00B989047216939B900215E
:1068D0000A4603AB43F82120491C0829FADBD8B348
:1068E000216949B308F1010862690B9801219047B9
:1068F0005D28F4D1B9F1000F09D0002003A951F8A7
:106900002020D24341F82020401C0828F7DB03ABAD
:106910002069002820794FEA40701ED05B4622464D
:10692000CDF80080CDE901970D9900286FF00100A6
:1069300020DAAFF300801FE0C11703AA00EBD1619A
:106940004B1121F01F0102EB8302411A1368012051
:10695000884003431360C7E719E00D9922460028D9
:106960006FF00100009702DAAFF3008004E0FEF759
:10697000A3FE01E0AFF3008000280ADA401C06D134
:106980000C9820B14FF0FF300FB0BDE8F08F5046AB
:10699000FAE7E90701D10AF1010A064400200C9048
:1069A00054E60000CCCCCC0C70B516460C4605461F
:1069B00000F040F8036893F80101012806D0FF2C8D
:1069C0000FD8185D68B101202C7070BDD3F8070195
:1069D0003246214603F2071303442846BDE87040BF
:1069E00018474FF0FF3070BD754600F0EBF8AE462B
:1069F00005006946534620F00700854618B020B5CB
:106A0000FEF732FCBDE820404FF000064FF00007D3
:106A10004FF000084FF0000B21F00701AC46ACE846
:106A2000C009ACE8C009ACE8C009ACE8C0098D46B3
:106A30007047000010B500F005F8001D10BD00BF44
:106A4000CD33000000487047483300202DE9F04165
:106A50001F46044603260168072A01F4006004DB90
:106A600008B116A505E016A503E008B115A500E0DC
:106A700015A521F010002060A069C01EA0610FB113
:106A8000401EA0612046FEF7A7FF4FB1D4E90121C7
:106A900038469047206A401C2062C01C206206E0F5
:106AA000206AFAE7D4E9012115F8010B9047761E18
:106AB000F8D22046FEF7A6FFBDE8F0814E414E0019
:106AC0006E616E00494E4600696E66002DE9F04722
:106AD000814616468AB0354878440DC88DE80D00C9
:106AE00032487844801C03AC0DC884E80D0041F6A0
:106AF0009B300844372190FBF1F290FBF1F5A5F1B2
:106B0000800501FB12041B3C02D56442012000E019
:106B10000020DFF898A080460027FA44AAF1BE0AB8
:106B20000EE0E0070AD03246684607EB4701012332
:106B30000AEB810100F022FB8DE8070064107F1C46
:106B4000002CEED1194F7F44AE3F19E0E80715D075
:106B500007EB04100DF1180A90E80E008AE80E0009
:106B6000C068F04201D1981908903246012306A965
:106B700003A800F003FB03AB83E807006D10641C5F
:106B8000002DE3D14FF0010332466946B8F1000F02
:106B900003A802D000F0DDFA01E000F0EFFAC9E945
:106BA0000001C9F808200AB0BDE8F0874C340000A5
:106BB00010B50446AFF300802046BDE81040FEF754
:106BC0003EBB000000487047283300204FF0013CD6
:106BD00050F8042B51F8043B9A4221D1A2EB0C034C
:106BE000934313EACC1317D150F8042B51F8043B0C
:106BF0009A4215D1A2EB0C03934313EACC130BD1A9
:106C000050F8042B51F8043B9A4209D1A2EB0C0333
:106C1000934313EACC13DBD04FF00000704700BF62
:106C2000D01A01BAB1FA81F101F0180122FA01F08B
:106C3000CB40C1F12001DBB2C0B2C01A2CFA01F383
:106C4000D11A914311EAC311E6D1704701491820C6
:106C5000ABBEFEE72600020070475FEA400C08BFAB
:106C600091F0000F4FEA8C234FEAC12243EA5151C1
:106C70004FEA1C5018BF00F5F0404FEA300018BF33
:106C800041F000415FEA6C5C00F02980BCF1FF3FFD
:106C900008BF40F080407047130C06BF12044FF04D
:106CA000100C4FF0000C130E04BF12020CF1080C74
:106CB000130F04BF12010CF1040C930F04BF9200D8
:106CC0000CF1020CD30F04BF52000CF1010C114661
:106CD0004FF00002A0F11F00A0EB0C00704711F074
:106CE000004F08BF704731F000413FF4D5AF0B0CA7
:106CF00006BF09044FF0100C4FF0000C0B0E04BF40
:106D000009020CF1080C0B0F04BF09010CF1040C73
:106D10008B0F04BF89000CF1020CCB0F04BF49009C
:106D20000CF1010CCCF12003A0EB0C0022FA03F3D0
:106D300002FA0CF241EA030100F10100704720F071
:106D40007F4C80EA030023F07F47ACEB070303F599
:106D50007C5300F0004003F1FF032DE980494FEA26
:106D6000154B09B44FEA144325EA0B4E24EA0348B5
:106D70000FF2042606EB132749083E785FEA320239
:106D800003FB0667C7F5000707FB06F64FEA543713
:106D90004FEAD64606F1020607FB066CCCF1005C12
:106DA0004FEA1C472CEA074C07FB06F40CFB06F5E0
:106DB00004EB15464FEA961634BF00204FF0004012
:106DC0004FEAD13706FB07FC4FEA1C4C0CFB0BF7D4
:106DD000D21B03FB0CF761EB07010CFB0EF7B0EBCA
:106DE000074072EB17420CFB08F734BFA2EB0742D7
:106DF000B2EB074261EB17414FEA0C444FEA9107AF
:106E000006FB07FC4FEA1C4C0CFB0BF7B0EBC74032
:106E100072EB573203FB0CF734BFA2EBC742B2EB65
:106E2000C74261EB57310CFB0EF7B0EBC70072EBBA
:106E300057720CFB08F734BFA2EBC702B2EBC702D4
:106E400061EB5771039F4FEA816141EA921104EBB4
:106E5000CC044FEAD1374FEA826206FB07FC42EAD4
:106E600090124FEA80604FEA1C4C0CFB0BF7D21BD0
:106E700003FB0CF761EB07010CFB0EF7B0EB0740CF
:106E800072EB17420CFB08F734BFA2EB0742B2EBE0
:106E9000074261EB17414FEA8C554FEA910704EB2B
:106EA0009C2406FB07FC4FEA1C4C0CFB0BF7B0EBD9
:106EB000C74072EB573203FB0CF734BFA2EBC7425B
:106EC000B2EBC74261EB57310CFB0EF7B0EBC700DA
:106ED00072EB57720CFB08F734BFA2EBC702B2EBA0
:106EE000C70261EB577115EB4C254FEA816141EA0E
:106EF00092114FEA82624FEAD13742EA901206FBC2
:106F000007FC44F100044FEA80604FEA1C4C0CFB84
:106F10000BF7D21B03FB0CF761EB07010CFB0EF721
:106F2000B0EB074072EB17420CFB08F734BFA2EB43
:106F30000742B2EB074261EB174115EB1C154FEA14
:106F4000813141EA92414FEA823242EA90424FEA6D
:106F500080304FEA0C7644F1000448EA03434EEADD
:106F60000B484FF0000EB2EB080C71EB030724BF87
:106F7000624639464EEB0E0E4FF0000B00185241A0
:106F800049414BEB0B0BB2EB080C71EB03077BF1A8
:106F9000000B24BF624639464EEB0E0E4FF0000B3D
:106FA0000018524149414BEB0B0BB2EB080C71EB53
:106FB00003077BF1000B24BF624639464EEB0E0EF1
:106FC00051EA020718BF46F0010616EB0E7655F19E
:106FD000000254F1000103D5BDE88901BDE8008835
:106FE000BDE88901BDE80048B619524141EB0101F5
:106FF000A3F10103704780807F7E7D7C7B7A797866
:10700000777676757473727171706F6E6E6D6C6C6D
:107010006B6A6A696868676666656464636362610F
:107020006160605F5F5E5E5D5D5C5C5B5B5A5A5990
:1070300059585857575656555555545453535252FC
:107040005251515050504F4F4F4E4E4D4D4D4C4C54
:107050004C4B4B4B4A4A4A4949494848484747479D
:1070600047464646454545444444444343434342DA
:10707000424242414141002B9C4630D477002BD004
:107080001CB54FEA370703B44FF010004FF0100162
:10709000BAF1000F06D0BCF1000FDCBF40F00800D1
:1070A00040F008014FF000000FBCBDE810400BF1AC
:1070B000010BBBF1010F08BF5FEA170722BF12F1F6
:1070C000010211F101014FF0004143F1000300F012
:1070D000004043EA00007047F9D35708D0E746EA7A
:1070E000064613F1400F4FEA16461FDD13F1200F3D
:1070F000DFBF16430A46002120335B42BED0C3F1F6
:10710000200746EA064602FA07F74FEA164646EA1D
:107110000706C3F1200722FA03F201FA07F721FA62
:1071200003F14FF0000342EA0702A7E746EA02062E
:1071300046EA06464FEA164646EA0106BCBF46EA5C
:107140000646360C4FF000034FF000024FF00001EE
:1071500094E72DE9804C9A46934670B491E8380044
:1071600007C831EA400C48BF34EA430C03D5FFF7A7
:10717000E6FDFFF780FFF0BCBDE8008C2DE9804CF8
:107180009A46934670B491E8380007C810F0804FD3
:1071900008BF13F0804F03D100F005F8FFF76BFF35
:1071A000F0BCBDE8008C20F07F4780EA030023F0AC
:1071B0007F4C07EB0C03A3F57C5300F00040A3F1D8
:1071C000FE0392F0000F00F0B38095F0000F00F086
:1071D00077802DE901494FEA11404FEA144621EA30
:1071E000004800FB06FC24EA064708FB06F607FBFE
:1071F00008F800FB07F718EB06484CEB164C4FEA73
:10720000124B18EB07484FEA15464CEB174022EAA1
:107210000B4E0BFB06FC25EA06470EFB06F607FBAA
:107220000EFE0BFB07F71EEB064E4CEB164C4FF019
:1072300000061EEB074E4CEB174B18EB0B0840F10A
:10724000000018EB0E0B58EB000840F100008F1AFD
:107250004FF000013CBFC943661B14BFB5EB040CE3
:1072600000213CBFC943F61B4FEA17444EEA8E0E7D
:1072700027EA04454FEA1C4704FB07622CEA074C47
:1072800005FB07F70CFB05F604FB0CFC16EB0746A9
:1072900042EB174216EB0C4642EB1C421BEB060678
:1072A00058EB0202414146EA9E0601D5BDE801893C
:1072B000B619524141EB0101A3F10103BDE8018977
:1072C0004FEA14454FEA114724EA054621EA074CE4
:1072D00005FB07F406FB07F70CFB06F105FB0CFCAE
:1072E00011EB074144EB17444FEA124711EB0C41F5
:1072F00044EB1C4422EA074C05FB07F206FB07F7A8
:107300000CFB06F605FB0CFC16EB074642EB17429E
:1073100016EB0C4642EB1C456A1854F1000148BFBD
:107320007047B619524141EB0101A3F101037047C7
:1073300095F0000F37D04FEA11424FEA144721EA87
:10734000024624EA074C02FB07F106FB07F70CFB99
:1073500006F402FB0CFC14EB074441EB17414FEA27
:10736000154714EB0C4441EB1C4125EA074C02FB8A
:1073700007F506FB07F70CFB06F602FB0CFC16EB09
:10738000074645EB174516EB0C4645EB1C42121918
:1073900051F1000148BF7047B619524141EB01015C
:1073A000A3F1010370474FEA14454FEA114724EA5D
:1073B000054621EA074C05FB07F106FB07F70CFB26
:1073C00006F24FF0000605FB0CFC12EB074241EB06
:1073D000174112EB0C4251EB1C4148BF7047921809
:1073E00041EB0101A3F10103704700BFFEE700007C
:1073F00010B5022201210A4801F064FE70B1022298
:107400000121074801F056FE0121054801F01FFD4A
:1074100004A002F05FFB00200649888010BD000038
:1074200000000240CAFDBEDDB7A2CBCDCDEAB3C994
:107430000D0A0000282E002000B587B04FF4A06090
:1074400002F044FA02212C4801F04CFD2B48009038
:10745000002001902A4802900020039040F2012071
:1074600004904FF40050059000208DF81800012082
:107470008DF8190000208DF81A006A4602211E4876
:1074800001F068FD02211C4801F013FD02211A4899
:1074900001F0F6FC0121184801F024FD1748009086
:1074A00000200190174802900020039004904FF4B0
:1074B0000050059000208DF8180001208DF819006B
:1074C0008DF81A006A4601210B4801F043FD0121A5
:1074D000094801F0EEFC0121074801F0B8FC022246
:1074E0000121054801F0CDFD002211460C2002F0DB
:1074F000EFF807B000BD0000000002400448004063
:1075000028060020281A0020704710B5042002F039
:10751000CDFA10BD00B5034603E04FF47A7000F0D9
:1075200006F8181EA3F101018BB2F6D100BD6C2143
:1075300041434FF0E02251610021916111460969F8
:1075400041F00101116100BF4FF0E021096901F430
:1075500080310029F8D04FF0E021096921F00101C4
:107560004FF0E0221161704710B5012001F0A8FE34
:1075700010B3012001F09EFE0121104801F052FFDE
:10758000012805D10EA002F0A5FA00F017FA13E0C9
:1075900010A002F09FFA00BFBFF34F8F124800689F
:1075A00000F4E06011490843001D0F490860BFF373
:1075B0004F8F00BF00BFFEE710BD0000000C014070
:1075C0000D0AC1ACBDD3B7FECEF1C6F7B3C9B9A69B
:1075D0000D0A00000D0AC1ACBDD3B7FECEF1C6F74F
:1075E000B6CFBFAA0D0A00000CED00E00000FA05BE
:1075F00010B540F2036002F069F90123032228214B
:10760000244801F0B9FE042303221021214801F08F
:10761000B3FE4FF48053032210211E4801F0ACFE4C
:107620004FF40053032210211A4801F0A5FE4FF435
:10763000804303221021174801F09EFE4FF40043BF
:1076400003221021134801F097FE4FF48051114896
:1076500001F044FE4FF400510E4801F03FFE4FF49C
:1076600080410C4801F03AFE4FF40041094801F016
:1076700035FE09A002F02EFA0421064801F02EFE84
:107680004FF4FA70FFF746FF0421024801F024FE90
:1076900010BD0000000C0140B8B4CEBB3447C4A3F9
:1076A000BFE9A3ACC7EBB5C8B4FD2E2E2E202E2EFD
:1076B0002E00000000BFFEE710B540F2036002F0AC
:1076C00005F9402303221421084801F055FE8023C8
:1076D00003221421054801F04FFE4021034801F028
:1076E000FDFD8021014801F0F9FD10BD000C0140B5
:1076F00070B505460026072418E04021264801F011
:10770000EBFD0220FFF713FF4021234801F0E6FDC7
:107710008021214801F086FE18B10120A0403043AD
:10772000C6B20220FFF703FF601E44B2002CE4DA69
:107730004021194801F0D0FD0220FFF7F8FEB5B155
:107740008021154801F0C8FD4021134801F0C6FD15
:107750000220FFF7ECFE40210F4801F0BDFD802123
:107760000D4801F0BBFD0220FFF7E1FE11E0802192
:10777000094801F0B3FD4021074801F0AFFD0220A8
:10778000FFF7D5FE4021044801F0A6FD0220FFF7D7
:10779000CEFE304670BD0000000C014070B50546BD
:1077A00007241CE04021134801F096FD0120A04071
:1077B000284020B180210F4801F090FD03E0802196
:1077C0000C4801F089FD0220FFF7B1FE4021094875
:1077D00001F084FD0220FFF7AAFE601E44B2002CD7
:1077E000E0DA4021034801F077FD8021014801F0F3
:1077F00075FD70BD000C014010B540210A4801F034
:107800006DFD8021084801F069FD0220FFF78FFE21
:107810008021054801F060FD0220FFF788FE40212D
:10782000014801F059FD10BD000C014010B5402188
:10783000074801F053FD8021054801F04DFD02206D
:10784000FFF775FE8021024801F048FD10BD0000E1
:10785000000C014010B5044600BF601E04B20220B7
:10786000FFF765FE8021104801F0DCFD08B1002C17
:10787000F3DA002C01DA012010BD40210A4801F0A2
:107880002DFD0220FFF753FE8021074801F0CAFDBD
:1078900008B10220F0E74021034801F01DFD02205D
:1078A000FFF745FE0020E7E7000C01402DE9F0411D
:1078B00007460D461646FFF79FFFA020FFF76EFF15
:1078C0006420FFF7C7FF10B10120BDE8F081384602
:1078D000FFF764FF6420FFF7BDFF08B10220F4E763
:1078E000FFF78AFFA120FFF759FF6420FFF7B2FFDF
:1078F00008B10320E9E7002405E00120FFF7F8FEC6
:107900002855601CC4B2701EA042F6DC0020FFF7B0
:10791000EFFE711E6854FFF789FF0020D5E70000D5
:1079200010B550210448FEF72DF8502202490020DE
:10793000FFF7BCFF10BD00000800002070B5084D27
:1079400000240AE005EB04112207100E00F00AF8EB
:107950000520FFF7DFFD601CC4B2052CF2D370BD1B
:107960000800002070B506460D46FFF745FFA02031
:10797000FFF714FF6420FFF76DFF08B1012070BD11
:107980003046FFF70BFF6420FFF764FF08B10220C9
:10799000F5E700240BE0285DFFF700FF6420FFF708
:1079A00059FF10B1E01CC0B2E9E7601CC4B2102C52
:1079B000F1DBFFF73BFF0020E1E7000010B50120FD
:1079C0006C49A1F80002A1F802020A20A1F8040201
:1079D000A220A1F806020846B0F80402B1F8061287
:1079E00008446449A1F808021020087000BF6149EA
:1079F000B1F80802C11700EB5161C91141B95D48E6
:107A000090F808025B49B1F802125A4A505410E04B
:107A10005849B1F80802C11700EB5161C911A0EB38
:107A2000C111C9B241F08001524AB2F80222514B51
:107A300099545048B0F80202401C4E49A1F8020285
:107A4000B1F80802C11700EB5161C911494AA2F807
:107A500008121046B0F808020028C8D100211046CC
:107A6000B0F80202115404211046B0F80202401C82
:107A700011544D211046B0F80202801C11545121BE
:107A80001046B0F80202C01C115454211046B0F840
:107A90000202001D11541046B0F80202401D11549C
:107AA00004211046B0F80202801D1154C221104674
:107AB000B0F80202C01D115400211046B0F80202B5
:107AC0000830115464211046B0F8020209301154F4
:107AD00000211046B0F802020A3011544C21104621
:107AE000B0F802020B3011541146B1F802120C31F9
:107AF00088184C222049FDF7ACFE00211D48B0F843
:107B0000020258301B4A115410211046B0F80202EC
:107B1000593011541146B1F802125A318818102206
:107B200016A1FDF796FE00211248B0F802026A3055
:107B3000104A115440211046B0F802026B30115423
:107B40001146B1F802126C31881840221049FDF735
:107B500080FE0848B0F80202064AB2F80422104437
:107B6000044AB2F80622104481B2024801F0E0FF54
:107B700010BD0000E82E0020C0A0000844303031C5
:107B80002661314876785063486E6B5800000000DB
:107B90007CA0000870B505460E46012406E0285D6D
:107BA00000F0800000B903E0601CC4B2052CF6DBD5
:107BB00000BF4FF400710648FDF7C2FE701E001BA7
:107BC000821EE01C41190248FDF743FE70BD000013
:107BD000F23000202DE9F04104460D4601204C49C9
:107BE000A1F802022046FDF715FE801C4849A1F8C5
:107BF00004022846FDF70EFE4549A1F80602084694
:107C0000B0F80402B1F8061208444149A1F808028C
:107C10003020087000BF3E49B1F80802C11700EBE0
:107C20005161C91141B93A4890F808023849B1F890
:107C30000212374A505410E03549B1F80802C11712
:107C400000EB5161C911A0EBC111C9B241F0800133
:107C50002F4AB2F802222E4B99542D48B0F8020256
:107C6000401C2B49A1F80202B1F80802C11700EB31
:107C70005161C911264AA2F808121046B0F808024C
:107C80000028C8D12046FDF7C5FDC0F307212048D4
:107C9000B0F802021E4A11542046FDF7BBFDC1B2E6
:107CA0001B48B0F80202401C194A11542046FDF747
:107CB000B1FD06461649B1F80212891C144A88180B
:107CC00032462146FDF7C5FD2846FDF7A3FD0746D0
:107CD0002046FDF79FFD0E49B1F80212891C0844A9
:107CE0000B4946183A4629463046FDF7B2FD08488A
:107CF000B0F80202064AB2F804221044044AB2F86C
:107D00000622104481B2024801F012FFBDE8F08162
:107D1000E82E00202DE9F04105460E46012062497B
:107D2000A1F802022846FDF775FD001D5E49A1F885
:107D300004023046FDF76EFD5B49A1F806020846D5
:107D4000B0F80402B1F8061208445749A1F8080235
:107D50003220087000BF5449B1F80802C11700EB87
:107D60005161C91141B9504890F808024E49B1F823
:107D700002124D4A505410E04B49B1F80802C117A5
:107D800000EB5161C911A0EBC111C9B241F08001F2
:107D9000454AB2F80222444B99544348B0F80202D3
:107DA000401C4149A1F80202B1F80802C11700EBDA
:107DB0005161C9113C4AA2F808121046B0F80802F5
:107DC0000028C8D12846FDF725FDC0F30721364815
:107DD000B0F80202344A11542846FDF71BFDC1B227
:107DE0003148B0F80202401C2F4A11542846FDF7D2
:107DF00011FD04462C49B1F80212891C2A4A881840
:107E000022462946FDF725FD2846FDF703FD2649B4
:107E1000B1F80212891C084423490A46B2F800420C
:107E2000E21704EB1262C2F307220A542846FDF758
:107E3000F1FC1D49B1F80212C91C08441A490A464E
:107E4000B2F80042E21704EB12621212A4EB022213
:107E50000A540846B0F80002401CA1F8000230465F
:107E6000FDF7D8FC07462846FDF7D4FC0E49B1F8CB
:107E70000212091D08440C4944183A46314620466E
:107E8000FDF7E7FC0848B0F80202074AB2F80422FE
:107E90001044054AB2F80622104481B2024801F0AB
:107EA00047FEBDE8F0810000E82E002070B50446D2
:107EB00001205849A1F802020220A1F8040220463C
:107EC000FDF7A8FCC01C5349A1F806020846B0F80B
:107ED0000402B1F8061208444E49A1F808028220B3
:107EE000087000BF4B49B1F80802C11700EB51619F
:107EF000C91139B9474890F80812B0F80202454A4A
:107F0000115410E04349B1F80802C11700EB516168
:107F1000C911A0EBC111C9B241F080013D4AB2F8CC
:107F200002223C4B99543B48B0F80202401C3949AC
:107F3000A1F80202B1F80802C11700EB5161C911A2
:107F4000344AA2F808121046B0F808020028C9D135
:107F50001146B1F80002C11700EB1161C1F307220D
:107F60002C49B1F802122B4B5A541946B1F80002B1
:107F7000C11700EB11610912A0EB0121CAB2194629
:107F8000B1F80212491C5A541846B0F80002401CBD
:107F90001946A1F800022046FDF73CFCC0F307217A
:107FA0001C48B0F80202801C1A4A11542046FDF702
:107FB00031FCC1B21748B0F80202C01C154A115476
:107FC0002046FDF727FC05461249B1F80212091DAB
:107FD000104A88182A462146FDF73BFC2046FDF74B
:107FE00019FC0C49B1F80212091D08440949002284
:107FF0000A540846B0F802020A46B2F804221044B5
:108000000A46B2F80622104481B2024801F090FDFF
:1080100070BD0000E82E002000BFFEE770470000A2
:10802000BFF34F8F0648006800F4E060054908433D
:10803000001D03490860BFF34F8F00BFFEE700003B
:108040000CED00E00000FA0530B5C1B004460D4665
:108050004FF4807101A8FDF795FC0D48009523466B
:108060000C49D0F8102401A8FDF722F90848D0F8EF
:108070001424D0F8181408A001F02CFD01A90AA0BE
:10808000FFF7A8FD4FF49670FFF744FA41B030BDFA
:10809000E82E002018A00008B5B1C7B0B5DA2564F5
:1080A0002F2564B4CE0D0A002F7379732F613148E8
:1080B00076785063486E6B582F443030312F746897
:1080C000696E672F66696C652F646F776E6C6F6180
:1080D0006400000000B5A1B0802101A8FDF752FCAA
:1080E000054A06A101A8FDF7E3F801A90DA0FFF7D5
:1080F00011FE21B000BD0000380000207B22696421
:10810000223A202231222C22706172616D73223A50
:10811000207B2276657273696F6E223A2022257366
:10812000227D7D002F6F74612F6465766963652FF2
:10813000696E666F726D2F61314876785063486E54
:108140006B582F44303031007047000000B587B0C5
:1081500040F20C6001F0BAFB40F2026001F0B6FBA5
:10816000A02303221821114801F006F9402303221D
:1081700004210E4801F000F90D4801F0E3FB4FF433
:10818000827000900020019002904FF400700390E4
:1081900000200490059006906946054801F006FC11
:1081A000034801F0C3FB07B000BD00000008014018
:1081B0000030014010B5044600BF02210A4801F01A
:1081C000EDFB0128F9D12146074801F0B8FB00BFBB
:1081D0000121054801F0E2FB0128F9D1024801F034
:1081E000AAFBC0B210BD00000030014070B50546CA
:1081F0000E46002404E0285DFFF7DCFF601C84B21B
:10820000B442F8DB70BD70477047000008B53148D4
:10821000006840F001002F49086000BF2D48006849
:1082200000F002000028F9D000BF2A48406840F062
:108230008000284948600020009002E00098401C1F
:10824000009000985028F9D32248406840F09000F0
:10825000204948600020009002E00098401C0090F7
:1082600000985028F9D300BF1A48406820F0030056
:1082700018494860084600681749084015490860D1
:108280000846406815490840124948600846006899
:10829000114908400F4908600846006820F4802012
:1082A0000860084640680E4908400A494860084688
:1082B000006809490840074908604FF41F008860BA
:1082C00001F0F0FB4FF4A0414FF0006001F060FAC4
:1082D00008BD000000100240FFFFF6FE0C00FFE8A2
:1082E000FFFF00F70948A0F10801C1F8A800C1F894
:1082F000AC004830C1F8B0000548D1F8A8100860BB
:10830000002002490839088070470000302E002004
:10831000280600200948A0F15801C1F8B400C1F8AE
:10832000B8004830C1F8BC000548D1F8B410086066
:10833000002002495839488088807047802E0020EC
:10834000281A002038B504460D46062D1ED10622F7
:108350009BA12046FDF732FAC0B99BA001F0BAFB01
:10836000280201F0B3FA00F031FF022200210120BF
:1083700000F03AFF0021012000F0B2FF012000F0E0
:1083800091FF00221146062001F0A2F9042D1FD111
:10839000207820281CD198A001F09CFBE0780028D0
:1083A00011D19AA001F096FB9F48006840F00100AF
:1083B0009D4908609DA0FFF779FDA9A0FFF776FD14
:1083C000FFF788FE04E0B2A001F084FBFFF728FE6F
:1083D000052D15D12078902812D1B4A001F07AFB98
:1083E000681E205C18B1681E205C012803D1B4A06F
:1083F00001F070FB04E0B8A001F06CFBFFF710FE89
:108400008948007800F0010000287CD020783028CE
:1084100079D1BAA001F05EFB29462046FFF7BAFBEE
:10842000BD49BEA001F056FBBEA1BB48FDF7B4F9A3
:1084300058B1C0A001F04EFB4FF48051C04800F08D
:108440004DFFC0A1C6A0FFF7C5FBD1A1B248FDF703
:10845000A3F958B1D2A001F03DFB4FF48051B848C8
:1084600000F03AFFD1A1BEA0FFF7B4FBD6A1AA4805
:10847000FDF792F958B1D8A001F02CFB4FF4005150
:10848000AF4800F02BFFD7A1B5A0FFF7A3FBDCA1FD
:10849000A148FDF781F958B1DDA001F01BFB4FF4B5
:1084A0000051A74800F018FFDCA1ADA0FFF792FB38
:1084B000E1A19948FDF770F958B1E3A001F00AFB7A
:1084C0004FF480419E4800F009FFE2A1A4A0FFF70D
:1084D00081FBE7A19048FDF75FF958B1E8A001F0F2
:1084E000F9FA4FF48041964800F0F6FEE7A19CA00F
:1084F000FFF770FBECA18848FDF74EF968B1EEA0DC
:1085000001F0E8FA00E08EE24FF400418C4800F000
:10851000E5FEECA192A0FFF75DFBF1A17E48FDF71F
:108520003BF958B1F2A001F0D5FA4FF4004184486C
:1085300000F0D2FEF1A18AA0FFF74CFBF6A176482D
:10854000FDF72AF9002839D0FD48A0F110031A1FC1
:10855000FC4900907048FCF7EBFF03282FD1FA4844
:10856000D0F80C14F9A001F0B5FAF748D0F81014BF
:10857000FBA001F0AFFAF249FDA001F0ABFA2A48E6
:10858000006840F0020028490860002000F0C8FBA5
:10859000ED49D1F80C04C11700EB11610912A0EBF1
:1085A000012151B9E849D1F80C04C11700EB116160
:1085B0000912E54AC2F81414EFE1E3E102E2FEE138
:1085C0006368616F7A6900000D0A3447C4A3BFE98C
:1085D000B8B4CEBBB3C9B9A62CB5C8B4FDC1ACBD47
:1085E000D3B7FECEF1C6F7B3C9B9A62E2E2E202ED4
:1085F0002E2E0D0A00000000CAD5B5BD434F4E4EC9
:1086000041434BB1A8CEC40D0A000000434F4E4E6B
:10861000454354B1A8CEC4B3C9B9A6C1ACBDD3B704
:10862000FECEF1C6F70D0A00000000202F7379730B
:108630002F61314876785063486E6B582F44303044
:10864000312F7468696E672F736572766963652F61
:1086500070726F70657274792F736574000000001A
:108660002F7379732F61314876785063486E6B5859
:108670002F443030312F7468696E672F66696C65DE
:108680002F646F776E6C6F61645F7265706C7900D8
:10869000434F4E4E454354B1A8CEC4B4EDCEF3A3E0
:1086A000ACD7BCB1B8D6D8C6F40D0A00CAD5B5BD92
:1086B00053554241434BB1A8CEC40D0A00000000FF
:1086C0005355424352494245B6A9D4C4B1A8CEC479
:1086D000B3C9B9A60D0A0000535542435249424559
:1086E000B6A9D4C4B1A8CEC4B4EDCEF3A3ACD7BC64
:1086F000B1B8D6D8C6F40D0A00000000CAD5B5BD81
:10870000B5C8BCB630B5C45055424C495348B1A861
:10871000CEC40D0A00000000F230002025730D0ABF
:10872000000000007B2253776974636831223A307D
:108730007D000000B9D8B1D5BFAAB9D8310D0A0063
:10874000000C01407B22706172616D73223A7B22C2
:1087500053776974636831223A307D7D00000000F0
:108760002F7379732F61314876785063486E6B5858
:108770002F443030312F7468696E672F6576656ECF
:10878000742F70726F70657274792F706F737400CC
:108790007B2253776974636831223A317D0000008F
:1087A000B4F2BFAABFAAB9D8310D0A007B2270610A
:1087B00072616D73223A7B22537769746368312248
:1087C0003A317D7D000000007B2253776974636835
:1087D00032223A307D000000B9D8B1D5BFAAB9D84D
:1087E000320D0A007B22706172616D73223A7B2226
:1087F00053776974636832223A307D7D000000004F
:108800007B2253776974636832223A317D0000001D
:10881000B4F2BFAABFAAB9D8320D0A007B22706198
:1088200072616D73223A7B225377697463683222D6
:108830003A317D7D000000007B22537769746368C4
:1088400033223A307D000000B9D8B1D5BFAAB9D8DB
:10885000330D0A007B22706172616D73223A7B22B4
:1088600053776974636833223A307D7D00000000DD
:108870007B2253776974636833223A317D000000AC
:10888000B4F2BFAABFAAB9D8330D0A007B22706127
:1088900072616D73223A7B22537769746368332265
:1088A0003A317D7D000000007B2253776974636854
:1088B00034223A307D000000B9D8B1D5BFAAB9D86A
:1088C000340D0A007B22706172616D73223A7B2243
:1088D00053776974636834223A307D7D000000006C
:1088E0007B2253776974636834223A317D0000003B
:1088F000B4F2BFAABFAAB9D8340D0A007B227061B6
:1089000072616D73223A7B225377697463683422F3
:108910003A317D7D000000002F6F74612F64657611
:108920006963652F757067726164652F6131487680
:10893000785063486E6B582F44303031000000008F
:1089400008330020409F0008E82E00204F5441B912
:10895000CCBCFEB4F3D0A1A3BA25640D0A0000007C
:108960004F5441B9CCBCFE4944A3BA25640D0A005A
:108970004F5441B9CCBCFEB0E6B1BEBAC5A3BA25CE
:10898000730D0A005149D1F80C04C11700EB1161B5
:108990000912491C4D4AC2F8141401204B49C1F870
:1089A00018040002C1F81C040A46D2F81824521E0A
:1089B0001102464AD2F81C04FFF746FB02E044A02D
:1089C00001F088F8AFF268314748FCF7E5FE00286F
:1089D0007AD03E4AB2F81824521E91B23B4AD2F8DD
:1089E0001C24AA1A921E101900F0D4F93748D0F8A6
:1089F0001804401C3549C1F818040846D0F818047A
:108A0000D1F8141488420FDA4FF480702F49C1F85E
:108A10001C040A46D2F81824521E11022B4AD2F81E
:108A20001C04FFF711FB4FE02848D0F81804274931
:108A3000D1F8141488422FD12449D1F80C04C1175D
:108A400000EB11610912A0EB012179B94FF480709C
:108A50001E49C1F81C040A46D2F81824521E1102FD
:108A60001A4AD2F81C04FFF7EFFA2DE01749D1F8A3
:108A70000C04C11700EB11610912A0EB0121134A8C
:108A8000C2F81C14D2F81824521E11020F4AD2F850
:108A90001C04FFF7D9FA17E014A001F01BF82021FD
:108AA0001648FCF76FFF1A2215491448FCF716FF09
:108AB0000648D0F80C041149303948601148086064
:108AC000FEF73CFFFFF7ACFA38BD0000E82E0020AF
:108AD000CCE1C8A14F5441CFC2D4D8C3FCC1EEB43D
:108AE000EDCEF30D0A000000F23000204F5441CFCC
:108AF000C2D4D8CDEAB1CF0D0A0000003800002062
:108B0000083300202211BBAA10B53249324801F0C7
:108B100022F900285CD004212F4801F000F92E48EA
:108B200001F096F802212D4800F03FFB40F20121B0
:108B3000081A2B49098808442949088008460088F2
:108B4000401E284908442649D1F8A8104860244806
:108B5000D0F8A80008302249C1F8A8000846D0F88B
:108B6000A800D1F8B010884204D11D4808301C4933
:108B7000C1F8A8001A480088C0F5A050B0F5007FE1
:108B800008DB17480088174908441549D1F8A81090
:108B9000086007E013481249D1F8A81008600020C7
:108BA0000F49088002210D4800F051F940F20122DE
:108BB00002210A4800F0E6FA0948D0F8A80002218C
:108BC0000268064800F0BFFA0221044800F058F994
:108BD00010BD0000040304000048004000000240F3
:108BE000282E00202806002000BFFEE710B504460E
:108BF00040F20E6000F06AFE40F2026000F066FE95
:108C00004FF40073032218210E4800F0B5FB0E4804
:108C100001F028F821460C4800F0D2FF00210A4854
:108C200001F0B5F80021084801F0D1F8002106480C
:108C300001F0BDF80821044801F0C1F8024801F034
:108C400069F810BD000801400038014010B5044625
:108C500040F2127000F03AFE40F2036000F036FE7F
:108C60004FF4806303221821224800F085FB4FF463
:108C70000063032204211F4800F07EFB1E4800F021
:108C8000F1FF21461C4800F09BFF00211A4801F02B
:108C90007EF80021184801F09AF80021164801F0EA
:108CA00086F80821144801F08AF80421124801F0DE
:108CB00076F84021104801F01DF880210E4801F09F
:108CC00021F84FF4A06000F059FD00221146272042
:108CD00000F0FEFC4FF44171074801F02FF8FFF758
:108CE00001FBFFF717FBFEF7A7FB034801F012F8A3
:108CF00010BD0000000C01400048004010B500F01D
:108D000073F81021054800F0E7FA0620FFF752FA41
:108D10001021024800F0E2FA10BD000000080140F6
:108D200038B50446D8208DF80000A0B28DF80100B7
:108D30002004000A8DF802002004C0B28DF8030060
:108D400000F052F8FFF7DAFF1021074800F0C4FAEC
:108D500004216846FFF74AFA1021034800F0BEFAE2
:108D600000F042F838BD00000008014010B540F2A4
:108D7000026000F0ABFD102303221946044800F006
:108D8000FBFA1021024800F0A9FAFFF7DFF910BD45
:108D90000008014038B505460C4602208DF8000059
:108DA000C4F30F208DF8010024F07F408DF80200FD
:108DB0002002C0B28DF8030000F016F8FFF79EFF06
:108DC0001021084800F088FA04216846FFF70EFADF
:108DD0004FF480712846FFF709FA1021014800F08E
:108DE0007DFA38BD0008014010B500BF10210948C8
:108DF00000F072FA0520FFF7DDF9FF20FFF7DAF93E
:108E000004461021034800F069FA04F0010000282C
:108E1000ECD110BD00080140490050EAC12018BF44
:108E200004204A0D18BF40F0010040F2FF72B2EB7F
:108E3000515F08BF40F00200012808BF05207047BD
:108E400030380A2801D2012070470020704770B5E1
:108E500005460C462146284600F088F908B900BFAF
:108E6000FEE704EB8400810005F10800405820F083
:108E7000010104EB8400820005F10800815070BDFF
:108E800070B505460C462146284600F06FF908B932
:108E900000BFFEE704EB8400810005F108004058A4
:108EA00040F0010104EB8400820005F108008150CC
:108EB00070BD70B505460C462146284600F056F9AF
:108EC00008B900BFFEE704EB8400810005F108004B
:108ED000405820F0200104EB8400820005F10800D6
:108EE000815070BD70B504460D462946204600F0FD
:108EF0003DF908B900BFFEE705EB8500810004F1EC
:108F00000800405820F0010105EB8500820004F1C3
:108F100008008150002105EB8500820004F1080063
:108F2000815005EB8500820004F10C00815005EBB7
:108F30008500820004F11000815005EB850082005D
:108F400004F1140081506068AA000F219140084389
:108F5000606070BD2DE9F04104460D461646294675
:108F6000204600F003F908B900BFFEE705EB8500D5
:108F7000820004F110003168815005EB8500820009
:108F800004F11400B1688150308A81B205EB85008C
:108F9000820004F10C00815005EB8500810004F192
:108FA0000800475827F47C57F168706808437169D6
:108FB0000843074305EB8500810004F10800475092
:108FC000307E01280ED105EB8500810004F10800F8
:108FD000405840F0400105EB8500820004F1080094
:108FE00081500DE005EB8500810004F10800405838
:108FF00020F0400105EB8500820004F1080081505B
:10900000707E01280ED105EB8500810004F1080077
:10901000405840F0800105EB8500820004F1080013
:1090200081500DE005EB8500810004F108004058F7
:1090300020F0800105EB8500820004F108008150DA
:10904000B07E70B905EB8500810004F1080040583E
:1090500020F0100105EB8500820004F1080081502A
:109060000DE005EB8500810004F10800405840F058
:10907000100105EB8500820004F108008150BDE875
:10908000F08170B504460D4616462946204600F08C
:109090006DF808B900BFFEE705EB8500810004F11B
:1090A00008004058304305EB85018A0004F10801AF
:1090B000885070BD10B543688C0002FA04F4234355
:1090C000436010BD70B5034600BF00BF022A04D044
:1090D000042A11D0082A2DD11DE018688E0002FA4A
:1090E00006F600EA060501EB8100860003F10800A0
:1090F000805900F002041FE018688E0002FA06F69C
:1091000000EA060501EB8100860003F108008059A2
:1091100000F0040410E018688E0002FA06F600EA77
:10912000060501EB8100860003F10800805900F07C
:10913000080401E000BFFEE700BF15B10CB101203B
:1091400070BD0020FCE770B506460C46154621466A
:10915000304600F00BF808B900BFFEE704EB8400CE
:10916000810006F11400455070BD00000246012048
:10917000034B9A4202D1042900DD00207047000011
:109180000004024070B506460C461546214630469E
:10919000FFF7ECFF08B900BFFEE7A9B204EB8400BB
:1091A000820006F10C00815070BD70B505460C467A
:1091B00021462846FFF7DAFF08B900BFFEE704EBB7
:1091C0008400810005F10C00405870BD0020054965
:1091D0000860091D0860091D0860091D0860091D57
:1091E000086070470004014010B52D4B1B68834395
:1091F0002B4C2360231D1B688343241D2360231DE8
:109200001B688343241D2360231D1B688343241D87
:10921000236011B101290ED105E0214B1B680343E6
:109220001F4C236008E01E4B1B1D1B6803431C4C96
:10923000241D236000E000BF00BF32B1012A11D01D
:10924000022A1CD0032A27D127E0154B08331B68BC
:109250000343134C08342360231D1B688343241DE0
:1092600023601BE00E4B08331B6883430C4C08340F
:109270002360231D1B680343241D23600EE0084B5D
:1092800008331B680343064C08342360231D1B6806
:109290000343241D236001E000BF00BF00BF10BDD9
:1092A00000040140024909680143014A1160704706
:1092B00000040140014908607047000014040140A7
:1092C000014604480068084008B1012070470020AA
:1092D000FCE70000140401404161704701617047E0
:1092E00010B500228B071C0F0F2303FA04F2042988
:1092F0000EDA204B9B6893431E4CA36023469B6869
:109300008C07240F00FA04F423431A4CA3602FE0C7
:1093100008290EDA174BDB689343164CE3602346AB
:10932000DB688C07240F00FA04F42343114CE3603C
:109330001EE00C290EDA0F4B1B6993430D4C236181
:1093400023461B698C07240F00FA04F42343094CBD
:1093500023610DE0074B5B699343064C6361234631
:109360005B698C07240F00FA04F42343014C63610A
:1093700010BD000000000140F0B50446164600256F
:10938000002201F00F0501F0100707B1354300205E
:109390001EE0012787401F40C7B122684FEA800CBA
:1093A0000F2707FA0CF7BA43870005FA07F73A4385
:1093B000282904D1012787401F40676105E048291B
:1093C00003D1012787401F4027612260471CB8B2A4
:1093D0000828DED3082022E0012787401F40E7B19C
:1093E0006268A0F108074FEA870C0F2707FA0CF70D
:1093F000BA43A0F10807BF0005FA07F73A43282946
:1094000004D1012787401F40676105E0482903D147
:10941000012787401F4027616260471CB8B21028AF
:10942000DAD3F0BD02469068084008B101207047C9
:109430000020FCE7FEF769F84FF4E130FFF706FC87
:109440004FF46120FFF7D2FBFEF736F9FEF768FA1A
:10945000FFF78CFCFEF7CCF86CA000F03BFBD4E0EF
:109460006C48D0F8AC006B49D1F8A81088424BD0BA
:109470006848D0F8AC004068664AD2F8AC20126860
:10948000801A411C64A000F025FB002409E061481B
:10949000D0F8AC000068015D65A000F01BFB601C0B
:1094A00084B25C48D0F8AC0040685A49D1F8AC109E
:1094B0000968401A401CA042E9DC5FA000F00AFBEA
:1094C000544AD2F8AC209288524BD3F8AC301B8867
:1094D000D21A521C91B24F4AD2F8AC201068FEF753
:1094E00031FF4C48D0F8AC0008304A49C1F8AC0014
:1094F0000846D0F8AC00D1F8B010884204D14548F5
:1095000008304449C1F8AC004248D0F8B80041499D
:10951000D1F8B41088425BD03E488088002857D1EB
:109520003C48D0F8B80040683A4AD2F8B8201268EF
:10953000801A411C41A000F0CDFA002409E0354812
:10954000D0F8B8000068015D39A000F0C3FA601CD3
:1095500084B23048D0F8B80040682E49D1F8B8102D
:109560000968401A401CA042E9DC33A000F0B2FABE
:109570000120284988800846D0F8B80001210268F7
:109580003448FFF7E0FD2348D0F8B800406821498F
:10959000D1F8B8100968401A421C01212D48FFF784
:1095A000F1FD01212B48FFF76BFC1A48D0F8B800F9
:1095B00008301849C1F8B8000846D0F8B800D1F80A
:1095C000BC10884204D1134858301249C1F8B80081
:1095D0000A20FDF79FFF20480068401C1E490860D4
:1095E00008460068B0F5FA7F0FD31C48007800F0F9
:1095F000010050B11948007800F0020028B900209D
:10960000086017A126A0FEF7E5FA29E7312E302ED3
:10961000300D0A00282E0020B1BEB4CEBDD3CAD56D
:109620002564D7D6BDDACAFDBEDD0D0A00000000F4
:1096300025303278200000000D0A0000B1BEB4CE03
:10964000B7A2CBCD2564D7D6BDDACAFDBEDD0D0AE3
:109650000000000000000240040000200000002084
:109660007B22706172616D73223A7B2274656D702A
:1096700065726174757265223A33332E33332C224E
:1096800048756D6964697479223A32322E32322C0F
:10969000224C69676874223A32322E32327D7D0064
:1096A0002F7379732F61314876785063486E6B5809
:1096B0002F443030312F7468696E672F6576656E80
:1096C000742F70726F70657274792F706F7374007D
:1096D0002DE9F04103460D46164600240027A0461A
:1096E0002448006800F4E060B0F5A06F15D006DCF7
:1096F000B0F5407F18D0B0F5806F19D110E0B0F50B
:10970000C06F06D0B0F5E06F12D100274FF004080B
:1097100015E001274FF0030811E00227B8460EE0DC
:1097200003274FF001080AE004274FF0000806E085
:109730004FF4A06000F022F80227B84600BF00BF37
:10974000C7F1040005FA00F4C8F104010F20C84075
:109750003040044324010848C45403F01F01012091
:1097600088405911890001F1E021C1F80001BDE8EC
:10977000F08100000CED00E000E400E0024901434C
:10978000024A1160704700000000FA050CED00E08D
:10979000034A0A400243034B1A60BFF34F8F7047DE
:1097A00080FFFF1F08ED00E02DE9F04F8BB007466A
:1097B000002009903EA090E8004CC068CDE905BEAD
:1097C000CDF810A007900FF2EC0ADAE9000ACDE913
:1097D000020A0FF2E00ADAE9000ACDE9000A384885
:1097E0004068C0F381000A900A9820B1012804D093
:1097F000022829D103E0334928E0324926E03048E5
:10980000406800F48038B8F5803F09D12D4C2C48D1
:10981000406800F40039B9F5003F02D1641000E05F
:10982000294C27484068C0F383422548406800F02F
:10983000006008B142F010020F2A01D2921C00E031
:10984000521C04FB02F101E01E4900BF00BF1C488E
:109850004068C0F3031504A8465D21FA06F31848D2
:109860004068C0F3022502A8465D23FA06FC1448AE
:109870004068C0F3C2251DF8056023FA06F0089081
:1098800037B1012F06D0022F06D0032F0AD106E0F0
:10989000099108E0099306E0CDF824C003E0089898
:1098A000099000E000BF00BF09980BB0BDE8F08F41
:1098B0000000000000000000010203040607080980
:1098C0000010024000127A0000093D00064A02EB37
:1098D0009011096800F01F0301229A401143024BC6
:1098E00003EB90121160704700100240064A02EB31
:1098F0009011096800F01F0301229A409143024B26
:1099000003EB90121160704700100240064A02EB10
:109910009011096800F01F0301229A401143024B85
:1099200003EB90121160704700100240016841F093
:109930004001016070470146C86880B27047C1604D
:109940007047000010B504461348204470B1B0F5CC
:10995000806F14D0B0F5784F1AD14FF44370FFF7F1
:10996000D5FF4FF44370FFF7C1FF12E040F20E4005
:10997000FFF7CCFF40F20E40FFF7B8FF09E040F2DE
:109980000F40FFF7C3FF40F20F40FFF7AFFF00E0CB
:1099900000BF00BF10BD000000C8FFBF02469068B6
:1099A000084008B1012070470020FCE70246002073
:1099B000106800F441500B6818434B6818438B68DB
:1099C0001843CB6818430B6918434B6918438B69DC
:1099D00018431060D36923F40063D361704700001B
:1099E000002000212C4A126842F480322A4B1A606F
:1099F00000BF401C284A126802F4003119B94FF622
:109A0000FF729042F5D1244A126802F400320AB97A
:109A100000BFFEE7204A52681F4B5A601A46526840
:109A20005A601A46526842F480625A601A46526876
:109A300022F440325A601A46526842F440325A6068
:109A40001A465268154B1A40134B5A601A46526810
:109A5000134B1A43104B5A601A46126842F0807238
:109A60001A6000BF0C4A126802F00072002AF9D096
:109A7000094A526822F00302074B5A601A4652689C
:109A800042F002025A6000BF034A526802F00C0220
:109A9000082AF9D17047000000100240FFFFC3F709
:109AA0000000280810B5FFF79BFF10BD042808D15F
:109AB0004FF0E021096941F004014FF0E02211610B
:109AC00007E04FF0E021096921F004014FF0E022A6
:109AD000116170470FB438B505A800901248009A7C
:109AE0000499FBF7D3FB0020009000240DE000BF99
:109AF00007210E4800F013F90128F9D10A48015D49
:109B00000A4800F0AAF8601C84B20748FBF782FEFE
:109B1000A042ECD800BF0621044800F000F901285B
:109B2000F9D138BC5DF814FB68040020003801400E
:109B300070B505460C4620484088C0F5A050A042AC
:109B400008DB1D4840881D4908441B49D1F8B41062
:109B5000086006E00020184948801848D1F8B41081
:109B600008601549D1F8B410224608682946FBF769
:109B700070FE1148408820440F49488008464088BC
:109B8000401E0E4908440C49D1F8B41048600A48F8
:109B9000D0F8B40008300849C1F8B4000846D0F83D
:109BA000B400D1F8BC10884204D1034858300249AF
:109BB000C1F8B40070BD0000282E0020281A002033
:109BC0002DE9F04704460D460027B846B946002661
:109BD0001D49601A8C421CD006DC1C48204470B120
:109BE000B0F5806F1FD10FE0B0F5806F16D0B0F5E3
:109BF0006C4F18D10320FFF7D7FD074614E0022071
:109C0000FFF7D2FD07460FE00220FFF7CDFD074624
:109C10000AE00220FFF7C8FD074605E00220FFF733
:109C2000C3FD074600E000BF00BF07EB5500B0FBD7
:109C3000F5F64FF6F07006EA000806F00F0948EA5C
:109C40000900A060BDE8F087004C004000BCFFBFE9
:109C500001464868C0F308007047C1F3080242603B
:109C60007047000010B504462049601A8C4228D085
:109C700006DC1F48204490B1B0F5806F33D117E067
:109C8000B0F5806F26D0B0F56C4F2CD140F20E307D
:109C9000FFF73CFE40F20E30FFF728FE24E040F2D2
:109CA0001140FFF733FE40F21140FFF71FFE1BE0AB
:109CB00040F21240FFF72AFE40F21240FFF716FE74
:109CC00012E040F21340FFF721FE40F21340FFF78D
:109CD0000DFE09E040F21440FFF718FE40F2144078
:109CE000FFF704FE00E000BF00BF10BD004C0040C5
:109CF00000BCFFBF0A460021416921F04001114329
:109D0000416170470A460021416921F080011143F9
:109D100041617047C16841F40051C160704710B59E
:109D2000024602EB9110006801F01F040123A340DA
:109D3000184008B1012010BD0020FCE710B5C1F3A8
:109D40008912825801F01F040123A3401A43C1F372
:109D50008913C25010BD70B5024600230024C1F320
:109D60008910105801F01F060125B54000EA0503CF
:109D700002EB91500068C1F304460125B54000EAAA
:109D8000050414B10BB1012070BD0020FCE7C268CE
:109D900022F4C062C260C2680A43C26070470A46C9
:109DA0000021C16821F004011143C16070470269BC
:109DB00022F44052026102690A43026170470A4676
:109DC0000021C16821F008011143C1607047C268D9
:109DD00022F48052C260C2680A43C2607047000029
:109DE00010B500290AD00878002807D00548784423
:109DF000FCF7ECFE002801D0002010BD024878449A
:109E000010BD0000420300003A03000010B5002915
:109E10000AD00878002807D005487844FCF7D6FE19
:109E2000002801D0002010BD0248784410BD000079
:109E3000320300002A030000FCF731B9FCF766BAD0
:109E40000400000800000000000000020001000003
:109E5000100000000000000000000000303132332C
:109E6000343536373839414243444546403058004E
:109E70003031323334353637383961626364656680
:109E8000403078003031323334353637383961621A
:109E90006364656678700030313233343536373874
:109EA00039414243444546585000000002400000FA
:109EB000000000A00000000005400000000000C8F5
:109EC000000000000C4000000000409C000000006A
:109ED000194000000020BCBE00000000344000001B
:109EE000BFC91B8E00000004B5400000504BCFD00E
:109EF0006607E2CF010000006C4100003E8251AADB
:109F0000DFEEA73401000000D9420000DCB5A0E27A
:109F10003A301F97FFFFFFFFB4450000FD25A0C8A2
:109F2000E9A3C14FFFFFFFFFFF3F000000000080DB
:109F300000000000FF3F0000000000800000000063
:109F40002F6F74612F6465766963652F7570677212
:109F50006164652F61314876785063486E6B582F85
:109F6000443030317B22636F6465223A22313030D5
:109F700030222C2264617461223A7B2273697A65F3
:109F8000223A25642C2273747265616D4964223A09
:109F900025642C227369676E223A22252A33327394
:109FA000222C226450726F746F636F6C223A226DA0
:109FB000717474222C2276657273696F6E223A2254
:109FC00025323673222C227369676E4D6574686F73
:109FD00064223A224D6435222C2273747265616DBD
:109FE00046696C654964223A312C226D6435223A07
:109FF00022252A333273227D2C226964223A252AB3
:10A00000642C226D657373616765223A22737563F0
:10A0100063657373227D00007B226964223A2022EB
:10A0200031222C22706172616D73223A207B22668C
:10A03000696C65496E666F223A7B22737472656142
:10A040006D4964223A25642C2266696C6549642254
:10A050003A317D2C2266696C65426C6F636B223AE3
:10A060007B2273697A65223A25642C226F666673B7
:10A070006574223A25647D7D7D00000037613234AD
:10A080003563306135663233636130323065326357
:10A090003661653661633665336434323663653004
:10A0A000313534653732363738323864343331330A
:10A0B000326561313034383530636661000000004C
:10A0C00061314876785063486E6B582E4430303199
:10A0D0007C7365637572656D6F64653D322C736961
:10A0E000676E6D6574686F643D686D616373686108
:10A0F0003235362C74696D657374616D703D31361F
:10A1000038323331393535323330327C000000009B
:10A110005CA2000800000020080000004051000878
:10A1200064A2000808000020803900005C5100088B
:10A130001C00000043000000F8FFFFFF0C000000BF
:10A140000E0000000F0000002E00000010010000B3
:10A1500043000000F8FFFFFF004040404040404007
:10A1600040404141414141404040404040404040EA
:10A17000404040404040404040050202020202028E
:10A1800002020202020202020220202020202020DD
:10A1900020202002020202020202909090909090F1
:10A1A00010101010101010101010101010101010AF
:10A1B0001010101002020202020288888888888823
:10A1C000080808080808080808080808080808080F
:10A1D0000808080802020202400000000000000017
:10A1E000000000000000000000000000000000006F
:10A1F000000000000000000000000000000000005F
:10A20000000000000000000000000000000000004E
:10A21000000000000000000000000000000000003E
:10A22000000000000000000000000000000000002E
:10A23000000000000000000000000000000000001E
:10A24000000000000000000000000000000000000E
:10A2500000000000000000000000000000000000FE
:04A2600000000000FA
:040000050800510599
:00000001FF
